:020000040800F2
:100000004808002035020008613A000881380008DD
:100010005D3A000819170008F944000800000000C4
:10002000000000000000000000000000113B00087C
:100030001118000800000000D13A0008693B0008D0
:100040004F0200084F0200084F0200084F0200084C
:100050004F0200084F0200084F0200084F0200083C
:100060004F0200084F0200084F0200084F0200082C
:100070004F0200084F020008A1170008B11700083E
:100080004F0200084F0200084F0200084F0200080C
:100090004F0200084F0200084F0200084F020008FC
:1000A0004F0200084F0200084F0200084F020008EC
:1000B0004F0200084F0200084F0200084F020008DC
:1000C0004F0200084F0200084F0200084F020008CC
:1000D0004F020008E94400084F0200084F020008E0
:1000E0004F0200084F0200084F02000800F002F81B
:1000F00000F090F80AA090E8000C82448344AAF132
:100100000107DA4501D100F085F8AFF2090EBAE82F
:100110000F0013F0010F18BFFB1A43F0010318473B
:10012000F052000010530000103A24BF78C878C184
:10013000FAD8520724BF30C830C144BF04680C60ED
:10014000704700000023002400250026103A28BF35
:1001500078C1FBD8520728BF30C148BF0B60704739
:100160006E2900F0D181702900F01383662905F013
:100170005D80652905F05A80672905F0578061295F
:1001800005F0568003681B0A28BF41F080016929E9
:1001900000F07E81642900F07B81752900F0788170
:1001A0006F2900F0A182782900F0DF82E92900F0B0
:1001B0003B82E42900F03882F52900F03582EF29EE
:1001C00000F09E82F82900F0DE820368DB0928BF78
:1001D00041F08001632901F04580732901F04A80D4
:1001E000E32901F05580F32901F05A80002070477F
:1001F0001FB501F00FF904000020002104F0EAFF10
:10020000401C60600020002104F0FAFFE0601FBD88
:1002100010B510BD01F0D9F81146FFF7E9FF04F061
:10022000C7FA01F0BBF903B4FFF7F2FF03BC01F01A
:10023000FFF900000948804709480047FEE7FEE74C
:10024000FEE7FEE7FEE7FEE7FEE7FEE7FEE7FEE786
:1002500004480549054A064B70470000DD3B00088D
:10026000ED00000848020020480800204804002053
:10027000480400200FB41CB5084B06AA7B4469460D
:100280000090059800F059F904460020694600F0F6
:1002900067F920461CBC5DF814FB0000E102000079
:1002A00070B5064600F08EF80468054630460A220E
:1002B000002100F03DFB2C6070BD0000014A00F001
:1002C0006FBB00000000002030B505460B462A46F3
:1002D00013F8014B12F8010B08B1A042F8D01CB181
:1002E000002802D06D1CF1E7284630BD10B5431C34
:1002F00002E010F8011B71B18107FAD14FF0013211
:1003000002C88C1A8C4314EAC211F9D0C01A0A062A
:1003100003D0C01E10BDC01A10BD0A0401D0801E3B
:1003200010BD0902FCD0401E10BD4FF00002042990
:10033000C0F0128010F0030C00F01B80CCF1040C14
:10034000BCF1020F18BF00F8012BA8BF20F8022B48
:10035000A1EB0C0100F00DB85FEAC17C24BF00F8EE
:10036000012B00F8012B48BF00F8012B70474FF01C
:10037000000200B5134694469646203922BFA0E8F5
:100380000C50A0E80C50B1F12001BFF4F7AF090701
:1003900028BFA0E80C5048BF0CC05DF804EB8900F2
:1003A00028BF40F8042B08BF704748BF20F8022B35
:1003B00011F0804F18BF00F8012B7047704770474D
:1003C00070470000004870471800002070B50446D0
:1003D00085690068C10601D5302600E02026C007E7
:1003E00007D070BDD4E9012130469047206A401CF7
:1003F00020626D1EF6D570BD70B504468569007823
:10040000C00707D170BDD4E9012120209047206AA0
:10041000401C20626D1EF6D570BD09684A0501D5E5
:1004200040B27047C905FCD500B2704709684A055B
:1004300001D5C0B27047C905FCD580B2704770B510
:100440000C460546012A05D02878800600D5EA69C1
:10045000002302E0012305E05B1C934202D2E05C32
:100460000028F9D1A869E618C01AA861286A1844BA
:1004700028622846FFF7AAFF04E0D5E9012114F815
:10048000010B9047B442F8D32846FFF7B5FF70BD83
:100490002DE9F0410646002410687529314616A55D
:1004A00010D0FFF7BAFF002802DA404213A507E098
:1004B00031688A0701D512A502E0490704D511A5C4
:1004C000012401E0FFF7B2FF00210A2206F1240710
:1004D00009E0B0FBF2FCB0FBF2F302FB1C00303091
:1004E00078541846491C0028F3D123462A46304642
:1004F000BDE8F04100F0C7BA000000002D00000088
:100500002B0000002000000011680268006A5305FB
:1005100001D508700AE0D30501D5088006E013066E
:1005200003D5C217C1E9000200E00860012070474E
:1005300001694A1C02610878704700B58FB0CDE9A7
:1005400001310021059105497944CDE90310114697
:10055000684600F029F90FB000BD0000E5FFFFFF7D
:100560000A6802F8010B0A60704700002DE9FF5F7E
:1005700015468A460446DFF8AC80F8440027D8E9DF
:1005800000103E46CDE9001010E03AF816106A4619
:1005900002A800F0D8FE411C07D02178890603D5B7
:1005A000E269391891420DD80744761C20788006FC
:1005B00002D5E069B84205DDAE42E6DB3AF8160046
:1005C0000028E2D1A069C01BA0612046FFF7FEFE13
:1005D000D8E90010CDE90010002017E03AF8181013
:1005E0006A4602A800F0AFFEB0F1FF3F81460BD093
:1005F00000250DF1080B05E0D4E901211BF80500E9
:1006000090476D1C4D45F7D308F10100B04280467C
:10061000E4DB206A384420622046FFF7EDFEBDE8A7
:10062000FF9F0000B64C00002DE9F0418046D21D2E
:1006300022F007020025D2E90002F52915A614D000
:10064000011E72F1000106DA0023D0EB030063EB18
:10065000020211A608E0D8F800108B0701D50FA6FA
:1006600002E0490701D50EA601251146002408F134
:10067000240704E000F0C2F930323A55641C50EA15
:100680000102F7D12B46324621464046BDE8F041F3
:1006900000F0F9B9000000002D0000002B00000060
:1006A0002000000030B4002100F1240408E002F032
:1006B0000705D208303542EA4372DB086554491C0D
:1006C00052EA0305F3D10468002310A2250708D5D8
:1006D00004F020040C4304D0C46901230CA2641E5E
:1006E000C46130BC00F0CFB910B504462146106893
:1006F000FFF79CFE02462046BDE810400023D1E7EC
:10070000D21D22F00701D1E90023CBE70000000051
:1007100030000000F0B40D460188090502D5214CD7
:100720007C4402E01F4C7C440E34002100F124067E
:1007300008E002F00F071209E75D42EA03721B09A5
:100740007754491C52EA0307F3D1027800231207B9
:1007500004D5702D06D009B1022311342246F0BC15
:1007600000F091B901231034F8E770B504460D4646
:1007700021461068FFF75AFE024629462046BDE88A
:1007800070400023C6E7D21D22F00703D3E90023FF
:10079000C0E70368126843F0200303600823C361C5
:1007A0000023B7E7184B00002DE9F05F89460446A7
:1007B0004FF0000ADFF874B1FB44C0F820A02046D7
:1007C000E1688847002874D0252806D0D4E90121A3
:1007D0009047206A401C2062F1E700265F462046D1
:1007E000E16888472028054607DB312D05D27819B6
:1007F00010F8200C08B10643F1E7B00701D526F048
:100800000406C4F81CA00027C4F818A02A2D09D09B
:10081000284604F0D7FC38B304EB8708303DC8F80D
:10082000185019E059F8041B204604EB8702916127
:10083000E1688847012F054618D1E069002820DAD1
:1008400026F020061DE0D8F8180000EB800005EB2C
:1008500040003038C8F818002046E168884705464F
:1008600004F0B0FC0028EED1012F0AD02E2D08D1C3
:100870002046E16888477F1C0546022F46F0200687
:10088000C4DBA069002803DA404246F00106A061FB
:10089000F00701D026F010066C2D0BD0682D09D082
:1008A0004C2D39D06A2D35D0742D35D07A2D33D0DA
:1008B00016E038E0E1682F4620468847B8420546F2
:1008C00009D16C2F26D04FF48060E16806432046A2
:1008D0008847054604E06C2F1AD04FF48070064319
:1008E0000DB3A5F14100192802D8203546F4006661
:1008F0004A462946204626604E46FFF731FC80B125
:1009000001280BD0F61D26F0070000F1080956E774
:100910004020E4E78020D8E70020D6E706F104096C
:100920004DE7284652E7206ABDE8F09FA84A00003C
:100930002DE9F04791460F4680460446002614F8FC
:10094000015B2DB100F052F80068405DC007F6D1A0
:100950002B2D02D02D2D18D0641E4A463946204634
:1009600000F0A2FC27B13968A14201D1C7F800808C
:100970004FF0020471050BD54042002803DDFFF75C
:1009800021FD0460A007BDE8F08746F48066E4E737
:100990000028F8DAFFF716FD04606FF00040F2E778
:1009A0002DE9F04115460E46040002D12C6804B929
:1009B0000BA4204600F0FBFC0444207870B12746CD
:1009C0003146384600F0E3FC0444207810B10020A2
:1009D00004F8010B38462C60BDE8F0810027F9E7E8
:1009E00000000000004870471800002010B500F01B
:1009F00011FD001D10BD00BFDD47000030B5B0F196
:100A00000A0271F100034FEA900E4EEA817EB0EBCC
:100A10000E0061EB91014FEA101E4EEA017E10EBD1
:100A20000E0041EB11114FEA102E4EEA016E10EB51
:100A30000E0041EB11214FEA104E4EEA014E10EB31
:100A40000E0041EB1141401841F100014FEAD00086
:100A500040EA41704FEAD1014FEA810444EA9074C0
:100A600010EB800544EB01046D1944EB0404521BA8
:100A7000A3414FF0000348BF0A3200D530BD401CEF
:100A800041F1000130BD2DE9F0470D4699469246EF
:100A9000044600F124080168880604D5E06921F0C5
:100AA0001001216000E00120A84201DD471B00E0A9
:100AB0000027A1697A1902EB0900081AA0612078C1
:100AC000C00602D42046FFF781FC002608E0D4E9E6
:100AD00001211AF806009047206A401C761C20620B
:100AE0004E45F4DB2078C0060AD52046FFF76EFCA1
:100AF00006E0D4E9012130209047206A401C2062A2
:100B0000381EA7F10107F4DC07E0D4E9012118F849
:100B100005009047206A401C2062281EA5F10105AF
:100B2000F3DC2046FFF768FC2078000602D502209F
:100B3000BDE8F0870120FBE72DE9FF4F0C461E467C
:100B40004FF0FF378BB0D2E90001DDF860800A90EA
:100B50008A46C1F30A5505B93D46002108464FF0C3
:100B60000000BAF1000F00F4400005DA00EB80004D
:100B70004FF4400101EA50004FEA9059B9F1010FDA
:100B800000DDB9460A9850EA4A000ED044F61050EB
:100B9000A5F2FF3545432F14B8F1000F1ED0754262
:100BA000291E1EDDC9F100021CE0B8F1010F4FF053
:100BB000000001D0302103E0F24305E02154401C45
:100BC000B042FBDB30460022002121540B99C1F8D2
:100BD0000880C1E900200FB0BDE8F08FBD1B6D1C7F
:100BE000DEE74A4600DA694206A800F065FC06AB7B
:100BF00093E8070003AB83E8070050460A9903F027
:100C000005FF8DE80700A0F500501F3800900398FD
:100C1000002D0ADD42F21F014A460844002303A9C1
:100C20000390684604F06EF909E0A0F500504A46CA
:100C30001F38002303A90390684604F078F98DE873
:100C400007000004000C03D04FF0FF30410800E023
:100C50001046B8F1000F03D00022009215461EE0A6
:100C6000751E05D4FFF7CAFE303262556D1EF9D5E8
:100C7000B3460122084302D000227F1C04E0207802
:100C8000302801D100227F1E002A099784D01DE060
:100C9000112D07DAFFF7B2FE303262556D1C50EAB3
:100CA0000102F5D1084302D00098C8B10EE000213E
:100CB000681E05E0235C625C63542254401E491C9C
:100CC0008142F7DBAB46A81B401E0990002004F8C8
:100CD0000B000B98099AC0F80880C0E9002B7AE74E
:100CE00011264FF0000857E72DE9F04F88460446DB
:100CF000D21D22F0070191B0D1E90001CDE90A012E
:100D000004F04CFA02460B98C00F01D02D2007E0EA
:100D10002068810701D52B2002E0202101EAC000D4
:100D2000032A099001D0072A05DB034641462046E5
:100D300000F074FB0BE12078800601D5E06900E04B
:100D40000620B8F1650F814606D0B8F1660F18D0BD
:100D5000B8F1670F70D131E00020B9F1110F0090A8
:100D600001DB112301E009F101030AAA01A90CA882
:100D7000FFF7E2FEDDE90C70002609F1010583466C
:100D800047E001204B4600904FF000470AAA01A916
:100D90000CA8FFF7D1FEDDE90DB00C995D460026E9
:100DA00010B909F101000D18B9EB050003D4C0F129
:100DB000FF3609F10105A5EB09002BE0B9F1010FA0
:100DC00001DA4FF001090020B9F1110F00904846F7
:100DD00001DD112300E003460AAA01A90CA8FFF7D0
:100DE000ABFEDDE90C704D460026834620780007F7
:100DF0000AD4AB4500DA5D4601A8012D04DD411996
:100E000011F8011C302907D04F4502DA17F1040F01
:100E100004DA012082460FE06D1EEEE7002F02DCAF
:100E2000ED1B3E4403E0781CA84200DD7D1CB81B8E
:100E300000F1010A4FF000472078000703D4AA45CB
:100E400001DB4FF0FF3A0021B7F1004F0DF14308ED
:100E50008DF8431024D002202B23002F01DA7F428B
:100E60002D230A21021EA0F1010000DC5FB197FBD7
:100E7000F1FC97FBF1F201FB1C7C17460CF1300CE6
:100E800008F801CDEEE7A8F10100037021880905FB
:100E900001D5452100E06521A0F1010800F8011C01
:100EA00009980FA9A1EB0807FF1D00B10120411906
:100EB00001EBEA70A1693844081A401EA06120784D
:100EC000C00602D42046FFF781FA099828B1D4E978
:100ED00001219047206A401C20622078C00622D55C
:100EE0002046FFF773FA1EE0002E04DBB34502DD57
:100EF00001A8805D00E03020D4E901219047206AFC
:100F0000401C2062761CAAF101005FEA000A0AD1A7
:100F100000F080FAC0680168405CD4E90121904784
:100F2000206A401C2062281EA5F10105DCDC07E0D8
:100F3000D4E9012118F8010B9047206A401C206277
:100F4000381EA7F10107F3DC2046FFF755FA03200E
:100F500011B041E62DE9F04F04460D46D21D22F0B6
:100F6000070089B0D0E900974846394604F016F9E1
:100F70000246F80F01D02D2307E02068810701D534
:100F80002B2302E0202101EAC0038DF820300BB1B1
:100F9000012000E00020032A824601D0072A04DB5A
:100FA0002946204600F03AFA3FE12078800601D435
:100FB0000D2500E0E569C7F30A560D2D49DA002139
:100FC0004FEA175B08464FF00000002F00F4400086
:100FD00007DA00EB80004FF4400100EBD07001EA2B
:100FE00060008115012901DD4FF0FF3100224FEA39
:100FF000850CBCF1180F06D31346ACF118004FF066
:101000008052C24003E04FF4801323FA0CF30CF13A
:101010000C0CBCF1200F04D3ACF1200C09FA0CF03D
:1010200001E007FA0CF000294FF0004801DD18B983
:101030000FE00ED140450CD319EB02095F4121B9F5
:10104000404502D19F4329EA0209BBEB175F00D05C
:10105000761C2088000502D57B48784402E07A4857
:101060007844193808AA302302F80A30037C0AF1C0
:101070000101002E0AF1020A53546A4602DC4FF0C5
:10108000300101E04FF031014FF001088DF8001000
:1010900002D0A6F2FF3603E059EA470100D06B4EBA
:1010A000002D02DC2178090704D54FF002082E211B
:1010B0008DF80110C44600210BE0C7F303433F0144
:1010C000C35C491C6D1E02F80830052908F10108AF
:1010D00001DA002DF1DC00210CE000EB1973491C52
:1010E0001B786D1E082902F808304FEA091908F12B
:1010F000010801DA002DF0DC21688B0602D516E02C
:10110000A8F10108E04505DD02EB080313F8013CF6
:10111000302BF5D0B8F1000F09DD02EB080313F80E
:10112000013C2E2B03D1090701D4A8F10108002DA1
:1011300005DD3E2102F808106D1E08F10108407C13
:10114000002E02F8080008F1010804DA2D2076428A
:1011500002F8080002E02B2002F808000A214FF4F0
:101160007A70864208F101080BDB96FBF0F330330E
:1011700002F8083096FBF0F308F1010800FB136653
:1011800001E0642E0CDB642096FBF0F3303302F8B0
:10119000083096FBF0F308F1010800FB136601E04C
:1011A0000A2E06DB96FBF1F0303002F8080008F159
:1011B000010896FBF1F001FB1060303002F80800E6
:1011C000A16908F1010808EB050202EB0A00081A00
:1011D000A0612078C00602D42046FFF7F7F8216A04
:1011E00008AE01EB0A00206204E0D4E9012116F800
:1011F000010B9047BAF1010AF7D22078C00602D558
:101200002046FFF7E3F86E4609E016F8010B3E288A
:101210000FD0D4E901219047206A401C2062B8F128
:101220000108F2D22046FFF7E7F809B00320BDE835
:10123000F08F206A2844206203E0D4E901213020A5
:1012400090476D1EEBD3F8E72A42000002FCFFFF37
:1012500010B5436913B1AFF3008001E0FFF7EFF879
:10126000012010BD127800F124010A7000224A709A
:101270000122EDE711684FF0FF32E9E710B543694D
:1012800013B1AFF3008001E0FFF770F9012010BD4A
:10129000128800F1240182840022C2840122EDE739
:1012A00011684FF0FF32E9E72DE9F05F82461546FD
:1012B0008B4600270AF10104B9460078302801D096
:1012C0009DB113E014F8010B0127782803D05828AA
:1012D00001D045B10AE00DB1102D07D1002714F857
:1012E000010B102502E0082500E00A250026B04683
:1012F0000EE005FB080005FB06F101271FFA80F848
:1013000001EB1046B6F5803F00D3B94614F8010B47
:10131000294600F0C3F80028EBDABBF1000F05D036
:101320000FB1641E00E05446CBF80040B9F1000F45
:1013300006D0FFF747F802210160C81EBDE8F09F04
:1013400048EA0640FAE72DE9F04116460C46054604
:10135000FFF74CFB036893F80101012807D0FF2C2D
:1013600012D8185D80B101202C70BDE8F081D3F84F
:1013700007013246214603F20713C7182846BC4628
:10138000BDE8F041002360474FF0FF30EDE730B596
:1013900003461D781DB10A4603E0AC4201D1181A7C
:1013A00030BD12F8014B002CF7D15B1CF1E730B5D2
:1013B00003461D783DB10A4612F8014B1CB1AC4200
:1013C000FAD15B1CF5E7181A30BD7546FFF70AFB2A
:1013D000AE4605006946534620F00700854618B022
:1013E00020B5FEF735FFBDE820404FF000064FF076
:1013F00000074FF000084FF0000BAC46ACE8C00906
:10140000ACE8C009ACE8C009ACE8C00921F00701AC
:101410008D46704700487047380000202DE9F041A4
:101420001F46044603260168072A01F4006004DB16
:1014300008B116A505E016A503E008B115A500E062
:1014400015A521F010002060A069C01EA0610FB199
:10145000401EA0612046FEF7B9FF4FB1D4E901213B
:1014600038469047206A401C2062C01C206206E07B
:10147000206AFAE7D4E9012115F8010B9047761E9E
:10148000F8D22046FEF7B8FFBDE8F0814E414E008D
:101490006E616E00494E4600696E66003A2800D2C1
:1014A000303820F02002412A01D3A2F137008842CF
:1014B00001D34FF0FF3070472DE9F04781461646C3
:1014C0008AB0354878440DC88DE80D00324878441C
:1014D000801C03AC0DC884E80D0041F69B30084425
:1014E000372190FBF1F290FBF1F5A5F1800501FBAE
:1014F00012041B3C02D56442012000E00020DFF80A
:1015000098A080460027FA44AAF1BE0A0EE0E00740
:101510000AD03246684607EB470101230AEB8101F6
:1015200003F005FD8DE8070064107F1C002CEED150
:10153000194F7F44AE3F19E0E80715D007EB0410C0
:101540000DF1180A90E80E008AE80E00C068F0421B
:1015500001D1981908903246012306A903A803F087
:10156000E6FC03AB83E807006D10641C002DE3D19B
:101570004FF0010332466946B8F1000F03A802D0CC
:1015800003F0C0FC01E003F0D2FCC9E90001C9F896
:1015900008200AB0BDE8F087503E000010B50446B0
:1015A000AFF300802046BDE81040FEF73CBE0000CF
:1015B0004FF0013C50F8042B51F8043B9A4221D1E2
:1015C000A2EB0C03934313EACC1317D150F8042B6E
:1015D00051F8043B9A4215D1A2EB0C03934313EA52
:1015E000CC130BD150F8042B51F8043B9A4209D18B
:1015F000A2EB0C03934313EACC13DBD04FF00000B3
:10160000704700BFD01A01BAB1FA81F101F0180198
:1016100022FA01F0CB40DBB2C0B2C01AC1F1200106
:101620002CFA01F3D11A914311EAC311E6D17047A4
:1016300001491820ABBEFEE72600020070470000FB
:1016400080B58AB008908DF81F100692ADF816305C
:1016500040F2C500C2F200000078032804D1FFE781
:1016600001208DF8270053E040F2C502C2F20002CB
:101670001078089900EB400301F823009DF81F0043
:101680000899137803EB430301EB83014870069834
:101690000899137803EB430301EB83014860BDF81D
:1016A00016000899127802EB420201EB82010881D0
:1016B000002004900390029001909DF81F0038B123
:1016C000FFE70698BDF81610012200F009FD06E0BC
:1016D0000698BDF81610002200F002FDFFE7BDF8E5
:1016E000160001900120029000200090039003203A
:1016F0000490069801A900F063FB009840F2C5022F
:10170000C2F200021178013111708DF82700FFE755
:101710009DF827000AB080BDFFE7FEE780B582B0E4
:101720000190019801F086FB02B080BD80B582B0C7
:10173000019001984068FFF7F1FF02B080BD000002
:1017400080B586B084460898CDF814C08DF8131083
:1017500003920293ADF806009DF81300012805D10D
:10176000FFE7059944F6206008800AE09DF8130021
:10177000022805D1FFE7059943F2B0600880FFE732
:10178000FFE7029805998860BDF806000599488032
:101790000398059948600598FFF7C8FF06B080BD1B
:1017A00080B540F20C10C2F2000000F007F980BDD5
:1017B00080B540F2C800C2F2000000F0FFF880BD22
:1017C00084B003900291019200930398C16B026C64
:1017D0000120904048600098039909684860039888
:1017E0004068102809D1FFE70198039909688860CB
:1017F000029803990968C86008E00298039909688B
:101800008860019803990968C860FFE704B07047D1
:101810007047000081B0EFF3108072B60090FFE7D0
:10182000FEE7000083B0019000208DF803000198CE
:1018300090F8210002280DD0FFE701990420886369
:10184000FFE70199002081F82000FFE701208DF8D3
:101850000B0021E001980168086820F00E00086084
:1018600001980168086820F0010008600198C16BC8
:10187000026C012090404860FFE70199012081F847
:101880002100FFE70199002081F82000FFE79DF883
:1018900003008DF80B00FFE79DF80B0003B07047C5
:1018A00080B588B0079000208DF81B00079890F84D
:1018B0002100022807D0FFE7079904208863012050
:1018C0008DF81B0076E007980168086820F00E008C
:1018D000086007980168086820F001000860079810
:1018E00000680821C4F20201884203D1FFE7012009
:1018F000059047E0079800681C21C4F20201884265
:1019000003D1FFE71020049039E0079800683021E8
:10191000C4F20201884204D1FFE74FF480700390C3
:101920002AE0079800684421C4F20201884204D1E9
:10193000FFE74FF4805002901BE0079800685821A1
:10194000C4F20201884204D1FFE74FF480300190D5
:101950000CE0079801686C22C4F202024FF080701C
:10196000914208BF4FF480100190FFE70198029068
:10197000FFE702980390FFE703980490FFE70498BD
:101980000590FFE705980421C4F202010860079959
:10199000012081F82100FFE70799002081F820004D
:1019A000FFE70798406B20B1FFE70798416B884736
:1019B000FFE7FFE79DF81B0008B080BD80B58EB043
:1019C0000D900D98C06B00680C900D980068006831
:1019D0000B900C980D99096CC8404007002875D5EC
:1019E000FFE79DF82C00400700286FD5FFE70D9812
:1019F000006800688006002807D4FFE70D9801689A
:101A0000086820F004000860FFE70D9800680821CE
:101A1000C4F20201884203D1FFE704200A9047E0A4
:101A20000D9800681C21C4F20201884203D1FFE72F
:101A30004020099039E00D9800683021C4F202017D
:101A4000884204D1FFE74FF4806008902AE00D98A7
:101A500000684421C4F20201884204D1FFE74FF438
:101A6000804007901BE00D9800685821C4F20201E5
:101A7000884204D1FFE74FF4802006900CE00D98D7
:101A800001686C22C4F202024FF08060914208BFEC
:101A90004FF480000690FFE706980790FFE707984D
:101AA0000890FFE708980990FFE709980A90FFE778
:101AB0000A980421C4F2020108600D98C06A20B19E
:101AC000FFE70D98C16A8847FFE7B8E00C980D99C9
:101AD000096CC8408007002840F18080FFE79DF82E
:101AE0002C008007002879D5FFE70D980068006872
:101AF000800600280BD4FFE70D980168086820F0E5
:101B00000A0008600D99012081F82100FFE70D9877
:101B100000680821C4F20201884203D1FFE70220D5
:101B2000059047E00D9800681C21C4F2020188422C
:101B300003D1FFE72020049039E00D9800683021A0
:101B4000C4F20201884204D1FFE74FF40070039011
:101B50002AE00D9800684421C4F20201884204D1B1
:101B6000FFE74FF4005002901BE00D9800685821E9
:101B7000C4F20201884204D1FFE74FF40030019023
:101B80000CE00D9801686C22C4F202024FF0007064
:101B9000914208BF4FF400100190FFE701980290B6
:101BA000FFE702980390FFE703980490FFE704988B
:101BB0000590FFE705980421C4F202010860FFE7E1
:101BC0000D99002081F82000FFE70D98806A20B170
:101BD000FFE70D98816A8847FFE72FE00C980D9981
:101BE000096CC8400007002827D5FFE79DF82C00A6
:101BF0000007002821D5FFE70D980168086820F04C
:101C00000E0008600D98C26B016C012000FA01F112
:101C100051600D9988630D9981F82100FFE70D99B6
:101C2000002081F82000FFE70D98006B20B1FFE74E
:101C30000D98016B8847FFE7FFE7FFE7FFE70EB06E
:101C400080BD000083B0019000200090019820B971
:101C5000FFE701208DF80B0047E0019908684FF677
:101C6000F872CBF6FD7210444CF6CD42CCF6CC4265
:101C7000A0FB02026FF0030000EA920008640199E1
:101C80000020C4F20200C8630199022081F82100FB
:101C90000198006800680090009843F6F07188434E
:101CA000009001994868D1F808C0CB680A6940EAF9
:101CB0000C00184310434A6910438A691043C969EC
:101CC0000143009808430090009801990968086052
:101CD000019900208863019A012182F8211001995D
:101CE00081F820008DF80B00FFE79DF80B0003B092
:101CF0007047000080B586B0049003910292019372
:101D000000208DF80300FFE7049890F820000128D8
:101D100004D1FFE702208DF817004CE00499012060
:101D200081F82000FFE7FFE7049890F821000128E0
:101D300032D1FFE70499022081F8210004990020A4
:101D4000886304980168086820F00100086004981E
:101D50000399029A019BFFF733FD0498C06A38B1DA
:101D6000FFE704980168086840F00E0008600CE086
:101D700004980168086820F004000860049801686D
:101D8000086840F00A000860FFE7049801680868E6
:101D900040F00100086009E0FFE70499002081F8A5
:101DA0002000FFE702208DF80300FFE79DF8030005
:101DB0008DF81700FFE79DF8170006B080BD000002
:101DC00090B00F900E9100200D900990FFE70E98B3
:101DD00000680D99C840002800F07F81FFE70D9949
:101DE000012088400C900E9800680C9908400B90D8
:101DF0000B980C99884240F06C81FFE70E98406880
:101E00000590002851D0FFE7059801283AD0FFE758
:101E1000059802283FD0FFE7059803285FD0FFE729
:101E20000598112832D0FFE70598122838D0FFE72F
:101E300005980021C1F21101884236D0FFE70598CC
:101E40000021C1F2120188422FD0FFE7059800213E
:101E5000C1F22101884228D0FFE705980021C1F294
:101E60002201884221D0FFE705980021C1F231010B
:101E700088421AD0FFE705980021C1F2320188425A
:101E800013D02FE00E98C06809902CE00E98C0681F
:101E90000430099027E00E98C0680830099022E0CD
:101EA0000E98C0680C3009901DE00E98806818B933
:101EB000FFE70420099011E00E988068012806D100
:101EC000FFE7082009900C980F99086105E00820A9
:101ED00009900C980F994861FFE7FFE703E00020A5
:101EE000099000E0FFE70B98FF2803D8FFE70F9861
:101EF000049003E00F9804300490FFE704980890E2
:101F00000B98FF2804D8FFE70D988000039006E0A7
:101F10000D996FF01F0000EB81000390FFE703981D
:101F2000079008980068079A0F2191408843099903
:101F300091400843089908600E98C079C0060028AF
:101F400040F1C680FFE7FFE741F21800C4F202004B
:101F5000016841F001010160006800F00100069095
:101F60000698FFE70D9820F003000821C4F2010154
:101F700040580A900D9800F0030081000F2000FAED
:101F800001F10A9888430A900F9840F60001C4F2C4
:101F90000101884203D1FFE70020029026E00F985C
:101FA00040F60041C4F20101884203D1FFE701205D
:101FB000019018E00F9841F20001C4F2010188423B
:101FC00003D1FFE7022000900AE00F9941F200429E
:101FD000C4F201020420914208BF03200090FFE7F1
:101FE00000980190FFE701980290FFE702980D9991
:101FF00001F00301890000FA01F10A9808430A90F0
:102000000A980D9921F003010822C4F201028850B8
:102010000E988079C006002809D5FFE70B9A40F298
:102020000841C4F2010108681043086008E00B9AF7
:1020300040F20841C4F20101086890430860FFE7DC
:102040000E9880798006002809D5FFE70B9A40F2A8
:102050000C41C4F2010108681043086008E00B9AC3
:1020600040F20C41C4F20101086890430860FFE7A8
:102070000E9880798007002809D5FFE70B9A40F277
:102080000441C4F2010108681043086008E00B9A9B
:1020900040F20441C4F20101086890430860FFE780
:1020A0000E988079C00748B1FFE70B9A40F20041D3
:1020B000C4F2010108681043086008E00B9A40F27E
:1020C0000041C4F20101086890430860FFE7FFE7A0
:1020D000FFE70D9801300D9079E610B070470000D1
:1020E00082B00190ADF802108DF801209DF801003A
:1020F00028B1FFE7BDF802000199086105E0BDF8CD
:102100000200000401990861FFE702B07047000077
:1021100040F24420C2F200000068704740F2130011
:10212000C2F20000027840F24421C2F200010868C5
:10213000104408607047000080B542F20001C4F20C
:102140000201086840F010000860032000F096F8D3
:102150000F2000F005F800F03BF8002080BD0000E3
:1021600080B582B0009040F20400C2F20000006826
:1021700040F21301C2F200010A784FF47A71B1FB08
:10218000F2F1B0FBF1F000F073FD20B1FFE70120A8
:102190008DF8070018E000980F280DD8FFE7009988
:1021A0004FF0FF30002200F04FF8009840F2140189
:1021B000C2F20001086003E001208DF8070003E08F
:1021C00000208DF80700FFE79DF8070002B080BDF2
:1021D00083B0FFE741F21800C4F20200016841F049
:1021E00001010160006800F0010002900298FFE721
:1021F000FFE741F21C00C4F20200016841F0805187
:102200000160006800F0805001900198FFE7FFE74F
:102210000421C4F2010108680090009820F0E060F9
:102220000090009840F00070009000980860FFE770
:1022300003B0704780B582B08DF807009DF90700A4
:1022400002F05CF902B080BD80B586B08DF8170051
:10225000049103920020029002F068F902909DF927
:102260001700019002980499039A01F0FBFB0146C4
:10227000019802F063F906B080BD000080B582B01D
:102280000190019802F07CF902B080BD80B584B065
:1022900002900191029820B9FFE701208DF80F000C
:1022A0001BE1019842F20001C4F20201096801F049
:1022B0000701884216D9FFE742F20000C4F202008B
:1022C000016821F00701019A11430160006800F0E4
:1022D00007000199884204D0FFE701208DF80F0024
:1022E000FBE0FFE702980078800700282AD5FFE787
:1022F000029800784007002809D5FFE741F2040161
:10230000C4F20201086840F4E0600860FFE7029848
:1023100000780007002809D5FFE741F20401C4F264
:102320000201086840F460500860FFE741F20401D0
:10233000C4F20201086820F0F000029A926810438B
:102340000860FFE702980078C007002860D0FFE728
:102350000298406801280ED1FFE741F20000C4F264
:10236000020000688003002804D4FFE701208DF8F4
:102370000F00B2E021E00298406802280ED1FFE78A
:1023800041F20000C4F2020000688001002804D479
:10239000FFE701208DF80F009FE00DE041F2000003
:1023A000C4F2020000688007002804D4FFE701207F
:1023B0008DF80F0091E0FFE7FFE741F20401C4F25E
:1023C0000201086820F00300029A52681043086076
:1023D000FFF79EFE0090FFE741F20400C4F2020006
:1023E000006800F00C0002994968B0EB810F0ED034
:1023F000FFE7FFF78DFE0099401A41F289318842CC
:1024000004D3FFE703208DF80F0066E0E4E7FFE761
:10241000019842F20001C4F20201096801F00701CB
:10242000884216D2FFE742F20000C4F202000168BF
:1024300021F00701019A11430160006800F00700D4
:102440000199884204D0FFE701208DF80F0044E095
:10245000FFE702980078400700280CD5FFE741F21B
:102460000401C4F20201086820F4E060029AD26814
:1024700010430860FFE702980078000700280DD598
:10248000FFE741F20401C4F20201086820F4605041
:10249000029A126940EAC2000860FFE700F04CF8B7
:1024A00041F20401C4F202010968C9B20A0945F205
:1024B0003031C0F60001895CC84040F20401C2F22C
:1024C0000001086040F21400C2F200000068FFF74B
:1024D00047FE00208DF80F00FFE79DF80F0004B0C5
:1024E00080BD000040F20400C2F2000000687047A6
:1024F00080B5FFF7F7FF41F20401C4F20201096859
:10250000C1F3022245F24031C0F60001895CC840A7
:1025100080BD000080B5FFF7E5FF41F20401C4F281
:1025200002010968C1F3C22245F24031C0F6000140
:10253000895CC84080BD000086B0002005900490F2
:1025400003900290019041F20400C4F2020000687E
:102550000590059800F00C000146009100283FD03E
:10256000FFE70098042804D0FFE70098082806D069
:1025700037E041F20020C0F27A00019037E0059880
:10258000C0F3834145F24830C0F60000405C029041
:102590009DF81600C007C0B1FFE741F20400C4F285
:1025A00002000068C0F3404145F25830C0F6000018
:1025B000405C0490029841F20021C0F27A01484345
:1025C0000499B0FBF1F0039007E0029840F6001187
:1025D000C0F23D0148430390FFE70398019006E0F5
:1025E000FFE741F20020C0F27A000190FFE7019876
:1025F00006B0704780B586B00490049820B9FFE714
:1026000001208DF817002EE304980078C0070028F9
:1026100000F0AE80FFE741F20400C4F2020000685F
:1026200000F00C00042813D0FFE741F20400C4F2CC
:102630000200006800F00C0008281BD1FFE741F2FF
:102640000400C4F202000068C003002812D5FFE7AE
:1026500041F20000C4F2020000688003002808D59F
:10266000FFE70498406820B9FFE701208DF81700C4
:10267000F9E27CE0FFE704984068B0F5803F09D1BB
:10268000FFE741F20001C4F20201086840F4803023
:10269000086032E00498406868B9FFE741F2000141
:1026A000C4F20201086820F480300860086820F451
:1026B0008020086020E004984068B0F5A02F0DD17C
:1026C000FFE741F20001C4F20201086840F48020F3
:1026D0000860086840F4803008600CE041F20001B6
:1026E000C4F20201086820F480300860086820F411
:1026F00080200860FFE7FFE7FFE7FFE704984068F6
:10270000D0B1FFE7FFF704FD0390FFE741F20000BF
:10271000C4F202000068800300280CD4FFE7FFF732
:10272000F7FC0399401A652804D3FFE703208DF8CE
:10273000170098E2EAE719E0FFF7EAFC0390FFE7E9
:1027400041F20000C4F202000068800300280CD5AA
:10275000FFE7FFF7DDFC0399401A652804D3FFE784
:1027600003208DF817007EE2EAE7FFE7FFE7FFE7C7
:10277000049800788007002840F18D80FFE741F23F
:102780000400C4F20200006810F00C0F13D0FFE741
:1027900041F20400C4F20200006800F00C000828B6
:1027A00029D1FFE741F20400C4F202000068C0032F
:1027B000002820D4FFE741F20000C4F202000068C4
:1027C0008007002809D5FFE704980069012804D094
:1027D000FFE701208DF8170045E241F20001C4F245
:1027E0000201086820F0F800049A526940EAC20029
:1027F0000860FFE74EE00498006958B3FFE7002146
:10280000C4F2422101200860FFF782FC0390FFE739
:1028100041F20000C4F202000068800700280CD4D6
:10282000FFE7FFF775FC0399401A032804D3FFE77D
:1028300003208DF8170016E2EAE741F20001C4F226
:102840000201086820F0F800049A526940EAC200C8
:1028500008601EE00021C4F2422100200860FFF75A
:1028600057FC0390FFE741F20000C4F20200006849
:10287000800700280CD5FFE7FFF74AFC0399401AB0
:10288000032804D3FFE703208DF81700EBE1EAE704
:10289000FFE7FFE7FFE7049800780007002848D526
:1028A000FFE70498806918B3FFE740F28041C4F263
:1028B000422101200860FFF72BFC0390FFE741F263
:1028C0002400C4F202000068800700280CD4FFE74F
:1028D000FFF71EFC0399401A032804D3FFE70320E7
:1028E0008DF81700BFE1EAE7012001F0F3F81FE0DF
:1028F00040F28041C4F2422100200860FFF708FC4A
:102900000390FFE741F22400C4F202000068800750
:1029100000280CD5FFE7FFF7FBFB0399401A0328BB
:1029200004D3FFE703208DF817009CE1EAE7FFE7F7
:10293000FFE7049800784007002840F1D880FFE7BF
:1029400000208DF8070041F21C00C4F2020000686C
:10295000C000002813D4FFE7FFE741F21C00C4F2D7
:102960000200016841F080510160006800F0805071
:1029700000900098FFE701208DF80700FFE747F27D
:102980000000C4F200000068C005002822D4FFE760
:1029900047F20001C4F20001086840F4807008604A
:1029A000FFF7B6FB0390FFE747F20000C4F2000018
:1029B0000068C00500280CD4FFE7FFF7A9FB0399C6
:1029C000401A652804D3FFE703208DF817004AE179
:1029D000EAE7FFE7FFE70498C068012809D1FFE7AD
:1029E00041F22001C4F20201086840F001000860D1
:1029F00031E00498C06868B9FFE741F22001C4F2F1
:102A00000201086820F001000860086820F0040056
:102A100008601FE00498C06805280DD1FFE741F267
:102A20002001C4F20201086840F004000860086850
:102A300040F0010008600CE041F22001C4F2020104
:102A4000086820F001000860086820F004000860B1
:102A5000FFE7FFE7FFE7FFE70498C068E0B1FFE7A3
:102A6000FFF756FB0390FFE741F22000C4F202009B
:102A70000068800700280ED4FFE7FFF749FB0399A1
:102A8000401A41F28931884204D3FFE703208DF8D0
:102A90001700E8E0E8E71BE0FFF73AFB0390FFE7E9
:102AA00041F22000C4F202000068800700280ED521
:102AB000FFE7FFF72DFB0399401A41F28931884265
:102AC00004D3FFE703208DF81700CCE0E8E7FFE729
:102AD0009DF80700012809D1FFE741F21C01C4F26B
:102AE0000201086820F080500860FFE7FFE70498C3
:102AF000C069002800F0B380FFE741F20400C4F28F
:102B00000200006800F00C00082800F08280FFE757
:102B10000498C06902285CD1FFE76021C4F2422119
:102B200000200860FFF7F4FA0390FFE741F200008D
:102B3000C4F202000068800100280CD5FFE7FFF70F
:102B4000E7FA0399401A032804D3FFE703208DF81E
:102B5000170088E0EAE70498006AB0F5803F0CD1DE
:102B6000FFE741F20401C4F20201086820F40030DA
:102B7000049A926810430860FFE741F20401C4F22E
:102B80000201086820F47410049B1A6A5B6A1A43F5
:102B9000104308606021C4F2422101200860FFF761
:102BA000B7FA0390FFE741F20000C4F202000068A8
:102BB000800100280CD4FFE7FFF7AAFA0399401A16
:102BC000032804D3FFE703208DF817004BE0EAE762
:102BD0001EE06021C4F2422100200860FFF798FA4D
:102BE0000390FFE741F20000C4F202000068800198
:102BF00000280CD5FFE7FFF78BFA0399401A03284A
:102C000004D3FFE703208DF817002CE0EAE7FFE785
:102C100024E00498C069012804D1FFE701208DF861
:102C2000170020E041F20400C4F2020000680290A4
:102C3000029800F480300499096A884208D1FFE7BD
:102C4000029800F470100499496A884204D0FFE7A2
:102C500001208DF8170006E0FFE7FFE7FFE70020FF
:102C60008DF81700FFE79DF8170006B080BD000043
:102C700080B582B00190019800F04CFF02B080BD99
:102C800085B003900291FFE7039890F83C0001287B
:102C900004D1FFE702208DF813005BE003990120C7
:102CA00081F83C00FFE7FFE70399022081F83D002F
:102CB000039800684068019003980068806800905D
:102CC000019820F070000190029801680198084373
:102CD000019001980399096848600398006842F6DA
:102CE0000041C4F20101884218D0FFE70398006850
:102CF000B0F1804F12D0FFE70398006840F2004126
:102D0000C4F20001884209D0FFE70398006840F64A
:102D10000001C4F2000188420ED1FFE7009820F0C4
:102D20008000009002984168009808430090009845
:102D3000039909688860FFE70399012081F83D0045
:102D4000FFE70399002081F83C00FFE700208DF8A1
:102D50001300FFE79DF8130005B0704780B582B0FF
:102D60000090009820B9FFE701208DF807003FE0B0
:102D7000009890F83D0040B9FFE70099002081F8E5
:102D80003C00009800F038F8FFE70099022081F835
:102D90003D00009951F8040B00F022FF009901203A
:102DA00081F84600FFE70099012081F83E00009974
:102DB00081F83F00009981F84000009981F84100B6
:102DC000FFE7FFE70099012081F84200009981F8B0
:102DD0004300009981F84400009981F84500FFE71D
:102DE0000099012081F83D0000208DF80700FFE7E1
:102DF0009DF8070002B080BD82B001900198006884
:102E000042F60041C4F20101884210D1FFE7FFE71A
:102E100041F21800C4F20200016841F4006101604F
:102E2000006800F4006000900098FFE7FFE702B040
:102E30007047000083B00190019890F83D00012890
:102E400004D0FFE701208DF80B0041E0019902203A
:102E500081F83D000198006842F60041C4F201018A
:102E6000884218D0FFE701980068B0F1804F12D077
:102E7000FFE70198006840F20041C4F20001884277
:102E800009D0FFE70198006840F60001C4F2000194
:102E9000884212D1FFE701980068806800F00700BF
:102EA00000900098062807D0FFE70198016808689D
:102EB00040F001000860FFE706E00198016808683B
:102EC00040F001000860FFE700208DF80B00FFE7ED
:102ED0009DF80B0003B0704780B586B00490039155
:102EE00000208DF80B00FFE7049890F83C000128C3
:102EF00004D1FFE702208DF81700ABE00499012010
:102F000081F83C00FFE7FFE70499022081F83D00CB
:102F10000498006880680190019820F07700019083
:102F2000019820F47F400190019804990968886015
:102F3000039800680090002872D0FFE700981028DE
:102F40006ED0FFE7009820286AD0FFE7009830286D
:102F500066D0FFE70098402855D0FFE7009850283A
:102F600037D0FFE70098602840D0FFE7009870282E
:102F70000BD0FFE70098B0F5805F05D0FFE7009821
:102F8000B0F5005F16D052E055E004980068039B4E
:102F90005A689968DB6800F09BFE049800688068B6
:102FA0000190019840F07700019001980499096818
:102FB000886040E004980068039B5A689968DB6861
:102FC00000F086FE04980168886840F480408860BC
:102FD00031E004980068039A5168D26800F0A8FEB6
:102FE00004980068502100F08DFE24E004980068E9
:102FF000039A5168D26800F0C3FE0498006860210B
:1030000000F080FE17E004980068039A5168D268C7
:1030100000F08EFE04980068402100F073FE0AE084
:10302000049800680399096800F06CFE03E0012031
:103030008DF80B00FFE70499012081F83D00FFE7C0
:103040000499002081F83C00FFE79DF80B008DF803
:103050001700FFE79DF8170006B080BD80B586B069
:1030600004900391ADF80A20049890F842002028BB
:103070004DD1FFE7039820B1FFE7BDF80A0020B962
:10308000FFE701208DF8170045E00499012008634F
:1030900004990020486304980399BDF80A2001F0C0
:1030A00053F98DF809009DF8090058BBFFE7049813
:1030B000006B012821D1FFE7FFE700200190049871
:1030C00000680068019004980068406801900198C9
:1030D000FFE7FFE7FFE70498006850E8030F40F0C0
:1030E00010000090FFE700990498026842E803107E
:1030F0000028F0D1FFE7FFE703E001208DF8090089
:10310000FFE7FFE79DF809008DF8170003E00220B4
:103110008DF81700FFE79DF8170006B080BD00008E
:1031200080B584B00390ADF80A1040F29C00C2F262
:103130000000019001F06CFA019840F2C402C2F262
:10314000000201211170016940F29810C2F20000E2
:103150003222FFF783FF40F2C800C2F2000001688C
:10316000086820F00400086004B080BD81B00090C1
:1031700001B0704780B592B0119011980068006856
:10318000109011980068C0680F901198006840690D
:103190000E9000200D900C90109800F00F000D90F4
:1031A0000D9888B9FFE79DF84000800600280AD5F1
:1031B000FFE79DF83C008006002804D5FFE7119842
:1031C00000F0AEFFE9E1FFE70D98002800F0C280B3
:1031D000FFE79DF83800C00738B9FFE7BDF83C00AD
:1031E00010F4907F00F0B680FFE79DF84000C00724
:1031F00058B1FFE79DF83D00C00730B1FFE71199D6
:10320000486C40F001004864FFE79DF8400040072B
:1032100000280BD5FFE79DF83800C00730B1FFE765
:103220001199486C40F002004864FFE79DF84000A7
:10323000800700280BD5FFE79DF83800C00730B1A4
:10324000FFE71199486C40F004004864FFE79DF8DF
:1032500040000007002811D5FFE79DF83C008006DC
:10326000002805D4FFE79DF83800C00730B1FFE71C
:103270001199486C40F008004864FFE71198406CD1
:10328000002866D0FFE79DF84000800600280AD598
:10329000FFE79DF83C008006002804D5FFE7119861
:1032A00000F03EFFFFE7119800684069C0F380100E
:1032B0000C901198406C0007002804D4FFE70C988C
:1032C00000283ED0FFE7119800F0B0FE119800688A
:1032D0004069400600282FD5FFE7FFE7FFE7119878
:1032E000006850E8050F20F040000B90FFE70B99B5
:1032F0001198026842E805100028F0D1FFE7FFE7C7
:103300001198C06B98B1FFE71198C16B43F6D55087
:10331000C0F6000048631198C06BFEF7C1FA28B1EF
:10332000FFE71198C06B416B8847FFE703E01198F6
:10333000FFF71CFFFFE703E01198FFF717FFFFE718
:1033400006E01198FFF712FF119900204864FFE78B
:10335000FFE722E11198006B012840F0FE80FFE7B3
:103360009DF84000C006002840F1F780FFE79DF877
:103370003C00C006002840F1F080FFE7FFE7002096
:103380000A901198006800680A90119800684068D7
:103390000A900A98FFE711980068406940060028E3
:1033A00040F18180FFE71198C06B00684068ADF87C
:1033B0002600BDF82600002874D0FFE7BDF82600DF
:1033C0001199898D88426DDAFFE7BDF826001199C1
:1033D000C8851198C06B8069202858D0FFE7FFE7A7
:1033E000FFE71198006850E8030F20F48070089000
:1033F000FFE708991198026842E803100028F0D10D
:10340000FFE7FFE7FFE7FFE71198006850E8050FC7
:1034100020F001000790FFE707991198026842E841
:1034200005100028F0D1FFE7FFE7FFE7FFE711985D
:10343000006850E8050F20F040000690FFE706996D
:103440001198026842E805100028F0D1FFE7FFE775
:103450001199202081F84200119900200863FFE7AC
:10346000FFE71198006850E8030F20F01000059066
:10347000FFE705991198026842E803100028F0D18F
:10348000FFE7FFE71198C06BFEF7CCF9FFE7119952
:10349000022048631198818DC28D891A89B2FFF785
:1034A0003FFEFFE779E01199888DC98D401AADF88C
:1034B00012001198C08D00284ED0FFE7BDF8120011
:1034C000002849D0FFE7FFE7FFE71198006850E8C0
:1034D000030F20F490700390FFE70399119802689E
:1034E00042E803100028F0D1FFE7FFE7FFE7FFE71E
:1034F0001198006850E8050F20F001000290FFE7E6
:1035000002991198026842E805100028F0D1FFE7FF
:10351000FFE71199202081F84200119900200863EB
:10352000FFE7FFE71198006850E8030F20F0100054
:103530000190FFE701991198026842E80310002802
:10354000F0D1FFE7FFE71199022048631198BDF819
:103550001210FFF7E5FDFFE71FE09DF840000006B1
:1035600000280AD5FFE79DF83C000006002804D596
:10357000FFE7119800F06EFF0FE09DF84000400655
:1035800000280AD5FFE79DF83C004006002804D536
:10359000FFE7119800F094FDFFE712B080BD000036
:1035A00080B582B00090009820B9FFE701208DF827
:1035B000070040E00098806908B1FFE700E0FFE7FE
:1035C000009890F8410040B9FFE70099002081F889
:1035D0004000009800F034F8FFE70099242081F8BB
:1035E000410000980168C86820F40050C860009845
:1035F00000F04CFE00980168086920F490400861D2
:1036000000980168486920F02A0048610098016824
:10361000C86840F40050C860009900204864009ACF
:10362000202182F84110009A82F8421000994863E4
:103630008DF80700FFE79DF8070002B080BD00008D
:1036400080B58EB00D9000200C900B900A900990E0
:103650000D98006843F60001C4F20101884240F071
:103660008B80FFE7FFE741F21800C4F20200016817
:1036700041F480410160006800F48040089008989F
:10368000FFE7FFE741F21800C4F20200016841F0D1
:1036900004010160006800F0040007900798FFE74C
:1036A0004FF40070099002200A9003200C9040F61D
:1036B0000000C4F20100039009A90491FEF780FB09
:1036C000039804994FF480620992002205920A92AD
:1036D0000B92FEF775FB059940F2C800C2F200009C
:1036E00006905822C4F2020202604160816080228A
:1036F000C260016141618161C161FEF7A3FA18B145
:10370000FFE7FEF787F8FFE7FFE70D9840F2C801F3
:10371000C2F20001C1630D984862FFE740F20C104D
:10372000C2F2000002904421C4F2020101601021A3
:103730004160002181608022C2600161416181613C
:10374000C161FEF77FFA18B1FFE7FEF763F8FFE704
:10375000FFE70D9840F20C11C2F2000181630D9851
:103760004862FFE72520019000221146FEF76CFD1C
:103770000198FEF75FFDFFE70EB080BD81B00090BD
:1037800001B0704781B0009001B0704780B586B03D
:1037900004900391ADF80A20049890F84100202885
:1037A0005DD1FFE7039820B1FFE7BDF80A0020B91B
:1037B000FFE701208DF8170055E00398049908628F
:1037C000BDF80A0004998884BDF80A000499C884E9
:1037D000049900204864049A212182F84110049938
:1037E0008A6B43F69971C0F60001916204998A6B65
:1037F00044F21501C0F60001D16204998A6B43F6C8
:10380000F551C0F6000111630499896B486303A860
:10381000019004980268806B019909680432BDF830
:103820000A30FEF767FA049801686FF040000860FC
:10383000FFE7FFE70498006850E8050F40F08000BC
:103840000090FFE700990498026842E805100028FC
:10385000F0D1FFE7FFE700208DF8170003E002201A
:103860008DF81700FFE79DF8170006B080BD000037
:1038700081B0009001B0704781B0009001B07047F6
:10388000FFE7FEE780B584B0FFE741F21400C4F221
:103890000200016841F001010160006800F00100D0
:1038A00003900398FFE70E2000900022019211463A
:1038B000FEF7CAFC0098FEF7BDFC019A0F200290AB
:1038C0001146FEF7C1FC0298FEF7B4FC04B080BDBF
:1038D00080B58EB000200D900C900B900A90FFE701
:1038E00041F21800C4F20200016841F010010160C9
:1038F000006800F0100009900998FFE7FFE741F227
:103900001800C4F20200016841F020010160006863
:1039100000F0200008900898FFE7FFE741F2180048
:10392000C4F20200016841F004010160006800F087
:10393000040007900798FFE741F20000C4F201007D
:1039400002904FF40051019100220392FEF7C8FB50
:10395000019A029803990A92012204920B920C9107
:10396000032105910D910AA90691FEF729FA039BFF
:10397000049A059806994FF4004CCDF828C00B9393
:103980000C920D9040F60040C4F20100FEF718FAC8
:103990000EB080BD80B588B00021009107910691DE
:1039A000059104910391029140F25010C2F200007F
:1039B000019042F60042C4F20102026047224260D6
:1039C00081604FF6FE72C260016141618161FFF763
:1039D000C5F918B1FFE7FDF71DFFFFE74FF4805071
:1039E000049040F25010C2F2000004A9FFF774FAEC
:1039F00018B1FFE7FDF70EFFFFE7002002900390EC
:103A000040F25010C2F2000002A9FFF739F918B1D4
:103A1000FFE7FDF7FFFEFFE708B080BD80B582B08D
:103A200040F29810C2F20000019043F60001C4F287
:103A3000010101604FF4E131416000218160C1600A
:103A400001610C2242618161C161FFF7A9FD18B1DA
:103A5000FFE7FDF7DFFEFFE702B080BDFFE7FEE70F
:103A6000FFE7FEE788B0079006910592079800F0FF
:103A7000070004900498C0F10700052803D3FFE76E
:103A80000420019004E00498C0F107000190FFE7D2
:103A90000198039004980430062803D8FFE700201B
:103AA000009003E0049803380090FFE7009802902C
:103AB00006980399012202FA01F101390840029B9C
:103AC000984005999A40013A1140084308B0704760
:103AD0007047000082B00190019840F20401C2F2E8
:103AE00000010968C90844F6D352C1F26202A1FB81
:103AF0000221890948430090FFE700BFFFE70098D3
:103B0000411E00910028F8D1FFE702B07047000085
:103B10007047000080B582B0009000980138B0F185
:103B2000807F03D3FFE70120019019E0009801385E
:103B30004EF21401CEF2000108604FF0FF300F2169
:103B400000F0FCFC4EF21801CEF2000100200860EB
:103B50004EF21002CEF20002072111600190FFE741
:103B6000019802B080BD000080B5FEF7D7FA80BD95
:103B700080B590B006A800902821FCF7F8FB0098CB
:103B80000023059304930393029301930122069269
:103B90004FF48031079108930A9202220D920E9100
:103BA0004FF4E0110F91FEF725FD18B1FFE7FDF787
:103BB00031FEFFE70F2001900221029100200390C7
:103BC0004FF480620492059001A8FEF75FFB18B1E4
:103BD000FFE7FDF71FFEFFE710B080BD7047000054
:103BE00083B002900191029800680090029842F61A
:103BF0000041C4F20101884215D0FFE70298B0F1FC
:103C0000804F10D0FFE7029840F20041C4F200015B
:103C1000884208D0FFE7029840F60001C4F2000194
:103C200088420AD1FFE7009820F0700000900198C8
:103C30004168009808430090FFE7029842F600416F
:103C4000C4F20101884215D0FFE70298B0F1804F1D
:103C500010D0FFE7029840F20041C4F20001884210
:103C600008D0FFE7029840F60001C4F20001884244
:103C70000AD1FFE7009820F4407000900198C168D5
:103C8000009808430090FFE7009820F08000019919
:103C9000496908430090009802990860019880687B
:103CA0000299C8620198006802998862029842F6F7
:103CB0000041C4F20101884205D1FFE70198006983
:103CC00002990863FFE702990120486103B0704739
:103CD00085B004900391029201930498806800904B
:103CE000009820F47F40009003980299019A41EADD
:103CF00002210143009808430090009804998860CD
:103D000005B0704783B002900191029880680090DE
:103D1000009820F07000009001980099084340F04E
:103D20000700009000980299886003B07047000077
:103D300085B00490039102920498006A009004995F
:103D4000086A20F0010008620498806901900198D7
:103D500020F0F00001900299019840EA01100190D2
:103D6000009820F00A000090039900980843009002
:103D700001980499886100980499086205B0704719
:103D800085B00490039102920498006A009004990F
:103D9000086A20F010000862049880690190019878
:103DA00020F4704001900299019840EA013001909E
:103DB000009820F0A00000900399009840EA0110BC
:103DC000009001980499886100980499086205B0F0
:103DD0007047000080B582B001900198406A009061
:103DE00000990020C8850099C8840098FFF7BEF9A3
:103DF00002B080BD80B584B003900020029003988B
:103E0000406A0190019800684069C0B2C009029000
:103E1000019890F8410021280AD1FFE7029838B1B3
:103E2000FFE701990020C884019800F05DF9FFE7E1
:103E3000019800684069C0F380100290019890F8E2
:103E4000420022280AD1FFE7029838B1FFE7019922
:103E50000020C885019800F0E9F8FFE70199486C57
:103E600040F0100048640198FFF780F904B080BD6D
:103E700080B586B005900598406A04900598006862
:103E80000068800600285AD4FFE704990020C885FE
:103E9000FFE7FFE70498006850E8030F20F4807004
:103EA0000390FFE703990498026842E80310002892
:103EB000F0D1FFE7FFE7FFE7FFE70498006850E86D
:103EC000050F20F001000290FFE7029904980268B4
:103ED00042E805100028F0D1FFE7FFE7FFE7FFE722
:103EE0000498006850E8050F20F040000190FFE7BB
:103EF00001990498026842E805100028F0D1FFE714
:103F0000FFE70499202081F842000498006B012803
:103F100014D1FFE7FFE7FFE70498006850E8030FBC
:103F200020F010000090FFE700990498026842E832
:103F300003100028F0D1FFE7FFE7FFE7FFE7049950
:103F4000002048630498006B012805D1FFE704981E
:103F5000818DFFF7E5F803E00498FFF70FFCFFE71A
:103F600006B080BD80B582B001900198406A009093
:103F70000099012048630098006B012806D1FFE7F3
:103F80000098818D4908FFF7CBF803E00098FFF710
:103F9000F9FBFFE702B080BD80B584B003900398C1
:103FA000406A0290039800680068800600282AD4BE
:103FB000FFE702990020C884FFE7FFE70298006846
:103FC00050E8050F20F080000190FFE7019902986A
:103FD000026842E805100028F0D1FFE7FFE7FFE79D
:103FE000FFE70298006850E8030F40F0400000909F
:103FF000FFE700990298026842E803100028F0D118
:10400000FFE7FFE703E00298FFF732FCFFE704B0A9
:1040100080BD000080B582B001900198406A009098
:104020000098FFF729FC02B080BD000084B0039027
:10403000FFE7FFE70398006850E8030F20F4907053
:104040000290FFE702990398026842E803100028F3
:10405000F0D1FFE7FFE7FFE7FFE70398006850E8CC
:10406000050F20F001000190FFE701990398026815
:1040700042E805100028F0D1FFE7FFE70398006B46
:10408000012814D1FFE7FFE7FFE70398006850E835
:10409000030F20F010000090FFE7009903980268DA
:1040A00042E803100028F0D1FFE7FFE7FFE703999C
:1040B000202081F8420003990020086304B0704773
:1040C00080B582B0019001980168C86820F0400076
:1040D000C8600199202081F841000198FFF7C8FBD2
:1040E000002002B080BD000082B00190FFE7FFE732
:1040F0000198006850E8030F20F0C0000090FFE72F
:1041000000990198026842E803100028F0D1FFE707
:10411000FFE70199202081F8410002B070470000BC
:1041200080B586B00490049890F84200222840F0B0
:10413000A480FFE704988068B0F5805F15D1FFE7A1
:104140000498006988B9FFE7002003900498806A0A
:1041500002900498006840686FF35F20029908801D
:104160000499886A0230886225E00498806A039086
:104170000020029004988068B0F5805F08D0FFE7C7
:104180000498806850B9FFE70498006930B9FFE7E8
:104190000498006840680399087007E00498006874
:1041A000406800F07F0003990870FFE70499886A6F
:1041B00001308862FFE70499C88D0138C885000482
:1041C000002856D1FFE704980168C86820F0200055
:1041D000C86004980168C86820F48070C8600498BA
:1041E0000168486920F0010048610499202081F8A5
:1041F00042000499002048630498006B012830D1E4
:10420000FFE7049900200863FFE7FFE704980068D0
:1042100050E8030F20F010000190FFE70199049887
:10422000026842E803100028F0D1FFE7FFE7049896
:1042300000680068C00600280ED5FFE7FFE70020F1
:104240000090049800680068009004980068406836
:1042500000900098FFE7FFE70498818DFEF760FF6C
:1042600003E00498FFF78AFAFFE700208DF81700B3
:1042700007E000208DF8170003E002208DF81700FA
:10428000FFE79DF8170006B080BD000080B584B040
:10429000039003980068006920F44050039A116865
:1042A000D26810430861039988680A694969104314
:1042B0000843029003980068C06841F20C6188438B
:1042C0000299084303990968C86003980068406927
:1042D00020F44070039A1168926910434861039872
:1042E000006843F60001C4F20101884204D1FFE7EF
:1042F000FEF710F9019003E0FEF7FAF80190FFE7EE
:10430000019819214843039A116852689200B0FB42
:10431000F2FC48F21F52C5F2EB12ACFB023043092B
:10432000642003FB10CC322000EB0C10A0FB020237
:10433000F02000EA521000EB0310C2F343121044C5
:10434000886004B080BD000080B588B007900691F9
:10435000ADF81620069807998862BDF816000799EF
:104360008885079900204864079A222182F8421024
:104370000799CA6B43F67161C0F600019162079913
:10438000CA6B43F66571C0F60001D1620799CA6B2A
:1043900043F6F551C0F6000111630799C96B4863F4
:1043A00006A8049007980168C06B0431049A12684B
:1043B000BDF81630FDF79EFCFFE70020039007983C
:1043C00000680068039007980068406803900398AD
:1043D000FFE707980069A0B1FFE7FFE7FFE707984D
:1043E000006850E8030F40F480700290FFE70299E4
:1043F0000798026842E803100028F0D1FFE7FFE7C2
:10440000FFE7FFE7FFE70798006850E8050F40F077
:1044100001000190FFE701990798026842E8051042
:104420000028F0D1FFE7FFE7FFE7FFE70798006804
:1044300050E8050F40F040000090FFE70099079812
:10444000026842E805100028F0D1FFE7FFE70020EE
:1044500008B080BD83B00190019890F841002128F8
:104460003AD1FFE701988068B0F5805F13D1FFE78C
:104470000198006978B9FFE70198006A00900098F8
:1044800000886FF35F200199096848600199086A04
:104490000230086208E0019A106A411C116200783B
:1044A000019909684860FFE70199C88C0138C88400
:1044B000000468B9FFE701980168C86820F080002F
:1044C000C86001980168C86840F04000C860FFE714
:1044D00000208DF80B0003E002208DF80B00FFE7B1
:1044E0009DF80B0003B0704780B540F29810C2F2FF
:1044F0000000FEF73FFE80BDFFE7FEE781B08DF8CC
:1045000003009DF9030000280ED4FFE79DF9031076
:1045100001F01F02012090404A094EF20011CEF234
:10452000000141F82200FFE701B070474EF60C5041
:10453000CEF200000068C0F30220704782B08DF810
:10454000070000919DF9070000280AD4FFE70098B2
:1045500000019DF907104EF20042CEF2000288548D
:104560000BE0009800019DF8071001F00F014EF6D6
:104570001452CEF200028854FFE702B070470000E8
:1045800083B00290029800F0070000904EF60C51A4
:10459000CEF200010868019001984FF6FF0210402A
:1045A00001900198009A40EA02200022C0F2FA52DB
:1045B000104301900198086003B0704710B585B0B2
:1045C0008C46864609980899079CCDF810E0CDF8EE
:1045D0000CC002920193ADF80210ADF800000499EE
:1045E0000020087003980499486002980499886034
:1045F00001980499086107980499C860BDF8020001
:1046000004998882BDF800000499C88205B010BDE5
:1046100080B582B001900198006945F2AA31C0F6D8
:104620000001FBF751FE20B1FFE70199012008705E
:1046300030E00198006945F2E131C0F60001FBF776
:1046400043FE20B1FFE701990320087021E00198A3
:10465000006945F2CC31C0F60001FBF735FE20B110
:10466000FFE701990220087012E00198006945F205
:10467000B731C0F60001FBF727FE20B1FFE7019933
:104680000420087003E0019900200870FFE7FFE7AD
:10469000FFE7FFE702B080BD80B582B001900198CE
:1046A000007801460091022808D0FFE7009804280E
:1046B00008D1FFE7019800F019F804E0019800F034
:1046C00013F900E0FFE7019900200870019800F05D
:1046D00003F802B080BD000080B582B0019001995E
:1046E0000869898AFBF721FE02B080BD80B586B0DB
:1046F00005900020049005980069FBF7F7FD172846
:104700004BD1FFE70020019003900598006945F226
:10471000DF31C0F60001FBF7D1FD0146019803919E
:1047200045F2A631C0F60001FBF7C8FD03900398DF
:10473000FBF7B6FD02900298032808DBFFE7059916
:1047400045F27330C0F6000000F0BAF82DE005988D
:104750004068029901EB410100EB8100049005984B
:10476000C06804990A7891F801C045F2F131C0F6A9
:10477000000145F2ED33C0F60003BCF1010F08BFA4
:104780000B4645F20141C0F60001FBF773FD0599A8
:10479000C86800F095F8FFE707E0059945F25A3040
:1047A000C0F6000000F08CF8FFE706B080BD000006
:1047B00080B58CB0002005900B90FDF7BDFCFFF795
:1047C000D7F9FFF785F8FFF75DF8FFF727F9FFF74F
:1047D000E1F869464FF40040086040F2B400C2F2CC
:1047E000000040F25012C2F200020121049140F692
:1047F0000043C4F20103FCF7A3FF049B059940F2B8
:104800007800C2F20000079040F60002C4F20102F4
:104810000692FCF715FF0599069A07980223FCF704
:104820000FFF0599069A07980423FCF709FF0799DB
:104830006A46322009909060506040F21220C2F225
:104840000000106040F29C00C2F20000089040F2AC
:104850009812C2F200020A9240F2E013C2F2000380
:10486000FFF7ACFE0A9840F20801C2F200010B22E9
:10487000FEF78CFF0899099A0A980969FEF7EEFB82
:1048800040F2C800C2F200000168086820F004008D
:104890000860FFE740F2C400C2F20000007801287F
:1048A0000DD1FFE740F29C00C2F20000FFF7F4FEDA
:1048B00040F2C401C2F2000100200870FFE7E9E7FE
:1048C00080B584B0039002910298806801900398AB
:1048D0000090FBF70BFD00990246019892B2FEF79B
:1048E00055FF04B080BD000080B588B0079000205F
:1048F000069007980069FBF7F9FC19287CD1FFE7BF
:104900000020019005900798006945F2DF31C0F65C
:104910000001FBF7D3FC01460198059145F2A8314F
:10492000C0F60001FBF7CAFC05900598FBF7B8FC40
:1049300004900498032808DBFFE7079945F2F43058
:10494000C0F60000FFF7BCFF5EE0079840680499DE
:1049500001EB410100EB81000690FFE745F2A63133
:10496000C0F6000100200090FBF7A8FC0590059818
:10497000FBF796FC014600980391059003980128E7
:1049800003D0FFE7039870BBFFE703980138B0FA44
:1049900080F040098DF80B000699486809899DF858
:1049A0000B20FDF79DFB0798C06806990A78DDF893
:1049B0000CC045F2F131C0F6000145F2ED33C0F60E
:1049C0000003BCF1010F08BF0B4645F20141C0F6E0
:1049D0000001FBF74FFC0799C868FFF771FF0398C8
:1049E0000699487007E0079945F28B30C0F6000041
:1049F000FFF766FFFFE707E0079945F25A30C0F678
:104A00000000FFF75DFFFFE708B080BD5FEA400CE4
:104A100008BF91F0000F4FEA8C234FEAC12243EA0E
:104A200051514FEA1C5018BF00F5F0404FEA3000DA
:104A300018BF41F000415FEA6C5C00F02980BCF1D6
:104A4000FF3F08BF40F080407047130C06BF1204C0
:104A50004FF0100C4FF0000C130E04BF12020CF1BB
:104A6000080C130F04BF12010CF1040C930F04BFC8
:104A700092000CF1020CD30F04BF52000CF1010C98
:104A800011464FF00002A0F11F00A0EB0C00704790
:104A900011F0004F08BF704731F000413FF4D5AF2F
:104AA0000B0C06BF09044FF0100C4FF0000C0B0E5E
:104AB00004BF09020CF1080C0B0F04BF09010CF133
:104AC000040C8B0F04BF89000CF1020CCB0F04BF48
:104AD00049000CF1010CCCF1200322FA03F341EA66
:104AE000030102FA0CF2A0EB0C0000F10100704788
:104AF00023F07F4720F07F4C80EA030000F0004065
:104B0000ACEB070303F57C5303F1FF032DE9804968
:104B100009B44FEA144324EA03484FEA154B25EA47
:104B20000B4E0FF2042606EB13273E7803FB0667B5
:104B3000C7F5000707FB06F64FEAD64606F1020660
:104B40004FEA543707FB066CCCF1005C4FEA1C4778
:104B50002CEA074C0CFB06F507FB06F404EB1546A4
:104B60004FEA961649085FEA320234BF00204FF040
:104B700000404FEAD13706FB07FC4FEA1C4C0CFB08
:104B80000BF7D21B03FB0CF761EB07010CFB0EF7D5
:104B9000B0EB074072EB17420CFB08F734BFA2EBF7
:104BA0000742B2EB074261EB17414FEA0C444FEA70
:104BB000910706FB07FC4FEA1C4C0CFB0BF7B0EB14
:104BC000C74072EB573203FB0CF734BFA2EBC7426E
:104BD000B2EBC74261EB57310CFB0EF7B0EBC700ED
:104BE00072EB57720CFB08F734BFA2EBC702B2EBB3
:104BF000C70261EB57714FEA816141EA92114FEAB6
:104C0000826242EA90124FEA806004EBCC04039F78
:104C10004FEAD13706FB07FC4FEA1C4C0CFB0BF7A5
:104C2000D21B03FB0CF761EB07010CFB0EF7B0EB9B
:104C3000074072EB17420CFB08F734BFA2EB0742A8
:104C4000B2EB074261EB17414FEA8C5504EB9C2411
:104C50004FEA910706FB07FC4FEA1C4C0CFB0BF7D5
:104C6000B0EBC74072EB573203FB0CF734BFA2EB3B
:104C7000C742B2EBC74261EB57310CFB0EF7B0EB0A
:104C8000C70072EB57720CFB08F734BFA2EBC702E8
:104C9000B2EBC70261EB57714FEA816141EA9211B1
:104CA0004FEA826242EA90124FEA806015EB4C258F
:104CB00044F100044FEAD13706FB07FC4FEA1C4CD5
:104CC0000CFB0BF7D21B03FB0CF761EB07010CFB92
:104CD0000EF7B0EB074072EB17420CFB08F734BF3E
:104CE000A2EB0742B2EB074261EB17414FEA813179
:104CF00041EA92414FEA823242EA90424FEA8030E2
:104D00004FEA0C7615EB1C1544F1000448EA034306
:104D10004EEA0B484FF0000EB2EB080C71EB0307A4
:104D200024BF624639464EEB0E0E4FF0000B0018C2
:104D3000524149414BEB0B0BB2EB080C71EB0307F3
:104D40007BF1000B24BF624639464EEB0E0E4FF04E
:104D5000000B0018524149414BEB0B0BB2EB080C16
:104D600071EB03077BF1000B24BF624639464EEB23
:104D70000E0E51EA020718BF46F0010616EB0E763A
:104D800055F1000254F1000103D5BDE88901BDE8E9
:104D90000088BDE88901BDE80048B619524141EBE1
:104DA0000101A3F10103704780807F7E7D7C7B7AC7
:104DB0007978777676757473727171706F6E6E6DC7
:104DC0006C6C6B6A6A69686867666665646463636D
:104DD00062616160605F5F5E5E5D5D5C5C5B5B5AF3
:104DE0005A59595858575756565555555454535360
:104DF00052525251515050504F4F4F4E4E4D4D4DBB
:104E00004C4C4C4B4B4B4A4A4A4949494848484705
:104E10004747474646464545454444444443434343
:104E200043424242424141419C46002B30D47700EC
:104E30002BD04FEA37071CB503B44FF010004FF0EA
:104E40001001BAF1000F06D0BCF1000FDCBF40F03A
:104E5000080040F008014FF000000FBCBDE8104012
:104E60000BF1010BBBF1010F08BF5FEA170722BF6F
:104E700012F1010211F101014FF0004143F1000371
:104E800000F0004043EA00007047F9D35708D0E72C
:104E900046EA06464FEA164613F1400F1FDD13F1AE
:104EA000200FDFBF16430A46002120335B42BED0ED
:104EB000C3F1200746EA06464FEA164602FA07F70C
:104EC00046EA070622FA03F2C3F1200701FA07F7C0
:104ED00042EA070221FA03F14FF00003A7E746EA8E
:104EE000020646EA06464FEA164646EA0106BCBFF7
:104EF00046EA0646360C4FF000034FF000024FF032
:104F0000000194E72DE9804C70B49A46934691E8ED
:104F1000380007C831EA400C48BF34EA430C03D5D7
:104F2000FFF7E6FDFFF780FFF0BCBDE8008C2DE940
:104F3000804C70B49A46934691E8380007C810F048
:104F4000804F08BF13F0804F03D100F005F8FFF742
:104F50006BFFF0BCBDE8008C20F07F4723F07F4C56
:104F600080EA030000F0004007EB0C03A3F57C533C
:104F7000A3F1FE0392F0000F00F0B38095F0000F54
:104F800000F077802DE901494FEA114021EA0048FD
:104F90004FEA144624EA064700FB06FC08FB06F627
:104FA00007FB08F818EB06484CEB164C00FB07F71C
:104FB00018EB07484CEB17404FEA124B22EA0B4E16
:104FC0004FEA154625EA06470BFB06FC0EFB06F6E4
:104FD00007FB0EFE1EEB064E4CEB164C0BFB07F7C9
:104FE0001EEB074E4CEB174B18EB0B0840F1000083
:104FF00018EB0E0B58EB000840F100008F1A4FF031
:1050000000014FF000063CBFC943661B14BFB5EB5F
:10501000040C00213CBFC943F61B4FEA174427EAA2
:1050200004454FEA1C472CEA074C04FB076205FBCA
:1050300007F70CFB05F616EB074642EB174204FB9D
:105040000CFC16EB0C4642EB1C421BEB060658EB25
:10505000020241414EEA8E0E46EA9E0601D5BDE8A7
:105060000189B619524141EB0101A3F10103BDE8E9
:1050700001894FEA144524EA05464FEA114721EA1F
:10508000074C05FB07F406FB07F70CFB06F111EBD9
:10509000074144EB174405FB0CFC11EB0C4144EBBE
:1050A0001C444FEA124722EA074C05FB07F206FBB5
:1050B00007F70CFB06F616EB074642EB174205FB1B
:1050C0000CFC16EB0C4642EB1C456A1854F100012F
:1050D00048BF7047B619524141EB0101A3F10103EA
:1050E000704795F0000F37D04FEA114221EA02468F
:1050F0004FEA144724EA074C02FB07F106FB07F7C7
:105100000CFB06F414EB074441EB174102FB0CFCCB
:1051100014EB0C4441EB1C414FEA154725EA074CC0
:1051200002FB07F506FB07F70CFB06F616EB074636
:1051300045EB174502FB0CFC16EB0C4645EB1C42FD
:10514000121951F1000148BF7047B619524141EBA5
:105150000101A3F1010370474FEA144524EA054613
:105160004FEA114721EA074C05FB07F106FB07F759
:105170000CFB06F212EB074241EB174105FB0CFC5E
:1051800012EB0C4251EB1C414FF0000648BF704738
:10519000921841EB0101A3F101037047490050EA65
:1051A000C12018BF04204A0D18BF40F0010040F292
:1051B000FF72B2EB515F08BF40F00200012808BF48
:1051C0000520704730380A2801D20120704700209E
:1051D0007047000010B500290AD00878002807D0D1
:1051E00005487844FCF7E4F9002801D0002010BD00
:1051F0000248784410BD00004E0200004602000044
:1052000010B500290AD00878002807D0054878444E
:10521000FCF7CEF9002801D0002010BD02487844E8
:1052200010BD0000320300002A030000FBF75CBD44
:10523000FBF790BE00000000000000003031323368
:1052400034353637383941424344454640305800BA
:1052500030313233343536373839616263646566EC
:105260004030780004000008000000000000000248
:1052700000010000103031323334353637383961AF
:1052800062636465667870003031323334353637A6
:10529000383941424344454658500000024000001E
:1052A000000000A00000000005400000000000C851
:1052B000000000000C4000000000409C00000000C6
:1052C000194000000020BCBE000000003440000077
:1052D000BFC91B8E00000004B5400000504BCFD06A
:1052E0006607E2CF010000006C4100003E8251AA37
:1052F000DFEEA73401000000D9420000DCB5A0E2D7
:105300003A301F97FFFFFFFFB4450000FD25A0C8FE
:10531000E9A3C14FFFFFFFFFFF3F00000000008037
:1053200000000000FF3F00000000008000000000BF
:105330000000000000000000010203040607080945
:105340000000000001020304020304050607080927
:105350000A0B0C0D0E0F101001020D0A2B455252B4
:105360004F523A6572726F7220636F6D6D616E6439
:105370000D0A000D0A2B4552524F523A77726F6E4A
:1053800067206465766963650D0A000D0A2B455236
:10539000524F523A756E646566696E656420737427
:1053A0006174650D0A000D002C002A5345545F44BA
:1053B00045565F49443A002A4745545F4143545596
:1053C00041544F525F53544154453A002A53455477
:1053D0005F4143545541544F525F53544154453AF1
:1053E000002A4745545F4445565F4944004F4646AE
:1053F000004F4E0057726F6E672064657669636573
:10540000004143545541544F5220256420257300D8
:105410006055000800000020180000002801000866
:1054200078550008180000203008000044010008EA
:105430001001000043000000F8FFFFFF0040404063
:105440004040404040404141414141404040404057
:105450004040404040404040404040404005020203
:1054600002020202020202020202020202202020C2
:10547000202020202020200202020202020290901E
:10548000909090901010101010101010101010101C
:105490001010101010101010020202020202888870
:1054A000888888880808080808080808080808087C
:1054B0000808080808080808020202024000000064
:1054C00000000000000000000000000000000000DC
:1054D00000000000000000000000000000000000CC
:1054E00000000000000000000000000000000000BC
:1054F00000000000000000000000000000000000AC
:10550000000000000000000000000000000000009B
:10551000000000000000000000000000000000008B
:10552000000000000000000000000000000000007B
:10553000000000000000000000000000000000006B
:105540001C00000043000000F8FFFFFF0C000000FB
:105550000E0000000F0000002E0000000000000000
:10556000000000000024F40048656C6C6F20657337
:0855700070333201100000004D
:04000005080000ED02
:00000001FF
