:020000040800F2
:10000000380700203502000821380008552F000865
:100010001D380008C11300083D3C00080000000026
:10002000000000000000000000000000053900088A
:10003000C11600080000000091380008D1390008FE
:100040004F0200084F0200084F0200084F0200084C
:100050004F0200084F0200084F0200084F0200083C
:100060004F0200084F0200084F0200084F0200082C
:100070004F0200084F0200084F0200084F0200081C
:100080004F0200084F0200084F0200084F0200080C
:100090004F0200084F0200084F0200084F020008FC
:1000A0004F0200084F0200084F0200084F020008EC
:1000B0004F0200084F0200084F0200084F020008DC
:1000C0004F0200084F0200084F0200084F020008CC
:1000D0004F0200084F0200084F0200084F020008BC
:1000E0004F0200084F0200084F02000800F002F81B
:1000F00000F090F80AA090E8000C82448344AAF132
:100100000107DA4501D100F085F8AFF2090EBAE82F
:100110000F0013F0010F18BFFB1A43F0010318473B
:100120005046000070460000103A24BF78C878C1DD
:10013000FAD8520724BF30C830C144BF04680C60ED
:10014000704700000023002400250026103A28BF35
:1001500078C1FBD8520728BF30C148BF0B60704739
:100160006E2900F06581702900F0A782662904F0ED
:100170005782652904F05482672904F0518261296D
:1001800004F0508203681B0A28BF41F080016929EE
:1001900000F01281642900F00F81752900F00C81B4
:1001A0006F2900F03582782900F07382E92900F088
:1001B000CF81E42900F0CC81F52900F0C981EF2935
:1001C00000F03282F82900F072820368DB0928BF50
:1001D00041F08001632900F07387732900F078876C
:1001E000E32900F08387F32900F088870020704717
:1001F0001FB500F0D9FF04000020002104F0FAF937
:10020000401C60600020002104F0DEF9E0601FBDAA
:1002100010B510BD00F09AFF1146FFF7E9FF03F09B
:1002200065FD01F077F803B4FFF7F2FF03BC01F0BE
:10023000BFF800000948804709480047FEE7FEE78D
:10024000FEE7FEE7FEE7FEE7FEE7FEE7FEE7FEE786
:1002500004480549054A064B70470000453A000826
:10026000ED00000838010020380700203803002086
:10027000380300200FB41CB5084B06AA7B4469461E
:100280000090059800F0EDF804460020694600F063
:10029000FBF820461CBC5DF814FB000009020000BE
:1002A0004FF0000200B5134694469646203922BF0F
:1002B000A0E80C50A0E80C50B1F12001BFF4F7AF5A
:1002C000090728BFA0E80C5048BF0CC05DF804EB3C
:1002D000890028BF40F8042B08BF704748BF20F8AA
:1002E000022B11F0804F18BF00F8012B70477047A8
:1002F0007047704770B5044685690068C10601D52E
:10030000302600E02026C00707D070BDD4E90121C7
:1003100030469047206A401C20626D1EF6D570BDA5
:1003200070B5044685690078C00707D170BDD4E96F
:10033000012120209047206A401C20626D1EF6D5C6
:1003400070BD09684A0501D540B27047C905FCD5A2
:1003500000B2704709684A0501D5C0B27047C905A7
:10036000FCD580B2704770B50C460546012A05D011
:100370002878800600D5EA69002302E0012305E021
:100380005B1C934202D2E05C0028F9D1A869E61810
:10039000C01AA861286A184428622846FFF7AAFFF5
:1003A00004E0D5E9012114F8010B9047B442F8D3D9
:1003B0002846FFF7B5FF70BD2DE9F0410646002441
:1003C00010687529314616A510D0FFF7BAFF00282E
:1003D00002DA404213A507E031688A0701D512A569
:1003E00002E0490704D511A5012401E0FFF7B2FF9F
:1003F00000210A2206F1240709E0B0FBF2FCB0FB61
:10040000F2F302FB1C00303078541846491C0028D7
:10041000F3D123462A463046BDE8F04100F061BAE8
:10042000000000002D0000002B0000002000000054
:1004300011680268006A530501D508700AE0D30507
:1004400001D5088006E0130603D5C217C1E90002F2
:1004500000E008600120704701694A1C02610878C9
:10046000704700B58FB0CDE90131002105910549F4
:100470007944CDE903101146684600F029F90FB020
:1004800000BD0000E5FFFFFF0A6802F8010B0A60EB
:10049000704700002DE9FF5F15468A460446DFF8E5
:1004A000AC80F8440027D8E900103E46CDE90010A2
:1004B00010E03AF816106A4602A800F023FE411C2C
:1004C00007D02178890603D5E269391891420DD801
:1004D0000744761C2078800602D5E069B84205DD25
:1004E000AE42E6DB3AF816000028E2D1A069C01B54
:1004F000A0612046FFF7FEFED8E90010CDE900100C
:10050000002017E03AF818106A4602A800F0FAFD39
:10051000B0F1FF3F81460BD000250DF1080B05E03F
:10052000D4E901211BF8050090476D1C4D45F7D318
:1005300008F10100B0428046E4DB206A38442062C2
:100540002046FFF7EDFEBDE8FF9F0000824100005E
:100550002DE9F0418046D21D22F007020025D2E9A4
:100560000002F52915A614D0011E72F1000106DA69
:100570000023D0EB030063EB020211A608E0D8F8D9
:1005800000108B0701D50FA602E0490701D50EA682
:1005900001251146002408F1240704E000F05CF96D
:1005A00030323A55641C50EA0102F7D12B463246EC
:1005B00021464046BDE8F04100F093B9000000003C
:1005C0002D0000002B0000002000000030B40021AE
:1005D00000F1240408E002F00705D208303542EAB1
:1005E0004372DB086554491C52EA0305F3D10468E1
:1005F000002310A2250708D504F020040C4304D0E2
:10060000C46901230CA2641EC46130BC00F069B946
:1006100010B5044621461068FFF79CFE02462046AE
:10062000BDE810400023D1E7D21D22F00701D1E937
:100630000023CBE70000000030000000F0B40D46BE
:100640000188090502D5214C7C4402E01F4C7C4402
:100650000E34002100F1240608E002F00F07120911
:10066000E75D42EA03721B097754491C52EA03070B
:10067000F3D102780023120704D5702D06D009B1FA
:10068000022311342246F0BC00F02BB901231034B0
:10069000F8E770B504460D4621461068FFF75AFE8C
:1006A000024629462046BDE870400023C6E7D21D19
:1006B00022F00703D3E90023C0E70368126843F080
:1006C000200303600823C3610023B7E7E43F000071
:1006D0002DE9F05F894604464FF0000ADFF874B157
:1006E000FB44C0F820A02046E1688847002874D069
:1006F000252806D0D4E901219047206A401C2062B9
:10070000F1E700265F462046E16888472028054635
:1007100007DB312D05D2781910F8200C08B10643FB
:10072000F1E7B00701D526F00406C4F81CA00027A5
:10073000C4F818A02A2D09D0284603F03DFF38B38D
:1007400004EB8708303DC8F8185019E059F8041B2D
:10075000204604EB87029161E1688847012F054636
:1007600018D1E069002820DA26F020061DE0D8F82C
:10077000180000EB800005EB40003038C8F8180086
:100780002046E1688847054603F016FF0028EED1B1
:10079000012F0AD02E2D08D12046E16888477F1C02
:1007A0000546022F46F02006C4DBA069002803DAC4
:1007B000404246F00106A061F00701D026F0100685
:1007C0006C2D0BD0682D09D04C2D39D06A2D35D029
:1007D000742D35D07A2D33D016E038E0E1682F46FD
:1007E00020468847B842054609D16C2F26D04FF4E1
:1007F0008060E168064320468847054604E06C2F88
:100800001AD04FF4807006430DB3A5F141001928AA
:1008100002D8203546F400664A462946204626601E
:100820004E46FFF79DFC80B101280BD0F61D26F047
:10083000070000F1080956E74020E4E78020D8E7E8
:100840000020D6E706F104094DE7284652E7206A62
:10085000BDE8F09F743F000030B5B0F10A0271F1BD
:1008600000034FEA900E4EEA817EB0EB0E0061EB82
:1008700091014FEA101E4EEA017E10EB0E0041EB93
:1008800011114FEA102E4EEA016E10EB0E0041EBF3
:1008900011214FEA104E4EEA014E10EB0E0041EBD3
:1008A0001141401841F100014FEAD00040EA417087
:1008B0004FEAD1014FEA810444EA907410EB8005BD
:1008C00044EB01046D1944EB0404521BA3414FF0A7
:1008D000000348BF0A3200D530BD401C41F1000181
:1008E00030BD2DE9F0470D4699469246044600F189
:1008F00024080168880604D5E06921F01001216010
:1009000000E00120A84201DD471B00E00027A169AB
:100910007A1902EB0900081AA0612078C00602D4F7
:100920002046FFF7E7FC002608E0D4E901211AF889
:1009300006009047206A401C761C20624E45F4DB7E
:100940002078C0060AD52046FFF7D4FC06E0D4E99B
:10095000012130209047206A401C2062381EA7F1F8
:100960000107F4DC07E0D4E9012118F805009047FD
:10097000206A401C2062281EA5F10105F3DC2046F8
:10098000FFF7CEFC2078000602D50220BDE8F087F4
:100990000120FBE72DE9FF4F0C461E464FF0FF37C5
:1009A0008BB0D2E90001DDF860800A908A46C1F37D
:1009B0000A5505B93D46002108464FF00000BAF13E
:1009C000000F00F4400005DA00EB80004FF4400116
:1009D00001EA50004FEA9059B9F1010F00DDB94624
:1009E0000A9850EA4A000ED044F61050A5F2FF359E
:1009F00045432F14B8F1000F1ED07542291E1EDD8D
:100A0000C9F100021CE0B8F1010F4FF0000001D065
:100A1000302103E0F24305E02154401CB042FBDBEF
:100A200030460022002121540B99C1F80880C1E909
:100A300000200FB0BDE8F08FBD1B6D1CDEE74A46FD
:100A400000DA694206A800F0F3FB06AB93E8070062
:100A500003AB83E8070050460A9903F0D0F98DE80C
:100A60000700A0F500501F3800900398002D0ADD04
:100A700042F21F014A460844002303A90390684636
:100A800003F03AFC09E0A0F500504A461F38002365
:100A900003A90390684603F044FC8DE807000004B6
:100AA000000C03D04FF0FF30410800E01046B8F1D1
:100AB000000F03D00022009215461EE0751E05D4DB
:100AC000FFF7CAFE303262556D1EF9D5B3460122DA
:100AD000084302D000227F1C04E02078302801D196
:100AE00000227F1E002A099784D01DE0112D07DA0D
:100AF000FFF7B2FE303262556D1C50EA0102F5D1AB
:100B0000084302D00098C8B10EE00021681E05E03D
:100B1000235C625C63542254401E491C8142F7DB13
:100B2000AB46A81B401E0990002004F80B000B9850
:100B3000099AC0F80880C0E9002B7AE711264FF027
:100B4000000857E72DE9F04F88460446D21D22F0F1
:100B5000070191B0D1E90001CDE90A0103F018FDC8
:100B600002460B98C00F01D02D2007E020688107B6
:100B700001D52B2002E0202101EAC000032A0990C0
:100B800001D0072A05DB03464146204600F010FB52
:100B90000BE12078800601D5E06900E00620B8F17D
:100BA000650F814606D0B8F1660F18D0B8F1670F0F
:100BB00070D131E00020B9F1110F009001DB112359
:100BC00001E009F101030AAA01A90CA8FFF7E2FE5E
:100BD000DDE90C70002609F10105834647E001209C
:100BE0004B4600904FF000470AAA01A90CA8FFF756
:100BF000D1FEDDE90DB00C995D46002610B909F172
:100C000001000D18B9EB050003D4C0F1FF3609F15E
:100C10000105A5EB09002BE0B9F1010F01DA4FF056
:100C200001090020B9F1110F0090484601DD1123A0
:100C300000E003460AAA01A90CA8FFF7ABFEDDE914
:100C40000C704D4600268346207800070AD4AB4539
:100C500000DA5D4601A8012D04DD411911F8011CDF
:100C6000302907D04F4502DA17F1040F04DA0120CA
:100C700082460FE06D1EEEE7002F02DCED1B3E44C6
:100C800003E0781CA84200DD7D1CB81B00F1010ABE
:100C90004FF000472078000703D4AA4501DB4FF04E
:100CA000FF3A0021B7F1004F0DF143088DF84310D2
:100CB00024D002202B23002F01DA7F422D230A218A
:100CC000021EA0F1010000DC5FB197FBF1FC97FB75
:100CD000F1F201FB1C7C17460CF1300C08F801CD39
:100CE000EEE7A8F1010003702188090501D545212F
:100CF00000E06521A0F1010800F8011C09980FA986
:100D0000A1EB0807FF1D00B10120411901EBEA70BA
:100D1000A1693844081A401EA0612078C00602D498
:100D20002046FFF7E7FA099828B1D4E90121904756
:100D3000206A401C20622078C00622D52046FFF79A
:100D4000D9FA1EE0002E04DBB34502DD01A8805D68
:100D500000E03020D4E901219047206A401C206245
:100D6000761CAAF101005FEA000A0AD100F01CFA21
:100D7000C0680168405CD4E901219047206A401CAA
:100D80002062281EA5F10105DCDC07E0D4E9012181
:100D900018F8010B9047206A401C2062381EA7F10A
:100DA0000107F3DC2046FFF7BBFA032011B041E650
:100DB0002DE9F04F04460D46D21D22F0070089B000
:100DC000D0E900974846394603F0E2FB0246F80FA7
:100DD00001D02D2307E02068810701D52B2302E0F5
:100DE000202101EAC0038DF820300BB1012000E082
:100DF0000020032A824601D0072A04DB2946204628
:100E000000F0D6F93FE12078800601D40D2500E0FE
:100E1000E569C7F30A560D2D49DA00214FEA175B41
:100E200008464FF00000002F00F4400007DA00EB06
:100E300080004FF4400100EBD07001EA60008115A2
:100E4000012901DD4FF0FF3100224FEA850CBCF192
:100E5000180F06D31346ACF118004FF08052C24071
:100E600003E04FF4801323FA0CF30CF10C0CBCF1EB
:100E7000200F04D3ACF1200C09FA0CF001E007FAC2
:100E80000CF000294FF0004801DD18B90FE00ED139
:100E900040450CD319EB02095F4121B9404502D10D
:100EA0009F4329EA0209BBEB175F00D0761C20881C
:100EB000000502D57B48784402E07A487844193826
:100EC00008AA302302F80A30037C0AF10101002E3F
:100ED0000AF1020A53546A4602DC4FF0300101E085
:100EE0004FF031014FF001088DF8001002D0A6F24A
:100EF000FF3603E059EA470100D06B4E002D02DCBB
:100F00002178090704D54FF002082E218DF8011031
:100F1000C44600210BE0C7F303433F01C35C491CF7
:100F20006D1E02F80830052908F1010801DA002DCC
:100F3000F1DC00210CE000EB1973491C1B786D1EDD
:100F4000082902F808304FEA091908F1010801DA06
:100F5000002DF0DC21688B0602D516E0A8F101080F
:100F6000E04505DD02EB080313F8013C302BF5D01A
:100F7000B8F1000F09DD02EB080313F8013C2E2B3A
:100F800003D1090701D4A8F10108002D05DD3E2198
:100F900002F808106D1E08F10108407C002E02F8CE
:100FA000080008F1010804DA2D20764202F8080052
:100FB00002E02B2002F808000A214FF47A708642E2
:100FC00008F101080BDB96FBF0F3303302F8083030
:100FD00096FBF0F308F1010800FB136601E0642EB4
:100FE0000CDB642096FBF0F3303302F8083096FBFC
:100FF000F0F308F1010800FB136601E00A2E06DB9E
:1010000096FBF1F0303002F8080008F1010896FB79
:10101000F1F001FB1060303002F80800A16908F11E
:10102000010808EB050202EB0A00081AA06120780B
:10103000C00602D42046FFF75DF9216A08AE01EB35
:101040000A00206204E0D4E9012116F8010B904760
:10105000BAF1010AF7D22078C00602D52046FFF780
:1010600049F96E4609E016F8010B3E280FD0D4E985
:1010700001219047206A401C2062B8F10108F2D299
:101080002046FFF74DF909B00320BDE8F08F206A34
:101090002844206203E0D4E90121302090476D1EEE
:1010A000EBD3F8E7C237000002FCFFFF10B543693D
:1010B00013B1AFF3008001E0FFF755F9012010BD37
:1010C000127800F124010A7000224A700122EDE733
:1010D00011684FF0FF32E9E710B5436913B1AFF380
:1010E000008001E0FFF7D6F9012010BD128800F161
:1010F000240182840022C2840122EDE711684FF0AE
:10110000FF32E9E72DE9F04116460C46054600F0AE
:1011100043F8036893F80101012807D0FF2C12D887
:10112000185D80B101202C70BDE8F081D3F8070173
:101130003246214603F20713C7182846BC46BDE8CD
:10114000F041002360474FF0FF30EDE7754600F0B7
:10115000EBF8AE4605006946534620F00700854689
:1011600018B020B5FFF774F8BDE820404FF0000636
:101170004FF000074FF000084FF0000BAC46ACE812
:10118000C009ACE8C009ACE8C009ACE8C00921F06E
:1011900007018D467047000010B500F005F8001DEE
:1011A00010BD00BF513400000048704740000020CF
:1011B0002DE9F0411F46044603260168072A01F481
:1011C000006004DB08B116A505E016A503E008B130
:1011D00015A500E015A521F010002060A069C01E33
:1011E000A0610FB1401EA0612046FFF783F84FB108
:1011F000D4E9012138469047206A401C2062C01C77
:10120000206206E0206AFAE7D4E9012115F8010B13
:101210009047761EF8D22046FFF782F8BDE8F081AD
:101220004E414E006E616E00494E4600696E66008A
:101230002DE9F047814616468AB0354878440DC8F6
:101240008DE80D0032487844801C03AC0DC884E85A
:101250000D0041F69B300844372190FBF1F290FBE2
:10126000F1F5A5F1800501FB12041B3C02D5644297
:10127000012000E00020DFF898A080460027FA4413
:10128000AAF1BE0A0EE0E0070AD03246684607EB34
:10129000470101230AEB810103F043F88DE80700C1
:1012A00064107F1C002CEED1194F7F44AE3F19E033
:1012B000E80715D007EB04100DF1180A90E80E00AE
:1012C0008AE80E00C068F04201D1981908903246B1
:1012D000012306A903A803F024F803AB83E8070061
:1012E0006D10641C002DE3D14FF0010332466946B6
:1012F000B8F1000F03A802D002F0FEFF01E003F0F6
:1013000010F8C9E90001C9F808200AB0BDE8F08763
:10131000CC34000010B50446AFF300802046BDE891
:101320001040FEF780BF00000048704720000020FA
:101330004FF0013C50F8042B51F8043B9A4221D164
:10134000A2EB0C03934313EACC1317D150F8042BF0
:1013500051F8043B9A4215D1A2EB0C03934313EAD4
:10136000CC130BD150F8042B51F8043B9A4209D10D
:10137000A2EB0C03934313EACC13DBD04FF0000035
:10138000704700BFD01A01BAB1FA81F101F018011B
:1013900022FA01F0CB40DBB2C0B2C01AC1F1200189
:1013A0002CFA01F3D11A914311EAC311E6D1704727
:1013B00001491820ABBEFEE726000200704700007E
:1013C000FFE7FEE780B582B00190019801F0AEFC26
:1013D00002B080BD82B00190ADF8021001980168A2
:1013E00000204862FFE701980068406ABDF80210DB
:1013F000884201D2FFE7F6E702B0704780B582B0BD
:10140000019001984068FFF7DDFF02B080BD000049
:1014100080B582B00190ADF8021001984068BDF827
:101420000210FFF7D7FF02B080BD000080B586B084
:1014300084460898CDF814C08DF8131003920293D7
:10144000ADF806009DF81300012805D1FFE70599C6
:1014500044F2506008800AE09DF81300022805D18C
:10146000FFE7059942F6E0600880FFE7FFE7029892
:1014700005998860BDF8060005994880039805998C
:1014800048600598FFF7BAFF06B080BD80B584B00C
:101490000390002000908DF80B00039800F092F864
:1014A00000980190FFE70198072834DCFFE7FFE789
:1014B000039800F035F808B9FFE7F9E70398282109
:1014C000FFF7A6FF039800F02BF860B9FFE701983B
:1014D000C0F10701012000FA01F19DF80B008843DB
:1014E0008DF80B000BE00198C0F10701012000FA14
:1014F00001F19DF80B0008438DF80B00FFE7FFE7B3
:10150000039800F00DF808B1FFE7F9E7FFE701984D
:1015100001300190C7E79DF80B0004B080BD0000CA
:1015200080B582B0019001998868498800F0C2FABC
:1015300002B080BD80B584B0039000208DF8070014
:10154000039800F06BF80398FFF7A0FF8DF80900EF
:101550000398FFF79BFF8DF808000398FFF796FFAD
:101560008DF80B000398FFF791FF8DF80A000398A0
:10157000FFF78CFF8DF807009DF807009DF8091014
:101580009DF8082011449DF80B2011449DF80A2075
:101590001144884212D1FFE79DF809009DF8082008
:1015A000642100FB0120039AD0819DF80B009DF877
:1015B0000A2000FB012003998881FFE79DF80700BE
:1015C00004B080BD80B586B00590002004900390E3
:1015D00002900190059949880191029001200390A1
:1015E0000598806801A900F0D5F806B080BD00001C
:1015F00080B586B005900020049003900290019081
:1016000005984088019001200290022004900598DE
:10161000806801A900F0BEF806B080BD80B584B036
:101620000390002001908DF80B000398FFF7E0FF76
:101630000199039800F036F8039844F62061FFF70B
:10164000E7FE0398012100F02DF803981E21FFF713
:10165000DFFE0398FFF7B6FF03982821FFF7D8FEB7
:101660000398FFF75DFF90B9FFE703985021FFF75C
:10167000CFFE0398FFF754FF20B1FFE701208DF85C
:101680000B0003E000208DF80B00FFE7FFE7FFE70A
:101690000398FFF745FF08B1FFE7F9E79DF80B0056
:1016A00004B080BD80B582B001908DF8031001991F
:1016B000886849889DF8032000F014FA02B080BDC4
:1016C0007047000080B540F2EC00C2F2000001F06B
:1016D0002DFB80BD81B0009040F2EC00C2F2000012
:1016E000016800204862FFE740F2EC00C2F200000F
:1016F0000068406A0099884201D2FFE7F4E701B030
:101700007047000081B0EFF3108072B60090FFE7E1
:10171000FEE7000080B582B08DF807009DF8070055
:1017200040F29001C2F20001097808438DF80600EA
:1017300069460A20086040F29800C2F200004E217B
:101740000DF10602012300F03DFB02B080BD000058
:1017500080B584B0039000F0DDF902900398019009
:101760000198013048B1FFE740F21400C2F20000D6
:101770000178019808440190FFE7FFE700F0CAF9FB
:101780000299401A0199884201D2FFE7F6E704B0B6
:1017900080BD000090B00F900E9100200D90099038
:1017A000FFE70E9800680D99C840002800F07F817F
:1017B000FFE70D99012088400C900E9800680C9965
:1017C00008400B900B980C99884240F06C81FFE721
:1017D0000E9840680590002851D0FFE70598012831
:1017E0003AD0FFE7059802283FD0FFE70598032885
:1017F0005FD0FFE70598112832D0FFE7059812283F
:1018000038D0FFE705980021C1F21101884236D097
:10181000FFE705980021C1F2120188422FD0FFE7AF
:1018200005980021C1F22101884228D0FFE70598E0
:101830000021C1F22201884221D0FFE70598002152
:10184000C1F2310188421AD0FFE705980021C1F2A8
:101850003201884213D02FE00E98C06809902CE026
:101860000E98C0680430099027E00E98C0680830D0
:10187000099022E00E98C0680C3009901DE00E9887
:10188000806818B9FFE70420099011E00E9880687D
:10189000012806D1FFE7082009900C980F990861EC
:1018A00005E0082009900C980F994861FFE7FFE7D1
:1018B00003E00020099000E0FFE70B98FF2803D821
:1018C000FFE70F98049003E00F9804300490FFE7BF
:1018D000049808900B98FF2804D8FFE70D98800023
:1018E000039006E00D996FF01F0000EB810003905C
:1018F000FFE70398079008980068079A0F21914026
:101900008843099991400843089908600E98C07966
:10191000C006002840F1C680FFE7FFE741F218004B
:10192000C4F20200016841F001010160006800F0AA
:10193000010006900698FFE70D9820F003000821AB
:10194000C4F2010140580A900D9800F00300810094
:101950000F2000FA01F10A9888430A900F9840F688
:101960000001C4F20101884203D1FFE70020029088
:1019700026E00F9840F60041C4F20101884203D1ED
:10198000FFE70120019018E00F9841F20001C4F236
:101990000101884203D1FFE7022000900AE00F997D
:1019A00041F20042C4F201020420914208BF032028
:1019B0000090FFE700980190FFE701980290FFE791
:1019C00002980D9901F00301890000FA01F10A98CB
:1019D00008430A900A980D9921F003010822C4F2E5
:1019E000010288500E988079C006002809D5FFE7CB
:1019F0000B9A40F20841C4F20101086810430860E4
:101A000008E00B9A40F20841C4F2010108689043D3
:101A10000860FFE70E9880798006002809D5FFE767
:101A20000B9A40F20C41C4F20101086810430860AF
:101A300008E00B9A40F20C41C4F20101086890439F
:101A40000860FFE70E9880798007002809D5FFE736
:101A50000B9A40F20441C4F2010108681043086087
:101A600008E00B9A40F20441C4F201010868904377
:101A70000860FFE70E988079C00748B1FFE70B9A2E
:101A800040F20041C4F2010108681043086008E018
:101A90000B9A40F20041C4F20101086890430860CB
:101AA000FFE7FFE7FFE70D9801300D9079E610B0F2
:101AB0007047000082B00190ADF802100198806874
:101AC000BDF80210084204D0FFE701208DF80100A4
:101AD00003E000208DF80100FFE79DF8010002B04F
:101AE0007047000082B00190ADF802108DF801201F
:101AF0009DF8010028B1FFE7BDF8020001990861D7
:101B000005E0BDF80200000401990861FFE702B09A
:101B10007047000040F23410C2F2000000687047C5
:101B200080B58EB00C900C9820B9FFE701208DF89D
:101B3000370043E10C9890F83D0040B9FFE70C995D
:101B4000002081F83C000C9800F040FAFFE70C9967
:101B5000242081F83D000C980168086820F00100FD
:101B600008600C980168086840F4004008600C9810
:101B70000168086820F40040086000F047FC0A9003
:101B80000C98406848F2A061C0F2010188420BD86D
:101B9000FFE70A9948F28042C0F21E0200209142FB
:101BA00038BF012009900AE00A9940F60012C0F2FD
:101BB0003D020020914238BF01200990FFE70998BB
:101BC000012804D1FFE701208DF83700F6E00A98DC
:101BD0004DF68361C4F21B31A0FB0110800C0B9009
:101BE0000C980068406820F03F000B9908430C995E
:101BF000096848600C980068006A20F03F0008906F
:101C00000C98406848F2A061C0F20101884204D8F3
:101C1000FFE70B98013007900EE00B984FF4967198
:101C2000484344F6D351C1F26201A0FB01010120F7
:101C300000EB91100790FFE70898079908430C996B
:101C4000096808620C980068C0694CF6FF71884307
:101C500006900C98406848F2A061C0F201018842E9
:101C60001FD8FFE70A9801380C9949684900B0FB72
:101C7000F1F001306FF31F30032803D8FFE7042091
:101C800005900BE00A9801380C9949684900B0FBAF
:101C9000F1F001306FF31F300590FFE705980490D5
:101CA0004CE00C98806868B9FFE70A9801380C99F5
:101CB000496801EB4101B0FBF1F001306FF31F30D7
:101CC00003900DE00A9801380C9949681922514394
:101CD000B0FBF1F00130042161F31F300390FFE706
:101CE0000398000518B9FFE70120029023E00C9843
:101CF000806868B9FFE70A9801380C99496801EBD8
:101D00004101B0FBF1F001306FF31F3001900DE0A5
:101D10000A9801380C99496819225143B0FBF1F037
:101D20000130042161F31F300190FFE7019840F476
:101D300000400290FFE702980490FFE7069804999C
:101D400008430C990968C8610C980068006820F085
:101D5000C0000C9B1968DA691B6A1A4310430860BB
:101D60000C980068806848F2FF3188430C9A11682B
:101D7000D36812691A43104388600C980068C068E1
:101D800020F0FF000C9B19685A699B691A431043A5
:101D9000C8600C980168086840F0010008600C9960
:101DA000002008640C9A202182F83D100C990863E9
:101DB0000C9981F83E008DF83700FFE79DF8370059
:101DC0000EB080BD80B588B0DDF828C00690ADF8B3
:101DD00016100492ADF80E30FFF79CFE02900698A4
:101DE00090F83D00202840F0E980FFE7069802992E
:101DF0006A4611600221C0F210010122192301F08C
:101E0000BDF920B1FFE702208DF81F00DAE0FFE7FF
:101E1000069890F83C00012804D1FFE702208DF8D5
:101E20001F00CFE00699012081F83C00FFE7FFE7A3
:101E3000069800680068C00738B9FFE7069801688F
:101E4000086840F001000860FFE70698016808682C
:101E500020F4006008600699212081F83D00069971
:101E6000102081F83E000699002008640498069925
:101E70004862BDF80E00069948850698408D06997F
:101E8000088506990020CFF6FF70C8620698BDF855
:101E900016100A9A029B01F091F820B1FFE7012089
:101EA0008DF81F008EE0FFE7002001900698006883
:101EB0004069019006980068806901900198FFE7E9
:101EC000FFE70698008D002860D0FFE706980A9982
:101ED000029A01F081FA80B1FFE70698006C0428AD
:101EE00007D1FFE706980168086840F400700860B1
:101EF000FFE701208DF81F0064E006980168406A42
:101F0000007808610699486A013048620699488D50
:101F1000013848850699088D0138088506980068BB
:101F2000406900F004010120B0EB910F16D1FFE7EA
:101F30000698008D90B1FFE706980168406A007826
:101F400008610699486A013048620699488D01384F
:101F500048850699088D01380885FFE706980A9993
:101F6000029A01F0B5F880B1FFE70698006C0428EA
:101F700007D1FFE706980168086840F40070086020
:101F8000FFE701208DF81F001CE09AE70698016822
:101F9000086840F4007008600699202081F83D0030
:101FA0000699002081F83E00FFE70699002081F89D
:101FB0003C00FFE700208DF81F0003E002208DF8B1
:101FC0001F00FFE79DF81F0008B080BD80B588B0F6
:101FD00007900020069005900490039007980068F1
:101FE00045F20041C4F2000188422CD1FFE7FFE72F
:101FF00041F21800C4F20200016841F008010160DA
:10200000006800F0080002900298FFE7C0200390EB
:10201000122004900320069040F60040C4F2010014
:1020200003A9FFF7B7FBFFE741F21C00C4F202006F
:10203000016841F400110160006800F40010019093
:102040000198FFE7FFE708B080BD000040F21400F0
:10205000C2F20000027840F23411C2F200010868B6
:10206000104408607047000080B542F20001C4F2DD
:102070000201086840F010000860032000F08CF8AE
:102080000F2000F005F800F03BF8002080BD0000B4
:1020900080B582B0009040F20000C2F200000068FB
:1020A00040F21401C2F200010A784FF47A71B1FBD8
:1020B000F2F1B0FBF1F000F057FD20B1FFE7012095
:1020C0008DF8070018E000980F280DD8FFE7009959
:1020D0004FF0FF30002200F045F8009840F2180160
:1020E000C2F20001086003E001208DF8070003E060
:1020F00000208DF80700FFE79DF8070002B080BDC3
:1021000083B0FFE741F21800C4F20200016841F019
:1021100001010160006800F0010002900298FFE7F1
:10212000FFE741F21C00C4F20200016841F0805157
:102130000160006800F0805001900198FFE7FFE720
:102140000421C4F2010108680090009820F0E060CA
:102150000090009840F00070009000980860FFE741
:1021600003B0704780B586B08DF8170004910392D4
:102170000020029001F072FD02909DF9170001907D
:1021800002980499039A01F04DFB0146019801F071
:102190006DFD06B080BD000080B582B00190019851
:1021A00001F086FD02B080BD80B584B0029001913F
:1021B000029820B9FFE701208DF80F001BE101987C
:1021C00042F20001C4F20201096801F007018842ED
:1021D00016D9FFE742F20000C4F20200016821F0C4
:1021E0000701019A11430160006800F0070001999E
:1021F000884204D0FFE701208DF80F00FBE0FFE7E5
:1022000002980078800700282AD5FFE70298007816
:102210004007002809D5FFE741F20401C4F202019A
:10222000086840F4E0600860FFE702980078000763
:10223000002809D5FFE741F20401C4F20201086851
:1022400040F460500860FFE741F20401C4F202016B
:10225000086820F0F000029A926810430860FFE7D7
:1022600002980078C007002860D0FFE70298406815
:1022700001280ED1FFE741F20000C4F2020000681D
:102280008003002804D4FFE701208DF80F00B2E09E
:1022900021E00298406802280ED1FFE741F20000D9
:1022A000C4F2020000688001002804D4FFE7012086
:1022B0008DF80F009FE00DE041F20000C4F2020033
:1022C00000688007002804D4FFE701208DF80F0084
:1022D00091E0FFE7FFE741F20401C4F20201086860
:1022E00020F00300029A526810430860FFF712FCC6
:1022F0000090FFE741F20400C4F20200006800F021
:102300000C0002994968B0EB810F0ED0FFE7FFF790
:1023100001FC0099401A41F28931884204D3FFE759
:1023200003208DF80F0066E0E4E7FFE7019842F232
:102330000001C4F20201096801F00701884216D2C7
:10234000FFE742F20000C4F20200016821F0070139
:10235000019A11430160006800F00700019988426A
:1023600004D0FFE701208DF80F0044E0FFE702985A
:102370000078400700280CD5FFE741F20401C4F2C1
:102380000201086820F4E060029AD26810430860F5
:10239000FFE702980078000700280DD5FFE741F21B
:1023A0000401C4F20201086820F46050029A126924
:1023B00040EAC2000860FFE700F03AF841F2040189
:1023C000C4F202010968C9B20A0944F22471C0F6D4
:1023D0000001895CC84040F20001C2F200010860BF
:1023E00040F21800C2F200000068FFF751FE002022
:1023F0008DF80F00FFE79DF80F0004B080BD0000CE
:1024000040F20000C2F200000068704780B5FFF79C
:10241000F7FF41F20401C4F202010968C1F302228C
:1024200044F23471C0F60001895CC84080BD0000F0
:1024300086B000200590049003900290019041F234
:102440000400C4F2020000680590059800F00C003A
:102450000146009100283FD0FFE70098042804D0EF
:10246000FFE70098082806D037E041F20020C0F2CC
:102470007A00019037E00598C0F3834144F23C7044
:10248000C0F60000405C02909DF81600C007C0B185
:10249000FFE741F20400C4F202000068C0F34041CB
:1024A00044F24C70C0F60000405C0490029841F287
:1024B0000021C0F27A0148430499B0FBF1F0039087
:1024C00007E0029840F60011C0F23D014843039036
:1024D000FFE70398019006E0FFE741F20020C0F219
:1024E0007A000190FFE7019806B0704780B586B08A
:1024F0000490049820B9FFE701208DF817002EE31F
:1025000004980078C007002800F0AE80FFE741F291
:102510000400C4F20200006800F00C00042813D08C
:10252000FFE741F20400C4F20200006800F00C0072
:1025300008281BD1FFE741F20400C4F20200006842
:10254000C003002812D5FFE741F20000C4F20200E8
:1025500000688003002808D5FFE70498406820B988
:10256000FFE701208DF81700F9E27CE0FFE704980F
:102570004068B0F5803F09D1FFE741F20001C4F2A5
:102580000201086840F48030086032E00498406836
:1025900068B9FFE741F20001C4F20201086820F4C3
:1025A00080300860086820F48020086020E00498EB
:1025B0004068B0F5A02F0DD1FFE741F20001C4F251
:1025C0000201086840F480200860086840F4803008
:1025D00008600CE041F20001C4F20201086820F436
:1025E00080300860086820F480200860FFE7FFE77B
:1025F000FFE7FFE704984068D0B1FFE7FFF78AFAEA
:102600000390FFE741F20000C4F20200006880037B
:1026100000280CD4FFE7FFF77DFA0399401A6528DC
:1026200004D3FFE703208DF8170098E2EAE719E0EA
:10263000FFF770FA0390FFE741F20000C4F20200D6
:102640000068800300280CD5FFE7FFF763FA0399C1
:10265000401A652804D3FFE703208DF817007EE2B7
:10266000EAE7FFE7FFE7FFE7049800788007002824
:1026700040F18D80FFE741F20400C4F202000068DF
:1026800010F00C0F13D0FFE741F20400C4F2020077
:10269000006800F00C00082829D1FFE741F204008F
:1026A000C4F202000068C003002820D4FFE741F212
:1026B0000000C4F2020000688007002809D5FFE787
:1026C00004980069012804D0FFE701208DF8170065
:1026D00045E241F20001C4F20201086820F0F8006E
:1026E000049A526940EAC2000860FFE74EE004988D
:1026F000006958B3FFE70021C4F2422101200860BD
:10270000FFF708FA0390FFE741F20000C4F202006D
:102710000068800700280CD4FFE7FFF7FBF9039956
:10272000401A032804D3FFE703208DF8170016E2B0
:10273000EAE741F20001C4F20201086820F0F80063
:10274000049A526940EAC20008601EE00021C4F207
:10275000422100200860FFF7DDF90390FFE741F216
:102760000000C4F202000068800700280CD5FFE7D3
:10277000FFF7D0F90399401A032804D3FFE7032099
:102780008DF81700EBE1EAE7FFE7FFE7FFE70498C2
:1027900000780007002848D5FFE70498806918B33F
:1027A000FFE740F28041C4F2422101200860FFF7B8
:1027B000B1F90390FFE741F22400C4F2020000687F
:1027C000800700280CD4FFE7FFF7A4F90399401A0B
:1027D000032804D3FFE703208DF81700BFE1EAE7E1
:1027E000012001F071F81FE040F28041C4F2422163
:1027F00000200860FFF78EF90390FFE741F2240004
:10280000C4F202000068800700280CD5FFE7FFF73C
:1028100081F90399401A032804D3FFE703208DF8B8
:1028200017009CE1EAE7FFE7FFE70498007840071C
:10283000002840F1D880FFE700208DF8070041F222
:102840001C00C4F202000068C000002813D4FFE797
:10285000FFE741F21C00C4F20200016841F0805120
:102860000160006800F0805000900098FFE70120B0
:102870008DF80700FFE747F20000C4F2000000688F
:10288000C005002822D4FFE747F20001C4F200018E
:10289000086840F480700860FFF73CF90390FFE798
:1028A00047F20000C4F200000068C00500280CD404
:1028B000FFE7FFF72FF90399401A652804D3FFE7D4
:1028C00003208DF817004AE1EAE7FFE7FFE70498E5
:1028D000C068012809D1FFE741F22001C4F20201DA
:1028E000086840F00100086031E00498C06868B9E9
:1028F000FFE741F22001C4F20201086820F0010064
:102900000860086820F0040008601FE00498C068B0
:1029100005280DD1FFE741F22001C4F20201086849
:1029200040F004000860086840F0010008600CE016
:1029300041F22001C4F20201086820F001000860A1
:10294000086820F004000860FFE7FFE7FFE7FFE703
:102950000498C068E0B1FFE7FFF7DCF80390FFE7F9
:1029600041F22000C4F202000068800700280ED463
:10297000FFE7FFF7CFF80399401A41F28931884207
:1029800004D3FFE703208DF81700E8E0E8E71BE039
:10299000FFF7C0F80390FFE741F22000C4F2020005
:1029A0000068800700280ED5FFE7FFF7B3F803990A
:1029B000401A41F28931884204D3FFE703208DF8A1
:1029C0001700CCE0E8E7FFE79DF80700012809D1F0
:1029D000FFE741F21C01C4F20201086820F08050B8
:1029E0000860FFE7FFE70498C069002800F0B380A3
:1029F000FFE741F20400C4F20200006800F00C009E
:102A0000082800F08280FFE70498C06902285CD1A2
:102A1000FFE76021C4F2422100200860FFF77AF846
:102A20000390FFE741F20000C4F202000068800159
:102A300000280CD5FFE7FFF76DF80399401A03282B
:102A400004D3FFE703208DF8170088E0EAE7049835
:102A5000006AB0F5803F0CD1FFE741F20401C4F2F7
:102A60000201086820F40030049A9268104308605C
:102A7000FFE741F20401C4F20201086820F4741077
:102A8000049B1A6A5B6A1A43104308606021C4F20F
:102A9000422101200860FFF73DF80390FFE741F273
:102AA0000000C4F202000068800100280CD4FFE797
:102AB000FFF730F80399401A032804D3FFE70320F7
:102AC0008DF817004BE0EAE71EE06021C4F24221D6
:102AD00000200860FFF71EF80390FFE741F20000B6
:102AE000C4F202000068800100280CD5FFE7FFF760
:102AF00011F80399401A032804D3FFE703208DF847
:102B000017002CE0EAE7FFE724E00498C0690128F9
:102B100004D1FFE701208DF8170020E041F2040006
:102B2000C4F2020000680290029800F48030049918
:102B3000096A884208D1FFE7029800F470100499EE
:102B4000496A884204D0FFE701208DF8170006E0AB
:102B5000FFE7FFE7FFE700208DF81700FFE79DF88C
:102B6000170006B080BD000080B582B001900198CA
:102B700000F004FF02B080BD85B003900291FFE732
:102B8000039890F83C00012804D1FFE702208DF85B
:102B900013005BE00399012081F83C00FFE7FFE7A9
:102BA0000399022081F83D00039800684068019075
:102BB0000398006880680090019820F070000190F0
:102BC00002980168019808430190019803990968E7
:102BD00048600398006842F60041C4F2010188424F
:102BE00018D0FFE703980068B0F1804F12D0FFE7DC
:102BF0000398006840F20041C4F20001884209D005
:102C0000FFE70398006840F60001C4F20001884223
:102C10000ED1FFE7009820F08000009002984168F4
:102C20000098084300900098039909688860FFE7BE
:102C30000399012081F83D00FFE70399002081F806
:102C40003C00FFE700208DF81300FFE79DF813001C
:102C500005B0704780B582B00090009820B9FFE7BA
:102C600001208DF807003FE0009890F83D0040B942
:102C7000FFE70099002081F83C00009800F038F848
:102C8000FFE70099022081F83D00009951F8040BFC
:102C900000F0DAFE0099012081F84600FFE7009974
:102CA000012081F83E00009981F83F00009981F8E9
:102CB0004000009981F84100FFE7FFE700990120FB
:102CC00081F84200009981F84300009981F844009E
:102CD000009981F84500FFE70099012081F83D0047
:102CE00000208DF80700FFE79DF8070002B080BDC7
:102CF00082B001900198006842F60041C4F20101DF
:102D0000884210D1FFE7FFE741F21800C4F2020049
:102D1000016841F400610160006800F40060009007
:102D20000098FFE7FFE702B07047000083B0019012
:102D3000019890F83D00012804D0FFE701208DF8AC
:102D40000B0041E00199022081F83D0001980068E4
:102D500042F60041C4F20101884218D0FFE7019811
:102D60000068B0F1804F12D0FFE70198006840F290
:102D70000041C4F20001884209D0FFE701980068D1
:102D800040F60001C4F20001884212D1FFE7019829
:102D90000068806800F0070000900098062807D0BF
:102DA000FFE701980168086840F001000860FFE74C
:102DB00006E001980168086840F001000860FFE73C
:102DC00000208DF80B00FFE79DF80B0003B0704763
:102DD00080B586B00490039100208DF80B00FFE7CA
:102DE000049890F83C00012804D1FFE702208DF8F8
:102DF0001700ABE00499012081F83C00FFE7FFE7F2
:102E00000499022081F83D000498006880680190D0
:102E1000019820F077000190019820F47F40019004
:102E20000198049909688860039800680090002858
:102E300072D0FFE7009810286ED0FFE70098202896
:102E40006AD0FFE70098302866D0FFE70098402856
:102E500055D0FFE70098502837D0FFE7009860284A
:102E600040D0FFE7009870280BD0FFE70098B0F53E
:102E7000805F05D0FFE70098B0F5005F16D052E004
:102E800055E004980068039B5A689968DB6800F075
:102E900053FE0498006880680190019840F0770024
:102EA0000190019804990968886040E004980068DE
:102EB000039B5A689968DB6800F03EFE049801683D
:102EC000886840F48040886031E004980068039A84
:102ED0005168D26800F060FE04980068502100F04C
:102EE00045FE24E004980068039A5168D26800F017
:102EF0007BFE04980068602100F038FE17E004981B
:102F00000068039A5168D26800F046FE0498006891
:102F1000402100F02BFE0AE004980068039909683C
:102F200000F024FE03E001208DF80B00FFE7049978
:102F3000012081F83D00FFE70499002081F83C0062
:102F4000FFE79DF80B008DF81700FFE79DF81700CD
:102F500006B080BDFFE7FEE782B0009000980068F1
:102F6000406900F480610120B0EB912F1ED1FFE792
:102F7000009801686FF48060486100990020086340
:102F8000009A202182F83D10009981F83E000099B6
:102F9000086C40F004000864FFE70099002081F805
:102FA0003C00FFE701208DF8070003E000208DF8CA
:102FB0000700FFE79DF8070002B0704780B588B0B2
:102FC0000690ADF81610049203930698C06A02901A
:102FD0000298082809D0FFE70298012805D0FFE7EA
:102FE000029810F5803F07D1FFE70698016808684E
:102FF00040F4807008600DE00698006B122807D13D
:10300000FFE706980168086840F48070086000E0F7
:10301000FFE7FFE70698049B03996A4611604FF0AB
:103020000111002200F0AAF880B1FFE706980068BD
:103030000068C005002805D5FFE706994FF4007029
:103040000864FFE703208DF81F003CE00698006944
:10305000B0F5804F08D1FFE7BDF8160000F0FE0084
:103060000699096808611CE0BDF8160000F440707C
:10307000C009F0300699096808610698049A039B14
:103080000821C0F2010100F0FDF820B1FFE70120A6
:103090008DF81F0017E09DF8160006990968086171
:1030A000FFE70698049A039B0221C0F2010100F099
:1030B000E9F820B1FFE701208DF81F0003E00020B0
:1030C0008DF81F00FFE79DF81F0008B080BD0000CD
:1030D00080B584B0029001910092FFE702980068E9
:1030E000406900F004010020B0EB910F3ED1FFE7F2
:1030F0000298FFF731FF20B1FFE701208DF80F00A4
:1031000038E00198013080B3FFE7FEF703FD009936
:10311000401A0199884203D8FFE7019820BBFFE7D6
:1031200002980068406900F004010020B0EB910FA4
:1031300019D1FFE7029900200863029A202182F842
:103140003D10029981F83E000299086C40F0200081
:103150000864FFE70299002081F83C00FFE70120A6
:103160008DF80F0006E0FFE7FFE7B7E700208DF8D6
:103170000F00FFE79DF80F0004B080BD80B588B058
:10318000DDF828C0069005918DF813200393FFE722
:103190009DF8160001280CD1FFE7069800684069E9
:1031A000BDF814100840401AB0FA80F040090290AF
:1031B0000BE0069800688069BDF814100840401ABA
:1031C000B0FA80F040090290FFE702989DF81310D2
:1031D00088424FD1FFE703980130002849D0FFE72C
:1031E000FEF798FC0A99401A0399884203D8FFE732
:1031F0000398E8BBFFE79DF8160001280CD1FFE714
:10320000069800684069BDF814100840401AB0FAEA
:1032100080F0400901900BE0069800688069BDF8D5
:1032200014100840401AB0FA80F040090190FFE7FE
:1032300001989DF81310884219D1FFE706990020E4
:103240000863069A202182F83D10069981F83E0015
:103250000699086C40F020000864FFE706990020FA
:1032600081F83C00FFE701208DF81F0006E0FFE732
:10327000FFE78DE700208DF81F00FFE79DF81F0096
:1032800008B080BD80B588B0069005910492039384
:10329000FFE79DF8160001280CD1FFE706980068AB
:1032A0004069BDF814100840401AB0FA80F0400997
:1032B00002900BE0069800688069BDF81410084081
:1032C000401AB0FA80F040090290FFE70298002807
:1032D0007AD1FFE706980068406900F48061012018
:1032E000B0EB912F24D1FFE706980168086840F4FD
:1032F00000700860069801686FF480604861069964
:1033000000200863069A202182F83D10069981F872
:103310003E000699086C40F004000864FFE7069937
:10332000002081F83C00FFE701208DF81F004FE0EE
:1033300004980130002846D0FFE7FEF7EBFB039925
:10334000401A0499884203D8FFE70498D0BBFFE7EE
:103350009DF8160001280CD1FFE706980068406927
:10336000BDF814100840401AB0FA80F040090190EE
:103370000BE0069800688069BDF814100840401AF8
:10338000B0FA80F040090190FFE70198C8B9FFE763
:10339000069900200863069A202182F83D100699BC
:1033A00081F83E000699086C40F020000864FFE7B1
:1033B0000699002081F83C00FFE701208DF81F00EE
:1033C00006E0FFE7FFE764E700208DF81F00FFE756
:1033D0009DF81F0008B080BD80B584B002900191B7
:1033E0000092FFE7029800684069C1B20020B0EB8C
:1033F000D11F3DD1FFE70298FFF7AEFD20B1FFE7F7
:1034000001208DF80F0037E00198013078B3FFE715
:10341000FEF780FB0099401A0199884203D8FFE724
:10342000019818BBFFE7029800684069C1B200200C
:10343000B0EBD11F19D1FFE7029900200863029A6F
:10344000202182F83D10029981F83E000299086C13
:1034500040F020000864FFE70299002081F83C005A
:10346000FFE701208DF80F0006E0FFE7FFE7B9E76F
:1034700000208DF80F00FFE79DF80F0004B080BD1D
:1034800080B5012000F06EFA4FF4FA60FEF722F9E1
:1034900080BD000080B584B08DF80F0002919DF8CA
:1034A0000F0000F007008DF80F009DF80F1040206E
:1034B00040EAC100C0B200F055FA00200190FFE7D9
:1034C000019807280ADCFFE702980199405C00F0A8
:1034D0003DFAFFE7019801300190F1E704B080BDAB
:1034E00080B540F29100C2F20000017841F0040181
:1034F0000170007840F0080000F034FA80BD000050
:1035000080B5022000F02EFA4FF4FA60FEF7E2F8E0
:1035100080BD000080B584B08DF80F009DF80F10BD
:1035200040F29400C2F20000017040F29002C2F238
:1035300000020821117040F29202C2F20002002142
:1035400011700078022809DBFFE740F29201C2F215
:103550000001087840F00800087008E040F292018D
:10356000C2F20001087840F004000870FFE7FEF79F
:10357000A9F83220FEF7ECF840F29000C2F2000009
:103580000078FEF7C7F84FF47A70FEF7E1F83020C4
:10359000019000F055FB41F294100290FEF79AF86A
:1035A000019800F04DFB0298FEF794F8019800F0A6
:1035B00047FB0298FEF78EF8202000F041FB6420C4
:1035C000FEF788F840F29200C2F20000007840F066
:1035D000200000F0C7F940F29101C2F2000104207E
:1035E0000870FFF77DFFFFF74BFF40F29300C2F238
:1035F000000002210170007840F0040000F0B2F9F0
:103600000298FEF767F840F20401C2F200010020C0
:10361000FFF740FF40F20C01C2F200010120FFF76A
:1036200039FFFFF76DFF04B080BD000080B582B0A8
:103630000190FFE70198007838B1FFE70198411C3D
:103640000191007800F082F9F4E702B080BD00003B
:1036500080B586B08DF817008DF8161054200490B0
:103660001420039040200290002001909DF8160045
:1036700040F29401C2F200010978884209DBFFE7B9
:1036800040F29400C2F20000007801388DF8160074
:10369000FFE79DF817009DF8162001A951F82210A8
:1036A000084440F08000C0B200F05CF906B080BD74
:1036B00080B58AB000200990089007900690FFE737
:1036C00041F21800C4F20200016841F020010160DB
:1036D000006800F0200005900598FFE7FFE741F241
:1036E0001800C4F20200016841F0040101600068A2
:1036F00000F0040004900498FFE7FFE741F218008F
:10370000C4F20200016841F008010160006800F0A5
:10371000080003900398FFE740F60040C4F2010060
:1037200002904FF40041009100220192FEF7DAF975
:10373000009A0199029806920791012108910221AD
:10374000099106A9FEF726F80AB080BD80B582B0BF
:1037500040F29800C2F20000019045F20041C4F22C
:103760000001016048F2A061C0F201014160002146
:103770008160C1604FF48042026141618161C16139
:103780000162FEF7CDF918B1FFE7FDF7BBFFFFE7D8
:1037900002B080BD80B588B00021009107910691EC
:1037A000059104910391029140F2EC00C2F20000F5
:1037B000019042F60042C4F20102026047224260D8
:1037C00081604FF6FE72C260016141618161FFF765
:1037D00041FA18B1FFE7FDF795FFFFE74FF480507E
:1037E000049040F2EC00C2F2000004A9FFF7F0FAE6
:1037F00018B1FFE7FDF786FFFFE700200290039076
:1038000040F2EC00C2F2000002A9FFF7B5F918B1CE
:10381000FFE7FDF777FFFFE708B080BDFFE7FEE7B2
:10382000FFE7FEE788B0079006910592079800F041
:10383000070004900498C0F10700052803D3FFE7B0
:103840000420019004E00498C0F107000190FFE714
:103850000198039004980430062803D8FFE700205D
:10386000009003E0049803380090FFE7009802906E
:1038700006980399012202FA01F101390840029BDE
:10388000984005999A40013A1140084308B07047A2
:103890007047000080B582B08DF807009DF80700E2
:1038A00040F00400FDF736FF14200090FDF712FFF2
:1038B0009DF8070000F0FB00FDF72CFF0098FDF7D6
:1038C00009FF02B080BD000082B00190019840F273
:1038D0000001C2F200010968C90844F6D352C1F2DE
:1038E0006202A1FB0221890948430090FFE700BF63
:1038F000FFE70098411E00910028F8D1FFE702B0D1
:10390000704700007047000080B582B08DF8070056
:103910008DF806109DF8070000F0F0008DF8050006
:103920009DF8070000018DF804009DF805009DF842
:103930000610084300F084F99DF804009DF8061075
:10394000084300F07DF902B080BD000080B582B070
:103950008DF807009DF807000121FFF7D5FF02B0A1
:1039600080BD000080B582B08DF807009DF807008B
:103970000021FFF7C9FF02B080BD000080B582B012
:10398000009000980138B0F1807F03D3FFE7012059
:10399000019019E0009801384EF21401CEF20001B6
:1039A00008604FF0FF300F2100F060F94EF218016F
:1039B000CEF20001002008604EF21002CEF20002AA
:1039C000072111600190FFE7019802B080BD00005F
:1039D00080B5FEF73BFB80BD80B590B006A8009097
:1039E0002821FCF75DFC00980023059304930393C2
:1039F00002930193012206924FF4803107910893BC
:103A00000A9202220D920E914FF4E0110F91FEF7EF
:103A10006DFD18B1FFE7FDF775FEFFE70F20019080
:103A200002210291002003904FF4806204920590DD
:103A300001A8FEF7B9FB18B1FFE7FDF763FEFFE74A
:103A400010B080BD7047000083B0029001910298D1
:103A500000680090029842F60041C4F201018842D9
:103A600015D0FFE70298B0F1804F10D0FFE7029821
:103A700040F20041C4F20001884208D0FFE70298FA
:103A800040F60001C4F2000188420AD1FFE7009825
:103A900020F0700000900198416800980843009061
:103AA000FFE7029842F60041C4F20101884215D0B6
:103AB000FFE70298B0F1804F10D0FFE7029840F284
:103AC0000041C4F20001884208D0FFE7029840F6A6
:103AD0000001C4F2000188420AD1FFE7009820F4F7
:103AE000407000900198C168009808430090FFE77B
:103AF000009820F0800001994969084300900098DF
:103B000002990860019880680299C862019800686B
:103B100002998862029842F60041C4F2010188428B
:103B200005D1FFE70198006902990863FFE7029950
:103B30000120486103B0704785B004900391029260
:103B40000193049880680090009820F47F400090D2
:103B500003980299019A41EA02210143009808431F
:103B6000009000980499886005B0704783B0029077
:103B70000191029880680090009820F070000090F9
:103B800001980099084340F00700009000980299BE
:103B9000886003B07047000085B0049003910292E2
:103BA0000498006A00900499086A20F001000862F5
:103BB000049880690190019820F0F000019002992A
:103BC000019840EA01100190009820F00A0000904E
:103BD000039900980843009001980499886100981F
:103BE0000499086205B0704785B004900391029271
:103BF0000498006A00900499086A20F01000086296
:103C0000049880690190019820F470400190029915
:103C1000019840EA01300190009820F0A000009047
:103C20000399009840EA0110009001980499886176
:103C300000980499086205B070470000FFE7FEE7AE
:103C400080B582B08DF807009DF80700FDF762FD92
:103C50009DF80700FFF71EFE02B080BD4EF60C5027
:103C6000CEF200000068C0F30220704782B08DF8E9
:103C7000070000919DF9070000280AD4FFE700988B
:103C800000019DF907104EF20042CEF20002885466
:103C90000BE0009800019DF8071001F00F014EF6AF
:103CA0001452CEF200028854FFE702B070470000C1
:103CB00083B00290029800F0070000904EF60C517D
:103CC000CEF200010868019001984FF6FF02104003
:103CD00001900198009A40EA02200022C0F2FA52B4
:103CE000104301900198086003B0704780B592B00E
:103CF00000201190FEF7B8F9FFF76EFEFFF7D8FC31
:103D0000FFF724FDFFF746FD0220FFF703FC69469D
:103D10004FF40040086040F28000C2F2000040F220
:103D2000EC02C2F20002012140F60043C4F201039A
:103D3000FDF77CFB44F25E70C0F60000FFF776FCF6
:103D4000FFE740F28000C2F200000290FDF7F2FBB4
:103D50000298818948F21F50C5F2EB100390A1FB35
:103D6000002043096420049003FB1010694608609A
:103D700044F26571C0F600010DF132000590012298
:103D80000892FCF777FA0299039A0498C989A1FB73
:103D90000232520902FB101344F26771C0F60001AF
:103DA0000AA80990FCF766FAFFF76AFB0021069162
:103DB0000846FFF74DFC44F25670C0F60000FFF7CE
:103DC00035FC069907200790FFF742FC0598FFF79E
:103DD0002DFC06980899FFF73BFC44F24E70C0F6A4
:103DE0000000FFF723FC07980899FFF731FC0998BA
:103DF000FFF71CFC4FF47A70FDF7AAFCA1E75FEA1D
:103E0000400C08BF91F0000F4FEA8C234FEAC1220B
:103E100043EA51514FEA1C5018BF00F5F0404FEAF9
:103E2000300018BF41F000415FEA6C5C00F029806F
:103E3000BCF1FF3F08BF40F080407047130C06BF45
:103E400012044FF0100C4FF0000C130E04BF1202BE
:103E50000CF1080C130F04BF12010CF1040C930FAA
:103E600004BF92000CF1020CD30F04BF52000CF1FE
:103E7000010C11464FF00002A0F11F00A0EB0C0056
:103E8000704711F0004F08BF704731F000413FF418
:103E9000D5AF0B0C06BF09044FF0100C4FF0000C0F
:103EA0000B0E04BF09020CF1080C0B0F04BF090133
:103EB0000CF1040C8B0F04BF89000CF1020CCB0F2A
:103EC00004BF49000CF1010CCCF1200322FA03F3EA
:103ED00041EA030102FA0CF2A0EB0C0000F1010030
:103EE0007047000023F07F4720F07F4C80EA0300FA
:103EF00000F00040ACEB070303F57C5303F1FF0334
:103F00002DE9804909B44FEA144324EA03484FEAF3
:103F1000154B25EA0B4E0FF2042606EB13273E78CD
:103F200003FB0667C7F5000707FB06F64FEAD64610
:103F300006F102064FEA543707FB066CCCF1005C31
:103F40004FEA1C472CEA074C0CFB06F507FB06F46E
:103F500004EB15464FEA961649085FEA320234BF71
:103F600000204FF000404FEAD13706FB07FC4FEA34
:103F70001C4C0CFB0BF7D21B03FB0CF761EB07018E
:103F80000CFB0EF7B0EB074072EB17420CFB08F787
:103F900034BFA2EB0742B2EB074261EB17414FEA95
:103FA0000C444FEA910706FB07FC4FEA1C4C0CFB44
:103FB0000BF7B0EBC74072EB573203FB0CF734BF83
:103FC000A2EBC742B2EBC74261EB57310CFB0EF7D5
:103FD000B0EBC70072EB57720CFB08F734BFA2EBD3
:103FE000C702B2EBC70261EB57714FEA816141EA48
:103FF00092114FEA826242EA90124FEA806004EB2B
:10400000CC04039F4FEAD13706FB07FC4FEA1C4C58
:104010000CFB0BF7D21B03FB0CF761EB07010CFB4E
:104020000EF7B0EB074072EB17420CFB08F734BFFA
:10403000A2EB0742B2EB074261EB17414FEA8C5506
:1040400004EB9C244FEA910706FB07FC4FEA1C4C4B
:104050000CFB0BF7B0EBC74072EB573203FB0CF7CE
:1040600034BFA2EBC742B2EBC74261EB57310CFB46
:104070000EF7B0EBC70072EB57720CFB08F734BFBA
:10408000A2EBC702B2EBC70261EB57714FEA816145
:1040900041EA92114FEA826242EA90124FEA80604E
:1040A00015EB4C2544F100044FEAD13706FB07FC21
:1040B0004FEA1C4C0CFB0BF7D21B03FB0CF761EB1C
:1040C00007010CFB0EF7B0EB074072EB17420CFB3D
:1040D00008F734BFA2EB0742B2EB074261EB17418E
:1040E0004FEA813141EA92414FEA823242EA9042FC
:1040F0004FEA80304FEA0C7615EB1C1544F10004B2
:1041000048EA03434EEA0B484FF0000EB2EB080CAE
:1041100071EB030724BF624639464EEB0E0E4FF09B
:10412000000B0018524149414BEB0B0BB2EB080C52
:1041300071EB03077BF1000B24BF624639464EEB5F
:104140000E0E4FF0000B0018524149414BEB0B0B88
:10415000B2EB080C71EB03077BF1000B24BF624646
:1041600039464EEB0E0E51EA020718BF46F0010623
:1041700016EB0E7655F1000254F1000103D5BDE8AF
:104180008901BDE80088BDE88901BDE80048B6198D
:10419000524141EB0101A3F10103704780807F7E12
:1041A0007D7C7B7A797877767675747372717170AD
:1041B0006F6E6E6D6C6C6B6A6A696868676666655F
:1041C0006464636362616160605F5F5E5E5D5D5CED
:1041D0005C5B5B5A5A59595858575756565555555E
:1041E0005454535352525251515050504F4F4F4EBE
:1041F0004E4D4D4D4C4C4C4B4B4B4A4A4A4949490C
:10420000484848474747474646464545454444444D
:104210004443434343424242424141419C46002B76
:1042200030D477002BD04FEA37071CB503B44FF0DA
:1042300010004FF01001BAF1000F06D0BCF1000FD2
:10424000DCBF40F0080040F008014FF000000FBC58
:10425000BDE810400BF1010BBBF1010F08BF5FEA95
:10426000170722BF12F1010211F101014FF00041C5
:1042700043F1000300F0004043EA00007047F9D327
:104280005708D0E746EA06464FEA164613F1400FB4
:104290001FDD13F1200FDFBF16430A460021203334
:1042A0005B42BED0C3F1200746EA06464FEA1646F7
:1042B00002FA07F746EA070622FA03F2C3F12007DB
:1042C00001FA07F742EA070221FA03F14FF000036F
:1042D000A7E746EA020646EA06464FEA164646EAD7
:1042E0000106BCBF46EA0646360C4FF000034FF00D
:1042F00000024FF0000194E72DE9804C70B49A461B
:10430000934691E8380007C831EA400C48BF34EAC8
:10431000430C03D5FFF7E6FDFFF780FFF0BCBDE8D7
:10432000008C2DE9804C70B49A46934691E8380091
:1043300007C810F0804F08BF13F0804F03D100F082
:1043400005F8FFF76BFFF0BCBDE8008C20F07F475D
:1043500023F07F4C80EA030000F0004007EB0C03E1
:10436000A3F57C53A3F1FE0392F0000F00F0B3809D
:1043700095F0000F00F077802DE901494FEA1140D8
:1043800021EA00484FEA144624EA064700FB06FCEF
:1043900008FB06F607FB08F818EB06484CEB164C32
:1043A00000FB07F718EB07484CEB17404FEA124B9E
:1043B00022EA0B4E4FEA154625EA06470BFB06FCA0
:1043C0000EFB06F607FB0EFE1EEB064E4CEB164CE4
:1043D0000BFB07F71EEB074E4CEB174B18EB0B08CC
:1043E00040F1000018EB0E0B58EB000840F1000004
:1043F0008F1A4FF000014FF000063CBFC943661B07
:1044000014BFB5EB040C00213CBFC943F61B4FEAB7
:10441000174427EA04454FEA1C472CEA074C04FBE3
:10442000076205FB07F70CFB05F616EB074642EBA8
:10443000174204FB0CFC16EB0C4642EB1C421BEB38
:10444000060658EB020241414EEA8E0E46EA9E06EF
:1044500001D5BDE80189B619524141EB0101A3F133
:104460000103BDE801894FEA144524EA05464FEAF5
:10447000114721EA074C05FB07F406FB07F70CFB85
:1044800006F111EB074144EB174405FB0CFC11EB63
:104490000C4144EB1C444FEA124722EA074C05FB4F
:1044A00007F206FB07F70CFB06F616EB074642EB96
:1044B000174205FB0CFC16EB0C4642EB1C456A1838
:1044C00054F1000148BF7047B619524141EB010158
:1044D000A3F10103704795F0000F37D04FEA114266
:1044E00021EA02464FEA144724EA074C02FB07F18F
:1044F00006FB07F70CFB06F414EB074441EB1741EE
:1045000002FB0CFC14EB0C4441EB1C414FEA154739
:1045100025EA074C02FB07F506FB07F70CFB06F63E
:1045200016EB074645EB174502FB0CFC16EB0C4659
:1045300045EB1C42121951F1000148BF7047B619F2
:10454000524141EB0101A3F1010370474FEA1445C9
:1045500024EA05464FEA114721EA074C05FB07F11B
:1045600006FB07F70CFB06F212EB074241EB174183
:1045700005FB0CFC12EB0C4251EB1C414FF000060A
:1045800048BF7047921841EB0101A3F10103704746
:10459000490050EAC12018BF04204A0D18BF40F05E
:1045A000010040F2FF72B2EB515F08BF40F0020021
:1045B000012808BF0520704730380A2801D20120A1
:1045C000704700207047000010B500290AD0087815
:1045D000002807D005487844FCF7AAFE002801D03F
:1045E000002010BD0248784410BD0000BA01000050
:1045F000B201000010B500290AD00878002807D0C1
:1046000005487844FCF794FE002801D0002010BD36
:104610000248784410BD0000AA010000A201000079
:10462000FCF790BAFCF7C4BB0000000000000000DB
:1046300030313233343536373839414243444546D8
:1046400040305800303132333435363738396162D2
:1046500063646566403078000400000800000000D4
:1046600000000002000100001030313233343536D2
:10467000373839616263646566787000303132338F
:1046800034353637383941424344454658500000A6
:1046900002400000000000A00000000005400000F3
:1046A000000000C8000000000C4000000000409C1A
:1046B00000000000194000000020BCBE0000000007
:1046C00034400000BFC91B8E00000004B54000004C
:1046D000504BCFD06607E2CF010000006C410000D4
:1046E0003E8251AADFEEA73401000000D94200004B
:1046F000DCB5A0E23A301F97FFFFFFFFB445000092
:10470000FD25A0C8E9A3C14FFFFFFFFFFF3F000049
:104710000000008000000000FF3F0000000000805B
:10472000000000000000000000000000010203047F
:104730000607080900000000010203040203040543
:10474000060708090A0B0C0D0E0F10100102487520
:104750006D69203A200054656D70203A2000526542
:104760006164792000256425642E25640000000022
:10477000C0480008000000202000000028010008B8
:10478000E04800082000002018070000440100084D
:104790001C00000043000000F8FFFFFF0C000000B9
:1047A0000E0000000F0000002E00000010010000AD
:1047B00043000000F8FFFFFF004040404040404001
:1047C00040404141414141404040404040404040E4
:1047D0004040404040404040400502020202020288
:1047E00002020202020202020220202020202020D7
:1047F00020202002020202020202909090909090EB
:1048000010101010101010101010101010101010A8
:10481000101010100202020202028888888888881C
:104820000808080808080808080808080808080808
:104830000808080802020202400000000000000010
:104840000000000000000000000000000000000068
:104850000000000000000000000000000000000058
:104860000000000000000000000000000000000048
:104870000000000000000000000000000000000038
:104880000000000000000000000000000000000028
:104890000000000000000000000000000000000018
:1048A0000000000000000000000000000000000008
:1048B00000000000000000000000000000000000F8
:1048C0000024F40000191B060C1B1300181806091D
:1048D00008090600010000001000000000000000B0
:04000005080000ED02
:00000001FF
