:020000040800F2
:100000004817002035020008E13C000805340008CC
:10001000DD3C0008C1130008214200080000000078
:10002000000000000000000000000000113E000879
:100030000917000800000000513D0008713F00084A
:100040004F0200084F0200084F0200084F0200084C
:100050004F0200084F0200084F0200084F0200083C
:100060004F0200084F0200084F0200084F0200082C
:100070004F0200084F0200084F0200084F0200081C
:100080004F0200084F0200084F0200084F0200080C
:100090004F0200084F0200084F0200084F020008FC
:1000A0004F0200084F0200084F0200084F020008EC
:1000B0004F0200084F0200081D4000084F020008D0
:1000C0004F0200084F0200084F0200084F020008CC
:1000D0004F0200084F0200084F0200084F020008BC
:1000E0004F0200084F0200084F02000800F002F81B
:1000F00000F090F80AA090E8000C82448344AAF132
:100100000107DA4501D100F085F8AFF2090EBAE82F
:100110000F0013F0010F18BFFB1A43F0010318473B
:100120000865000028650000103A24BF78C878C12F
:10013000FAD8520724BF30C830C144BF04680C60ED
:10014000704700000023002400250026103A28BF35
:1001500078C1FBD8520728BF30C148BF0B60704739
:100160006E2900F06581702900F0A782662906F0EB
:100170008B81652906F08881672906F085816129D0
:1001800006F0848103681B0A28BF41F080016929B9
:1001900000F01281642900F00F81752900F00C81B4
:1001A0006F2900F03582782900F07382E92900F088
:1001B000CF81E42900F0CC81F52900F0C981EF2935
:1001C00000F03282F82900F072820368DB0928BF50
:1001D00041F08001632900F07387732900F078876C
:1001E000E32900F08387F32900F088870020704717
:1001F0001FB500F0D9FF04000020002105F032FFF8
:10020000401C60600020002105F016FFE0601FBD6B
:1002100010B510BD00F09AFF1146FFF7E9FF04F09A
:100220006FF801F077F803B4FFF7F2FF03BC01F0B9
:10023000BFF800000948804709480047FEE7FEE78D
:10024000FEE7FEE7FEE7FEE7FEE7FEE7FEE7FEE786
:1002500004480549054A064B70470000194000084C
:10026000ED00000848110020481700204813002026
:10027000481300200FB41CB5084B06AA7B446946FE
:100280000090059800F0EDF804460020694600F063
:10029000FBF820461CBC5DF814FB000009020000BE
:1002A0004FF0000200B5134694469646203922BF0F
:1002B000A0E80C50A0E80C50B1F12001BFF4F7AF5A
:1002C000090728BFA0E80C5048BF0CC05DF804EB3C
:1002D000890028BF40F8042B08BF704748BF20F8AA
:1002E000022B11F0804F18BF00F8012B70477047A8
:1002F0007047704770B5044685690068C10601D52E
:10030000302600E02026C00707D070BDD4E90121C7
:1003100030469047206A401C20626D1EF6D570BDA5
:1003200070B5044685690078C00707D170BDD4E96F
:10033000012120209047206A401C20626D1EF6D5C6
:1003400070BD09684A0501D540B27047C905FCD5A2
:1003500000B2704709684A0501D5C0B27047C905A7
:10036000FCD580B2704770B50C460546012A05D011
:100370002878800600D5EA69002302E0012305E021
:100380005B1C934202D2E05C0028F9D1A869E61810
:10039000C01AA861286A184428622846FFF7AAFFF5
:1003A00004E0D5E9012114F8010B9047B442F8D3D9
:1003B0002846FFF7B5FF70BD2DE9F0410646002441
:1003C00010687529314616A510D0FFF7BAFF00282E
:1003D00002DA404213A507E031688A0701D512A569
:1003E00002E0490704D511A5012401E0FFF7B2FF9F
:1003F00000210A2206F1240709E0B0FBF2FCB0FB61
:10040000F2F302FB1C00303078541846491C0028D7
:10041000F3D123462A463046BDE8F04100F061BAE8
:10042000000000002D0000002B0000002000000054
:1004300011680268006A530501D508700AE0D30507
:1004400001D5088006E0130603D5C217C1E90002F2
:1004500000E008600120704701694A1C02610878C9
:10046000704700B58FB0CDE90131002105910549F4
:100470007944CDE903101146684600F029F90FB020
:1004800000BD0000E5FFFFFF0A6802F8010B0A60EB
:10049000704700002DE9FF5F15468A460446DFF8E5
:1004A000AC80F8440027D8E900103E46CDE90010A2
:1004B00010E03AF816106A4602A800F023FE411C2C
:1004C00007D02178890603D5E269391891420DD801
:1004D0000744761C2078800602D5E069B84205DD25
:1004E000AE42E6DB3AF816000028E2D1A069C01B54
:1004F000A0612046FFF7FEFED8E90010CDE900100C
:10050000002017E03AF818106A4602A800F0FAFD39
:10051000B0F1FF3F81460BD000250DF1080B05E03F
:10052000D4E901211BF8050090476D1C4D45F7D318
:1005300008F10100B0428046E4DB206A38442062C2
:100540002046FFF7EDFEBDE8FF9F0000EA5F0000D8
:100550002DE9F0418046D21D22F007020025D2E9A4
:100560000002F52915A614D0011E72F1000106DA69
:100570000023D0EB030063EB020211A608E0D8F8D9
:1005800000108B0701D50FA602E0490701D50EA682
:1005900001251146002408F1240704E000F05CF96D
:1005A00030323A55641C50EA0102F7D12B463246EC
:1005B00021464046BDE8F04100F093B9000000003C
:1005C0002D0000002B0000002000000030B40021AE
:1005D00000F1240408E002F00705D208303542EAB1
:1005E0004372DB086554491C52EA0305F3D10468E1
:1005F000002310A2250708D504F020040C4304D0E2
:10060000C46901230CA2641EC46130BC00F069B946
:1006100010B5044621461068FFF79CFE02462046AE
:10062000BDE810400023D1E7D21D22F00701D1E937
:100630000023CBE70000000030000000F0B40D46BE
:100640000188090502D5214C7C4402E01F4C7C4402
:100650000E34002100F1240608E002F00F07120911
:10066000E75D42EA03721B097754491C52EA03070B
:10067000F3D102780023120704D5702D06D009B1FA
:10068000022311342246F0BC00F02BB901231034B0
:10069000F8E770B504460D4621461068FFF75AFE8C
:1006A000024629462046BDE870400023C6E7D21D19
:1006B00022F00703D3E90023C0E70368126843F080
:1006C000200303600823C3610023B7E74C5E0000EA
:1006D0002DE9F05F894604464FF0000ADFF874B157
:1006E000FB44C0F820A02046E1688847002874D069
:1006F000252806D0D4E901219047206A401C2062B9
:10070000F1E700265F462046E16888472028054635
:1007100007DB312D05D2781910F8200C08B10643FB
:10072000F1E7B00701D526F00406C4F81CA00027A5
:10073000C4F818A02A2D09D0284605F075FC38B356
:1007400004EB8708303DC8F8185019E059F8041B2D
:10075000204604EB87029161E1688847012F054636
:1007600018D1E069002820DA26F020061DE0D8F82C
:10077000180000EB800005EB40003038C8F8180086
:100780002046E1688847054605F04EFC0028EED17A
:10079000012F0AD02E2D08D12046E16888477F1C02
:1007A0000546022F46F02006C4DBA069002803DAC4
:1007B000404246F00106A061F00701D026F0100685
:1007C0006C2D0BD0682D09D04C2D39D06A2D35D029
:1007D000742D35D07A2D33D016E038E0E1682F46FD
:1007E00020468847B842054609D16C2F26D04FF4E1
:1007F0008060E168064320468847054604E06C2F88
:100800001AD04FF4807006430DB3A5F141001928AA
:1008100002D8203546F400664A462946204626601E
:100820004E46FFF79DFC80B101280BD0F61D26F047
:10083000070000F1080956E74020E4E78020D8E7E8
:100840000020D6E706F104094DE7284652E7206A62
:10085000BDE8F09FDC5D000030B5B0F10A0271F137
:1008600000034FEA900E4EEA817EB0EB0E0061EB82
:1008700091014FEA101E4EEA017E10EB0E0041EB93
:1008800011114FEA102E4EEA016E10EB0E0041EBF3
:1008900011214FEA104E4EEA014E10EB0E0041EBD3
:1008A0001141401841F100014FEAD00040EA417087
:1008B0004FEAD1014FEA810444EA907410EB8005BD
:1008C00044EB01046D1944EB0404521BA3414FF0A7
:1008D000000348BF0A3200D530BD401C41F1000181
:1008E00030BD2DE9F0470D4699469246044600F189
:1008F00024080168880604D5E06921F01001216010
:1009000000E00120A84201DD471B00E00027A169AB
:100910007A1902EB0900081AA0612078C00602D4F7
:100920002046FFF7E7FC002608E0D4E901211AF889
:1009300006009047206A401C761C20624E45F4DB7E
:100940002078C0060AD52046FFF7D4FC06E0D4E99B
:10095000012130209047206A401C2062381EA7F1F8
:100960000107F4DC07E0D4E9012118F805009047FD
:10097000206A401C2062281EA5F10105F3DC2046F8
:10098000FFF7CEFC2078000602D50220BDE8F087F4
:100990000120FBE72DE9FF4F0C461E464FF0FF37C5
:1009A0008BB0D2E90001DDF860800A908A46C1F37D
:1009B0000A5505B93D46002108464FF00000BAF13E
:1009C000000F00F4400005DA00EB80004FF4400116
:1009D00001EA50004FEA9059B9F1010F00DDB94624
:1009E0000A9850EA4A000ED044F61050A5F2FF359E
:1009F00045432F14B8F1000F1ED07542291E1EDD8D
:100A0000C9F100021CE0B8F1010F4FF0000001D065
:100A1000302103E0F24305E02154401CB042FBDBEF
:100A200030460022002121540B99C1F80880C1E909
:100A300000200FB0BDE8F08FBD1B6D1CDEE74A46FD
:100A400000DA694206A800F0F3FB06AB93E8070062
:100A500003AB83E8070050460A9904F009FF8DE8CC
:100A60000700A0F500501F3800900398002D0ADD04
:100A700042F21F014A460844002303A90390684636
:100A800005F072F909E0A0F500504A461F3800232E
:100A900003A90390684605F07CF98DE8070000047F
:100AA000000C03D04FF0FF30410800E01046B8F1D1
:100AB000000F03D00022009215461EE0751E05D4DB
:100AC000FFF7CAFE303262556D1EF9D5B3460122DA
:100AD000084302D000227F1C04E02078302801D196
:100AE00000227F1E002A099784D01DE0112D07DA0D
:100AF000FFF7B2FE303262556D1C50EA0102F5D1AB
:100B0000084302D00098C8B10EE00021681E05E03D
:100B1000235C625C63542254401E491C8142F7DB13
:100B2000AB46A81B401E0990002004F80B000B9850
:100B3000099AC0F80880C0E9002B7AE711264FF027
:100B4000000857E72DE9F04F88460446D21D22F0F1
:100B5000070191B0D1E90001CDE90A0105F050FA91
:100B600002460B98C00F01D02D2007E020688107B6
:100B700001D52B2002E0202101EAC000032A0990C0
:100B800001D0072A05DB03464146204600F010FB52
:100B90000BE12078800601D5E06900E00620B8F17D
:100BA000650F814606D0B8F1660F18D0B8F1670F0F
:100BB00070D131E00020B9F1110F009001DB112359
:100BC00001E009F101030AAA01A90CA8FFF7E2FE5E
:100BD000DDE90C70002609F10105834647E001209C
:100BE0004B4600904FF000470AAA01A90CA8FFF756
:100BF000D1FEDDE90DB00C995D46002610B909F172
:100C000001000D18B9EB050003D4C0F1FF3609F15E
:100C10000105A5EB09002BE0B9F1010F01DA4FF056
:100C200001090020B9F1110F0090484601DD1123A0
:100C300000E003460AAA01A90CA8FFF7ABFEDDE914
:100C40000C704D4600268346207800070AD4AB4539
:100C500000DA5D4601A8012D04DD411911F8011CDF
:100C6000302907D04F4502DA17F1040F04DA0120CA
:100C700082460FE06D1EEEE7002F02DCED1B3E44C6
:100C800003E0781CA84200DD7D1CB81B00F1010ABE
:100C90004FF000472078000703D4AA4501DB4FF04E
:100CA000FF3A0021B7F1004F0DF143088DF84310D2
:100CB00024D002202B23002F01DA7F422D230A218A
:100CC000021EA0F1010000DC5FB197FBF1FC97FB75
:100CD000F1F201FB1C7C17460CF1300C08F801CD39
:100CE000EEE7A8F1010003702188090501D545212F
:100CF00000E06521A0F1010800F8011C09980FA986
:100D0000A1EB0807FF1D00B10120411901EBEA70BA
:100D1000A1693844081A401EA0612078C00602D498
:100D20002046FFF7E7FA099828B1D4E90121904756
:100D3000206A401C20622078C00622D52046FFF79A
:100D4000D9FA1EE0002E04DBB34502DD01A8805D68
:100D500000E03020D4E901219047206A401C206245
:100D6000761CAAF101005FEA000A0AD100F01CFA21
:100D7000C0680168405CD4E901219047206A401CAA
:100D80002062281EA5F10105DCDC07E0D4E9012181
:100D900018F8010B9047206A401C2062381EA7F10A
:100DA0000107F3DC2046FFF7BBFA032011B041E650
:100DB0002DE9F04F04460D46D21D22F0070089B000
:100DC000D0E900974846394605F01AF90246F80F6F
:100DD00001D02D2307E02068810701D52B2302E0F5
:100DE000202101EAC0038DF820300BB1012000E082
:100DF0000020032A824601D0072A04DB2946204628
:100E000000F0D6F93FE12078800601D40D2500E0FE
:100E1000E569C7F30A560D2D49DA00214FEA175B41
:100E200008464FF00000002F00F4400007DA00EB06
:100E300080004FF4400100EBD07001EA60008115A2
:100E4000012901DD4FF0FF3100224FEA850CBCF192
:100E5000180F06D31346ACF118004FF08052C24071
:100E600003E04FF4801323FA0CF30CF10C0CBCF1EB
:100E7000200F04D3ACF1200C09FA0CF001E007FAC2
:100E80000CF000294FF0004801DD18B90FE00ED139
:100E900040450CD319EB02095F4121B9404502D10D
:100EA0009F4329EA0209BBEB175F00D0761C20881C
:100EB000000502D57B48784402E07A487844193826
:100EC00008AA302302F80A30037C0AF10101002E3F
:100ED0000AF1020A53546A4602DC4FF0300101E085
:100EE0004FF031014FF001088DF8001002D0A6F24A
:100EF000FF3603E059EA470100D06B4E002D02DCBB
:100F00002178090704D54FF002082E218DF8011031
:100F1000C44600210BE0C7F303433F01C35C491CF7
:100F20006D1E02F80830052908F1010801DA002DCC
:100F3000F1DC00210CE000EB1973491C1B786D1EDD
:100F4000082902F808304FEA091908F1010801DA06
:100F5000002DF0DC21688B0602D516E0A8F101080F
:100F6000E04505DD02EB080313F8013C302BF5D01A
:100F7000B8F1000F09DD02EB080313F8013C2E2B3A
:100F800003D1090701D4A8F10108002D05DD3E2198
:100F900002F808106D1E08F10108407C002E02F8CE
:100FA000080008F1010804DA2D20764202F8080052
:100FB00002E02B2002F808000A214FF47A708642E2
:100FC00008F101080BDB96FBF0F3303302F8083030
:100FD00096FBF0F308F1010800FB136601E0642EB4
:100FE0000CDB642096FBF0F3303302F8083096FBFC
:100FF000F0F308F1010800FB136601E00A2E06DB9E
:1010000096FBF1F0303002F8080008F1010896FB79
:10101000F1F001FB1060303002F80800A16908F11E
:10102000010808EB050202EB0A00081AA06120780B
:10103000C00602D42046FFF75DF9216A08AE01EB35
:101040000A00206204E0D4E9012116F8010B904760
:10105000BAF1010AF7D22078C00602D52046FFF780
:1010600049F96E4609E016F8010B3E280FD0D4E985
:1010700001219047206A401C2062B8F10108F2D299
:101080002046FFF74DF909B00320BDE8F08F206A34
:101090002844206203E0D4E90121302090476D1EEE
:1010A000EBD3F8E72A56000002FCFFFF10B54369B6
:1010B00013B1AFF3008001E0FFF755F9012010BD37
:1010C000127800F124010A7000224A700122EDE733
:1010D00011684FF0FF32E9E710B5436913B1AFF380
:1010E000008001E0FFF7D6F9012010BD128800F161
:1010F000240182840022C2840122EDE711684FF0AE
:10110000FF32E9E72DE9F04116460C46054600F0AE
:1011100043F8036893F80101012807D0FF2C12D887
:10112000185D80B101202C70BDE8F081D3F8070173
:101130003246214603F20713C7182846BC46BDE8CD
:10114000F041002360474FF0FF30EDE7754600F0B7
:10115000EBF8AE4605006946534620F00700854689
:1011600018B020B5FFF774F8BDE820404FF0000636
:101170004FF000074FF000084FF0000BAC46ACE812
:10118000C009ACE8C009ACE8C009ACE8C00921F06E
:1011900007018D467047000010B500F005F8001DEE
:1011A00010BD00BFC14E0000004870474000002045
:1011B0002DE9F0411F46044603260168072A01F481
:1011C000006004DB08B116A505E016A503E008B130
:1011D00015A500E015A521F010002060A069C01E33
:1011E000A0610FB1401EA0612046FFF783F84FB108
:1011F000D4E9012138469047206A401C2062C01C77
:10120000206206E0206AFAE7D4E9012115F8010B13
:101210009047761EF8D22046FFF782F8BDE8F081AD
:101220004E414E006E616E00494E4600696E66008A
:101230002DE9F047814616468AB0354878440DC8F6
:101240008DE80D0032487844801C03AC0DC884E85A
:101250000D0041F69B300844372190FBF1F290FBE2
:10126000F1F5A5F1800501FB12041B3C02D5644297
:10127000012000E00020DFF898A080460027FA4413
:10128000AAF1BE0A0EE0E0070AD03246684607EB34
:10129000470101230AEB810104F07BFD8DE8070083
:1012A00064107F1C002CEED1194F7F44AE3F19E033
:1012B000E80715D007EB04100DF1180A90E80E00AE
:1012C0008AE80E00C068F04201D1981908903246B1
:1012D000012306A903A804F05CFD03AB83E8070023
:1012E0006D10641C002DE3D14FF0010332466946B6
:1012F000B8F1000F03A802D004F036FD01E004F0BD
:1013000048FDC9E90001C9F808200AB0BDE8F08726
:101310003453000010B50446AFF300802046BDE80A
:101320001040FEF780BF00000048704720000020FA
:101330004FF0013C50F8042B51F8043B9A4221D164
:10134000A2EB0C03934313EACC1317D150F8042BF0
:1013500051F8043B9A4215D1A2EB0C03934313EAD4
:10136000CC130BD150F8042B51F8043B9A4209D10D
:10137000A2EB0C03934313EACC13DBD04FF0000035
:10138000704700BFD01A01BAB1FA81F101F018011B
:1013900022FA01F0CB40DBB2C0B2C01AC1F1200189
:1013A0002CFA01F3D11A914311EAC311E6D1704727
:1013B00001491820ABBEFEE726000200704700007E
:1013C000FFE7FEE780B582B00190019801F04EFD85
:1013D00002B080BD82B00190ADF8021001980168A2
:1013E00000204862FFE701980068406ABDF80210DB
:1013F000884201D2FFE7F6E702B0704780B582B0BD
:10140000019001984068FFF7DDFF02B080BD000049
:1014100080B582B00190ADF8021001984068BDF827
:101420000210FFF7D7FF02B080BD000080B586B084
:1014300084460898CDF814C08DF8131003920293D7
:10144000ADF806009DF81300012805D1FFE70599C6
:1014500044F2506008800AE09DF81300022805D18C
:10146000FFE7059942F6E0600880FFE7FFE7029892
:1014700005998860BDF8060005994880039805998C
:1014800048600598FFF7BAFF06B080BD80B584B00C
:101490000390002000908DF80B00039800F0B6F840
:1014A00000980190FFE70198072834DCFFE7FFE789
:1014B000039800F035F808B9FFE7F9E70398282109
:1014C000FFF7A6FF039800F02BF860B9FFE701983B
:1014D000C0F10701012000FA01F19DF80B008843DB
:1014E0008DF80B000BE00198C0F10701012000FA14
:1014F00001F19DF80B0008438DF80B00FFE7FFE7B3
:10150000039800F00DF808B1FFE7F9E7FFE701984D
:1015100001300190C7E79DF80B0004B080BD0000CA
:1015200080B582B0019001998868498800F0E6FA98
:1015300002B080BD80B586B005900020ADF80A00ED
:10154000059800F08FF80598FFF7A0FF8DF81100BF
:101550000598FFF79BFF8DF810000598FFF796FFA1
:101560008DF813000598FFF791FF8DF8120005988C
:10157000FFF78CFFADF80A00BDF80A009DF81110C6
:101580009DF8102011449DF8132011449DF812205D
:101590001144884235D1FFE79DF81200ADF80E00E6
:1015A0009DF81000ADF80C009DF8110005998873A6
:1015B0009DF810000599C8739DF8130005990873EC
:1015C0009DF8120005994873BDF80E0004F0ECFE7A
:1015D000002200920023C4F22403019304F08AFD48
:1015E00004F056FD05990861BDF80C0004F0DCFE1E
:1015F000009A019B04F07EFD04F04AFD05994861C4
:10160000FFE79DF80A0006B080BD000080B586B0F7
:10161000059000200490039002900190059949885C
:1016200001910290012003900598806801A900F0C3
:10163000D5F806B080BD000080B586B005900020CA
:101640000490039002900190059840880190012039
:101650000290022004900598806801A900F0BEF86D
:1016600006B080BD80B584B00390002001908DF855
:101670000B000398FFF7E0FF0199039800F036F89C
:10168000039844F62061FFF7C3FE0398012100F0A0
:101690002DF803981E21FFF7BBFE0398FFF7B6FF56
:1016A00003982821FFF7B4FE0398FFF739FF90B99C
:1016B000FFE703985021FFF7ABFE0398FFF730FFD9
:1016C00020B1FFE701208DF80B0003E000208DF82A
:1016D0000B00FFE7FFE7FFE70398FFF721FF08B1E3
:1016E000FFE7F9E79DF80B0004B080BD80B582B03C
:1016F00001908DF803100199886849889DF80320AE
:1017000000F014FA02B080BD7047000080B540F2CE
:10171000FC00C2F2000001F0A9FB80BD81B0009086
:1017200040F2FC00C2F20000016800204862FFE7BE
:1017300040F2FC00C2F200000068406A0099884252
:1017400001D2FFE7F4E701B07047000081B0EFF38A
:10175000108072B60090FFE7FEE7000080B582B00F
:101760008DF807009DF8070040F2A001C2F20001C9
:10177000097808438DF8060069460A20086040F29F
:10178000A800C2F200004E210DF10602012300F074
:101790003DFB02B080BD000080B584B0039000F036
:1017A000DDF90290039801900198013048B1FFE7FC
:1017B00040F21400C2F20000017801980844019040
:1017C000FFE7FFE700F0CAF90299401A0199884241
:1017D00001D2FFE7F6E704B080BD000090B00F90A3
:1017E0000E9100200D900990FFE70E9800680D996A
:1017F000C840002800F07F81FFE70D990120884054
:101800000C900E9800680C9908400B900B980C995E
:10181000884240F06C81FFE70E98406805900028F0
:1018200051D0FFE7059801283AD0FFE70598022834
:101830003FD0FFE7059803285FD0FFE70598112800
:1018400032D0FFE70598122838D0FFE7059800212D
:10185000C1F21101884236D0FFE705980021C1F29C
:10186000120188422FD0FFE705980021C1F2210123
:10187000884228D0FFE705980021C1F22201884262
:1018800021D0FFE705980021C1F2310188421AD02A
:10189000FFE705980021C1F23201884213D02FE002
:1018A0000E98C06809902CE00E98C068043009902A
:1018B00027E00E98C0680830099022E00E98C068B2
:1018C0000C3009901DE00E98806818B9FFE70420DD
:1018D000099011E00E988068012806D1FFE70820E2
:1018E00009900C980F99086105E0082009900C9860
:1018F0000F994861FFE7FFE703E00020099000E04F
:10190000FFE70B98FF2803D8FFE70F98049003E048
:101910000F9804300490FFE7049808900B98FF2874
:1019200004D8FFE70D988000039006E00D996FF052
:101930001F0000EB81000390FFE7039807900898D1
:101940000068079A0F219140884309999140084304
:10195000089908600E98C079C006002840F1C6803A
:10196000FFE7FFE741F21800C4F20200016841F00E
:1019700001010160006800F0010006900698FFE791
:101980000D9820F003000821C4F2010140580A908C
:101990000D9800F0030081000F2000FA01F10A9871
:1019A00088430A900F9840F60001C4F20101884272
:1019B00003D1FFE70020029026E00F9840F6004197
:1019C000C4F20101884203D1FFE70120019018E031
:1019D0000F9841F20001C4F20101884203D1FFE7F0
:1019E000022000900AE00F9941F20042C4F2010285
:1019F0000420914208BF03200090FFE70098019067
:101A0000FFE701980290FFE702980D9901F00301AA
:101A1000890000FA01F10A9808430A900A980D9982
:101A200021F003010822C4F2010288500E98807947
:101A3000C006002809D5FFE70B9A40F20841C4F21E
:101A4000010108681043086008E00B9A40F2084161
:101A5000C4F20101086890430860FFE70E9880799E
:101A60008006002809D5FFE70B9A40F20C41C4F22A
:101A7000010108681043086008E00B9A40F20C412D
:101A8000C4F20101086890430860FFE70E9880796E
:101A90008007002809D5FFE70B9A40F20441C4F201
:101AA000010108681043086008E00B9A40F2044105
:101AB000C4F20101086890430860FFE70E9880793E
:101AC000C00748B1FFE70B9A40F20041C4F20101A0
:101AD00008681043086008E00B9A40F20041C4F225
:101AE0000101086890430860FFE7FFE7FFE70D98F2
:101AF00001300D9079E610B07047000082B001907F
:101B0000ADF8021001988068BDF80210084204D0B8
:101B1000FFE701208DF8010003E000208DF80100AF
:101B2000FFE79DF8010002B07047000082B001900D
:101B3000ADF802108DF801209DF8010028B1FFE7F3
:101B4000BDF802000199086105E0BDF8020000043B
:101B500001990861FFE702B07047000040F6446059
:101B6000C2F200000068704780B58EB00C900C98EF
:101B700020B9FFE701208DF8370043E10C9890F879
:101B80003D0040B9FFE70C99002081F83C000C981B
:101B900000F040FAFFE70C99242081F83D000C98F2
:101BA0000168086820F0010008600C980168086866
:101BB00040F4004008600C980168086820F4004078
:101BC000086000F0C3FC0A900C98406848F2A061DD
:101BD000C0F2010188420BD8FFE70A9948F280421F
:101BE000C0F21E020020914238BF012009900AE095
:101BF0000A9940F60012C0F23D020020914238BF1F
:101C000001200990FFE70998012804D1FFE701208E
:101C10008DF83700F6E00A984DF68361C4F21B3167
:101C2000A0FB0110800C0B900C980068406820F01D
:101C30003F000B9908430C99096848600C980068AC
:101C4000006A20F03F0008900C98406848F2A061BC
:101C5000C0F20101884204D8FFE70B9801300790D9
:101C60000EE00B984FF49671484344F6D351C1F2FD
:101C70006201A0FB0101012000EB91100790FFE73A
:101C80000898079908430C99096808620C9800683D
:101C9000C0694CF6FF71884306900C98406848F282
:101CA000A061C0F2010188421FD8FFE70A980138FD
:101CB0000C9949684900B0FBF1F001306FF31F3017
:101CC000032803D8FFE7042005900BE00A980138A9
:101CD0000C9949684900B0FBF1F001306FF31F30F7
:101CE0000590FFE7059804904CE00C98806868B96F
:101CF000FFE70A9801380C99496801EB4101B0FBF4
:101D0000F1F001306FF31F3003900DE00A980138B5
:101D10000C99496819225143B0FBF1F001300421BC
:101D200061F31F300390FFE70398000518B9FFE740
:101D30000120029023E00C98806868B9FFE70A98B8
:101D400001380C99496801EB4101B0FBF1F0013019
:101D50006FF31F3001900DE00A9801380C99496823
:101D600019225143B0FBF1F00130042161F31F301F
:101D70000190FFE7019840F400400290FFE70298CD
:101D80000490FFE70698049908430C990968C86114
:101D90000C980068006820F0C0000C9B1968DA6994
:101DA0001B6A1A43104308600C980068806848F268
:101DB000FF3188430C9A1168D36812691A431043A3
:101DC00088600C980068C06820F0FF000C9B1968C0
:101DD0005A699B691A431043C8600C9801680868E7
:101DE00040F0010008600C99002008640C9A202142
:101DF00082F83D100C9908630C9981F83E008DF82B
:101E00003700FFE79DF837000EB080BD80B588B081
:101E1000DDF828C00690ADF816100492ADF80E302B
:101E2000FFF79CFE0290069890F83D00202840F0B5
:101E3000E980FFE7069802996A4611600221C0F224
:101E400010010122192301F0F1FB20B1FFE702206C
:101E50008DF81F00DAE0FFE7069890F83C000128B3
:101E600004D1FFE702208DF81F00CFE00699012082
:101E700081F83C00FFE7FFE7069800680068C007AC
:101E800038B9FFE706980168086840F0010008606B
:101E9000FFE706980168086820F40060086006996A
:101EA000212081F83D000699102081F83E00069916
:101EB00000200864049806994862BDF80E0006994F
:101EC00048850698408D0699088506990020CFF62A
:101ED000FF70C8620698BDF816100A9A029B01F0BE
:101EE000C5FA20B1FFE701208DF81F008EE0FFE763
:101EF00000200190069800684069019006980068EB
:101F0000806901900198FFE7FFE70698008D00289F
:101F100060D0FFE706980A99029A01F0B5FC80B1FB
:101F2000FFE70698006C042807D1FFE706980168D0
:101F3000086840F400700860FFE701208DF81F007A
:101F400064E006980168406A007808610699486A6A
:101F5000013048620699488D013848850699088DF8
:101F60000138088506980068406900F004010120E6
:101F7000B0EB910F16D1FFE70698008D90B1FFE707
:101F800006980168406A007808610699486A01303D
:101F900048620699488D013848850699088D0138B0
:101FA0000885FFE706980A99029A01F0E9FA80B1DC
:101FB000FFE70698006C042807D1FFE70698016840
:101FC000086840F400700860FFE701208DF81F00EA
:101FD0001CE09AE706980168086840F40070086001
:101FE0000699202081F83D000699002081F83E00E6
:101FF000FFE70699002081F83C00FFE700208DF8FC
:102000001F0003E002208DF81F00FFE79DF81F006E
:1020100008B080BD80B588B007900020069005907C
:10202000049003900798006845F20041C4F2000153
:1020300088422CD1FFE7FFE741F21800C4F202000A
:10204000016841F008010160006800F0080002909A
:102050000298FFE7C020039012200490032006900E
:1020600040F60040C4F2010003A9FFF7B7FBFFE709
:1020700041F21C00C4F20200016841F40011016049
:10208000006800F4001001900198FFE7FFE708B036
:1020900080BD000040F21400C2F20000027840F659
:1020A0004461C2F2000108681044086070470000F3
:1020B00080B542F20001C4F20201086840F010004D
:1020C0000860032000F0DEF80F2000F005F800F0B3
:1020D0007BF8002080BD000080B58CB00B90002004
:1020E000049003908DF80700FFE741F21C00C4F252
:1020F0000200016841F004010160006800F0040082
:1021000000900098FFE706A802A900F0EFF90998EF
:102110000490049820B9FFE700F018FA059004E055
:1021200000F014FA40000590FFE705984DF6836132
:10213000C4F21B31A0FB01014FF0FF3000EB9140D6
:10214000039040F24410C2F2000040F60001C4F2D5
:102150000001016040F2E731C16003994160002154
:1021600001618160816100F015FE8DF807009DF826
:10217000070028BBFFE740F24410C2F2000000F065
:10218000C7FE8DF807009DF80700C0B9FFE71E20C5
:1021900000F054F80B980F280CD8FFE70B991E207D
:1021A000002200F055F80B9840F21801C2F200012D
:1021B000086003E001208DF80700FFE7FFE7FFE775
:1021C0009DF807000CB080BD80B584B0FFE741F2F8
:1021D0001800C4F20200016841F0010101600068CA
:1021E00000F0010003900398FFE7FFE741F21C00B5
:1021F000C4F20200016841F080510160006800F003
:10220000805002900298FFE76FF001000F2100223A
:1022100000F01EF8FFE70421C4F2010108680190F4
:10222000019820F0E0600190019840F0007001906A
:1022300001980860FFE704B080BD000080B582B05F
:102240008DF807009DF9070001F0FAFF02B080BD8C
:1022500080B586B08DF8170004910392002002909B
:1022600002F006F802909DF9170001900298049977
:10227000039A01F037FD0146019802F001F806B01B
:1022800080BD000080B582B00190019802F01AF87C
:1022900002B080BD80B584B002900191029820B94F
:1022A000FFE701208DF80F001BE1019842F20001C9
:1022B000C4F20201096801F00701884216D9FFE75C
:1022C00042F20000C4F20200016821F00701019A05
:1022D00011430160006800F007000199884204D0B2
:1022E000FFE701208DF80F00FBE0FFE70298007880
:1022F000800700282AD5FFE70298007840070028C9
:1023000009D5FFE741F20401C4F20201086840F474
:10231000E0600860FFE7029800780007002809D510
:10232000FFE741F20401C4F20201086840F4605082
:102330000860FFE741F20401C4F20201086820F0DE
:10234000F000029A926810430860FFE70298007854
:10235000C007002860D0FFE70298406801280ED12E
:10236000FFE741F20000C4F2020000688003002889
:1023700004D4FFE701208DF80F00B2E021E00298BD
:10238000406802280ED1FFE741F20000C4F20200CB
:1023900000688001002804D4FFE701208DF80F00B9
:1023A0009FE00DE041F20000C4F2020000688007E7
:1023B000002804D4FFE701208DF80F0091E0FFE72B
:1023C000FFE741F20401C4F20201086820F00300B3
:1023D000029A526810430860FFF7C0FB0090FFE7C5
:1023E00041F20400C4F20200006800F00C000299FF
:1023F0004968B0EB810F0ED0FFE7FFF7AFFB009904
:10240000401A41F28931884204D3FFE703208DF856
:102410000F0066E0E4E7FFE7019842F20001C4F232
:102420000201096801F00701884216D2FFE742F273
:102430000000C4F20200016821F00701019A114373
:102440000160006800F007000199884204D0FFE7AE
:1024500001208DF80F0044E0FFE702980078400764
:1024600000280CD5FFE741F20401C4F2020108681C
:1024700020F4E060029AD26810430860FFE70298F7
:102480000078000700280DD5FFE741F20401C4F2EF
:102490000201086820F46050029A126940EAC20002
:1024A0000860FFE700F064F841F20401C4F20201A1
:1024B0000968C9B20A0946F2C451C0F60001895C34
:1024C000C84040F20001C2F20001086040F218006A
:1024D000C2F200000068FFF7FFFD00208DF80F003A
:1024E000FFE79DF80F0004B080BD000082B00190AE
:1024F000009101990F20086041F20400C4F202002B
:10250000016801F00301019A5160016801F0F001D6
:10251000019A9160016801F4E061019AD16000685C
:1025200000F46050C0080199086142F20000C4F252
:102530000200006800F007000099086002B07047D0
:1025400040F20000C2F200000068704780B5FFF75B
:10255000F7FF41F20401C4F202010968C1F302224B
:1025600046F2D451C0F60001895CC84080BD00002D
:1025700086B000200590049003900290019041F2F3
:102580000400C4F2020000680590059800F00C00F9
:102590000146009100283FD0FFE70098042804D0AE
:1025A000FFE70098082806D037E041F20020C0F28B
:1025B0007A00019037E00598C0F3834146F2DC5081
:1025C000C0F60000405C02909DF81600C007C0B144
:1025D000FFE741F20400C4F202000068C0F340418A
:1025E00046F2EC50C0F60000405C0490029841F2C4
:1025F0000021C0F27A0148430499B0FBF1F0039046
:1026000007E0029840F60011C0F23D0148430390F4
:10261000FFE70398019006E0FFE741F20020C0F2D7
:102620007A000190FFE7019806B0704780B586B048
:102630000490049820B9FFE701208DF817002EE3DD
:1026400004980078C007002800F0AE80FFE741F250
:102650000400C4F20200006800F00C00042813D04B
:10266000FFE741F20400C4F20200006800F00C0031
:1026700008281BD1FFE741F20400C4F20200006801
:10268000C003002812D5FFE741F20000C4F20200A7
:1026900000688003002808D5FFE70498406820B947
:1026A000FFE701208DF81700F9E27CE0FFE70498CE
:1026B0004068B0F5803F09D1FFE741F20001C4F264
:1026C0000201086840F48030086032E004984068F5
:1026D00068B9FFE741F20001C4F20201086820F482
:1026E00080300860086820F48020086020E00498AA
:1026F0004068B0F5A02F0DD1FFE741F20001C4F210
:102700000201086840F480200860086840F48030C6
:1027100008600CE041F20001C4F20201086820F4F4
:1027200080300860086820F480200860FFE7FFE739
:10273000FFE7FFE704984068D0B1FFE7FFF70EFA24
:102740000390FFE741F20000C4F20200006880033A
:1027500000280CD4FFE7FFF701FA0399401A652817
:1027600004D3FFE703208DF8170098E2EAE719E0A9
:10277000FFF7F4F90390FFE741F20000C4F2020012
:102780000068800300280CD5FFE7FFF7E7F90399FD
:10279000401A652804D3FFE703208DF817007EE276
:1027A000EAE7FFE7FFE7FFE70498007880070028E3
:1027B00040F18D80FFE741F20400C4F2020000689E
:1027C00010F00C0F13D0FFE741F20400C4F2020036
:1027D000006800F00C00082829D1FFE741F204004E
:1027E000C4F202000068C003002820D4FFE741F2D1
:1027F0000000C4F2020000688007002809D5FFE746
:1028000004980069012804D0FFE701208DF8170023
:1028100045E241F20001C4F20201086820F0F8002C
:10282000049A526940EAC2000860FFE74EE004984B
:10283000006958B3FFE70021C4F24221012008607B
:10284000FFF78CF90390FFE741F20000C4F20200A9
:102850000068800700280CD4FFE7FFF77FF9039991
:10286000401A032804D3FFE703208DF8170016E26F
:10287000EAE741F20001C4F20201086820F0F80022
:10288000049A526940EAC20008601EE00021C4F2C6
:10289000422100200860FFF761F90390FFE741F251
:1028A0000000C4F202000068800700280CD5FFE792
:1028B000FFF754F90399401A032804D3FFE70320D4
:1028C0008DF81700EBE1EAE7FFE7FFE7FFE7049881
:1028D00000780007002848D5FFE70498806918B3FE
:1028E000FFE740F28041C4F2422101200860FFF777
:1028F00035F90390FFE741F22400C4F202000068BA
:10290000800700280CD4FFE7FFF728F90399401A45
:10291000032804D3FFE703208DF81700BFE1EAE79F
:10292000012001F051FA1FE040F28041C4F242213F
:1029300000200860FFF712F90390FFE741F224003E
:10294000C4F202000068800700280CD5FFE7FFF7FB
:1029500005F90399401A032804D3FFE703208DF8F3
:1029600017009CE1EAE7FFE7FFE7049800784007DB
:10297000002840F1D880FFE700208DF8070041F2E1
:102980001C00C4F202000068C000002813D4FFE756
:10299000FFE741F21C00C4F20200016841F08051DF
:1029A0000160006800F0805000900098FFE701206F
:1029B0008DF80700FFE747F20000C4F2000000684E
:1029C000C005002822D4FFE747F20001C4F200014D
:1029D000086840F480700860FFF7C0F80390FFE7D4
:1029E00047F20000C4F200000068C00500280CD4C3
:1029F000FFE7FFF7B3F80399401A652804D3FFE710
:102A000003208DF817004AE1EAE7FFE7FFE70498A3
:102A1000C068012809D1FFE741F22001C4F2020198
:102A2000086840F00100086031E00498C06868B9A7
:102A3000FFE741F22001C4F20201086820F0010022
:102A40000860086820F0040008601FE00498C0686F
:102A500005280DD1FFE741F22001C4F20201086808
:102A600040F004000860086840F0010008600CE0D5
:102A700041F22001C4F20201086820F00100086060
:102A8000086820F004000860FFE7FFE7FFE7FFE7C2
:102A90000498C068E0B1FFE7FFF760F80390FFE734
:102AA00041F22000C4F202000068800700280ED422
:102AB000FFE7FFF753F80399401A41F28931884242
:102AC00004D3FFE703208DF81700E8E0E8E71BE0F8
:102AD000FFF744F80390FFE741F22000C4F2020040
:102AE0000068800700280ED5FFE7FFF737F8039945
:102AF000401A41F28931884204D3FFE703208DF860
:102B00001700CCE0E8E7FFE79DF80700012809D1AE
:102B1000FFE741F21C01C4F20201086820F0805076
:102B20000860FFE7FFE70498C069002800F0B38061
:102B3000FFE741F20400C4F20200006800F00C005C
:102B4000082800F08280FFE70498C06902285CD161
:102B5000FFE76021C4F2422100200860FEF7FEFF7B
:102B60000390FFE741F20000C4F202000068800118
:102B700000280CD5FFE7FEF7F1FF0399401A032860
:102B800004D3FFE703208DF8170088E0EAE70498F4
:102B9000006AB0F5803F0CD1FFE741F20401C4F2B6
:102BA0000201086820F40030049A9268104308601B
:102BB000FFE741F20401C4F20201086820F4741036
:102BC000049B1A6A5B6A1A43104308606021C4F2CE
:102BD000422101200860FEF7C1FF0390FFE741F2A8
:102BE0000000C4F202000068800100280CD4FFE756
:102BF000FEF7B4FF0399401A032804D3FFE703202C
:102C00008DF817004BE0EAE71EE06021C4F2422194
:102C100000200860FEF7A2FF0390FFE741F20000EA
:102C2000C4F202000068800100280CD5FFE7FEF71F
:102C300095FF0399401A032804D3FFE703208DF87A
:102C400017002CE0EAE7FFE724E00498C0690128B8
:102C500004D1FFE701208DF8170020E041F20400C5
:102C6000C4F2020000680290029800F480300499D7
:102C7000096A884208D1FFE7029800F470100499AD
:102C8000496A884204D0FFE701208DF8170006E06A
:102C9000FFE7FFE7FFE700208DF81700FFE79DF84B
:102CA000170006B080BD000081B0009001B07047F1
:102CB00081B0009001B0704785B003900291FFE7AA
:102CC000039890F83C00012804D1FFE702208DF81A
:102CD00013005BE00399012081F83C00FFE7FFE768
:102CE0000399022081F83D00039800684068019034
:102CF0000398006880680090019820F070000190AF
:102D000002980168019808430190019803990968A5
:102D100048600398006842F60041C4F2010188420D
:102D200018D0FFE703980068B0F1804F12D0FFE79A
:102D30000398006840F20041C4F20001884209D0C3
:102D4000FFE70398006840F60001C4F200018842E2
:102D50000ED1FFE7009820F08000009002984168B3
:102D60000098084300900098039909688860FFE77D
:102D70000399012081F83D00FFE70399002081F8C5
:102D80003C00FFE700208DF81300FFE79DF81300DB
:102D900005B0704780B582B00090009820B9FFE779
:102DA00001208DF807003FE0009890F83D0040B901
:102DB000FFE70099002081F83C00009800F038F807
:102DC000FFE70099022081F83D00009951F8040BBB
:102DD00001F02CF90099012081F84600FFE70099E5
:102DE000012081F83E00009981F83F00009981F8A8
:102DF0004000009981F84100FFE7FFE700990120BA
:102E000081F84200009981F84300009981F844005C
:102E1000009981F84500FFE70099012081F83D0005
:102E200000208DF80700FFE79DF8070002B080BD85
:102E300082B001900198006842F60041C4F201019D
:102E4000884210D1FFE7FFE741F21800C4F2020008
:102E5000016841F400610160006800F400600090C6
:102E60000098FFE7FFE702B07047000083B00190D1
:102E7000019890F83D00012804D0FFE701208DF86B
:102E80000B0041E00199022081F83D0001980068A3
:102E900042F60041C4F20101884218D0FFE70198D0
:102EA0000068B0F1804F12D0FFE70198006840F24F
:102EB0000041C4F20001884209D0FFE70198006890
:102EC00040F60001C4F20001884212D1FFE70198E8
:102ED0000068806800F0070000900098062807D07E
:102EE000FFE701980168086840F001000860FFE70B
:102EF00006E001980168086840F001000860FFE7FB
:102F000000208DF80B00FFE79DF80B0003B0704721
:102F100083B00190019890F83D00012804D0FFE7AC
:102F200001208DF80B0047E00199022081F83D0057
:102F300001980168C86840F00100C8600198006805
:102F400042F60041C4F20101884218D0FFE701981F
:102F50000068B0F1804F12D0FFE70198006840F29E
:102F60000041C4F20001884209D0FFE701980068DF
:102F700040F60001C4F20001884212D1FFE7019837
:102F80000068806800F0070000900098062807D0CD
:102F9000FFE701980168086840F001000860FFE75A
:102FA00006E001980168086840F001000860FFE74A
:102FB00000208DF80B00FFE79DF80B0003B0704771
:102FC00080B586B00490039100208DF80B00FFE7D8
:102FD000049890F83C00012804D1FFE702208DF806
:102FE0001700ABE00499012081F83C00FFE7FFE700
:102FF0000499022081F83D000498006880680190DF
:10300000019820F077000190019820F47F40019012
:103010000198049909688860039800680090002866
:1030200072D0FFE7009810286ED0FFE700982028A4
:103030006AD0FFE70098302866D0FFE70098402864
:1030400055D0FFE70098502837D0FFE70098602858
:1030500040D0FFE7009870280BD0FFE70098B0F54C
:10306000805F05D0FFE70098B0F5005F16D052E012
:1030700055E004980068039B5A689968DB6801F082
:103080004DF80498006880680190019840F077003E
:103090000190019804990968886040E004980068EC
:1030A000039B5A689968DB6801F038F80498016856
:1030B000886840F48040886031E004980068039A92
:1030C0005168D26801F05AF804980068502101F064
:1030D0003FF824E004980068039A5168D26801F030
:1030E00075F804980068602101F032F817E0049840
:1030F0000068039A5168D26801F040F804980068AB
:10310000402101F025F80AE0049800680399096855
:1031100001F01EF803E001208DF80B00FFE7049991
:10312000012081F83D00FFE70499002081F83C0070
:10313000FFE79DF80B008DF81700FFE79DF81700DB
:1031400006B080BD81B0009001B0704780B582B0FC
:10315000019001980068006900F002010020B0EBC6
:10316000510F28D0FFE701980068C06800F0020105
:103170000020B0EB510F1DD0FFE7019801686FF000
:1031800002000861019901200877019800688069B0
:10319000800720B1FFE70198FFF7D4FF06E0019810
:1031A00000F012F9019800F013F9FFE701990020EF
:1031B0000877FFE7FFE701980068006900F0040165
:1031C0000020B0EB910F29D0FFE701980068C0689C
:1031D00000F004010020B0EB910F1ED0FFE7019832
:1031E00001686FF0040008610199022008770198D6
:1031F0000068806910F4407F04D0FFE70198FFF772
:10320000A1FF06E0019800F0DFF8019800F0E0F877
:10321000FFE7019900200877FFE7FFE701980068C2
:10322000006900F008010020B0EBD10F28D0FFE7C3
:1032300001980068C06800F008010020B0EBD10FD1
:103240001DD0FFE7019801686FF00800086101993F
:103250000420087701980068C069800720B1FFE763
:103260000198FFF76FFF06E0019800F0ADF80198B4
:1032700000F0AEF8FFE7019900200877FFE7FFE7CD
:1032800001980068006900F010010020B0EB111FE8
:1032900029D0FFE701980068C06800F01001002005
:1032A000B0EB111F1ED0FFE7019801686FF010000E
:1032B000086101990820087701980068C06910F436
:1032C000407F04D0FFE70198FFF73CFF06E001983C
:1032D00000F07AF8019800F07BF8FFE701990020F0
:1032E0000877FFE7FFE7019800680069C00780B131
:1032F000FFE701980068C068C00748B1FFE7019880
:1033000001686FF001000861019800F065F8FFE7BF
:10331000FFE7019800680069C1B20020B0EBD11F3F
:1033200013D0FFE701980068C068C1B20020B0EB7D
:10333000D11F09D0FFE7019801686FF08000086194
:103340000198FFF7B1FCFFE7FFE70198006800690B
:1033500000F040010020B0EB911F14D0FFE701986E
:103360000068C06800F040010020B0EB911F09D058
:10337000FFE7019801686FF040000861019800F0D4
:103380003DF8FFE7FFE701980068006900F02001C1
:103390000020B0EB511F14D0FFE701980068C0680F
:1033A00000F020010020B0EB511F09D0FFE7019889
:1033B00001686FF0200008610198FFF779FCFFE7D2
:1033C000FFE702B080BD000081B0009001B07047FF
:1033D00081B0009001B0704780B582B00190019833
:1033E000006840F60001C4F20001884203D1FFE703
:1033F000FEF750FEFFE702B080BD000081B00090F4
:1034000001B07047FFE7FEE782B0009000980068C7
:10341000406900F480610120B0EB912F1ED1FFE7DD
:10342000009801686FF4806048610099002008638B
:10343000009A202182F83D10009981F83E00009901
:10344000086C40F004000864FFE70099002081F850
:103450003C00FFE701208DF8070003E000208DF815
:103460000700FFE79DF8070002B0704780B588B0FD
:103470000690ADF81610049203930698C06A029065
:103480000298082809D0FFE70298012805D0FFE735
:10349000029810F5803F07D1FFE706980168086899
:1034A00040F4807008600DE00698006B122807D188
:1034B000FFE706980168086840F48070086000E043
:1034C000FFE7FFE70698049B03996A4611604FF0F7
:1034D0000111002200F0AAF880B1FFE70698006809
:1034E0000068C005002805D5FFE706994FF4007075
:1034F0000864FFE703208DF81F003CE00698006990
:10350000B0F5804F08D1FFE7BDF8160000F0FE00CF
:103510000699096808611CE0BDF8160000F44070C7
:10352000C009F0300699096808610698049A039B5F
:103530000821C0F2010100F0FDF820B1FFE70120F1
:103540008DF81F0017E09DF81600069909680861BC
:10355000FFE70698049A039B0221C0F2010100F0E4
:10356000E9F820B1FFE701208DF81F0003E00020FB
:103570008DF81F00FFE79DF81F0008B080BD000018
:1035800080B584B0029001910092FFE70298006834
:10359000406900F004010020B0EB910F3ED1FFE73D
:1035A0000298FFF731FF20B1FFE701208DF80F00EF
:1035B00038E00198013080B3FFE7FEF7CFFA0099B9
:1035C000401A0199884203D8FFE7019820BBFFE722
:1035D00002980068406900F004010020B0EB910FF0
:1035E00019D1FFE7029900200863029A202182F88E
:1035F0003D10029981F83E000299086C40F02000CD
:103600000864FFE70299002081F83C00FFE70120F1
:103610008DF80F0006E0FFE7FFE7B7E700208DF821
:103620000F00FFE79DF80F0004B080BD80B588B0A3
:10363000DDF828C0069005918DF813200393FFE76D
:103640009DF8160001280CD1FFE706980068406934
:10365000BDF814100840401AB0FA80F040090290FA
:103660000BE0069800688069BDF814100840401A05
:10367000B0FA80F040090290FFE702989DF813101D
:1036800088424FD1FFE703980130002849D0FFE777
:10369000FEF764FA0A99401A0399884203D8FFE7B3
:1036A0000398E8BBFFE79DF8160001280CD1FFE75F
:1036B000069800684069BDF814100840401AB0FA36
:1036C00080F0400901900BE0069800688069BDF821
:1036D00014100840401AB0FA80F040090190FFE74A
:1036E00001989DF81310884219D1FFE70699002030
:1036F0000863069A202182F83D10069981F83E0061
:103700000699086C40F020000864FFE70699002045
:1037100081F83C00FFE701208DF81F0006E0FFE77D
:10372000FFE78DE700208DF81F00FFE79DF81F00E1
:1037300008B080BD80B588B00690059104920393CF
:10374000FFE79DF8160001280CD1FFE706980068F6
:103750004069BDF814100840401AB0FA80F04009E2
:1037600002900BE0069800688069BDF814100840CC
:10377000401AB0FA80F040090290FFE70298002852
:103780007AD1FFE706980068406900F48061012063
:10379000B0EB912F24D1FFE706980168086840F448
:1037A00000700860069801686FF4806048610699AF
:1037B00000200863069A202182F83D10069981F8BE
:1037C0003E000699086C40F004000864FFE7069983
:1037D000002081F83C00FFE701208DF81F004FE03A
:1037E00004980130002846D0FFE7FEF7B7F90399A7
:1037F000401A0499884203D8FFE70498D0BBFFE73A
:103800009DF8160001280CD1FFE706980068406972
:10381000BDF814100840401AB0FA80F04009019039
:103820000BE0069800688069BDF814100840401A43
:10383000B0FA80F040090190FFE70198C8B9FFE7AE
:10384000069900200863069A202182F83D10069907
:1038500081F83E000699086C40F020000864FFE7FC
:103860000699002081F83C00FFE701208DF81F0039
:1038700006E0FFE7FFE764E700208DF81F00FFE7A1
:103880009DF81F0008B080BD80B584B00290019102
:103890000092FFE7029800684069C1B20020B0EBD7
:1038A000D11F3DD1FFE70298FFF7AEFD20B1FFE742
:1038B00001208DF80F0037E00198013078B3FFE761
:1038C000FEF74CF90099401A0199884203D8FFE7A6
:1038D000019818BBFFE7029800684069C1B2002058
:1038E000B0EBD11F19D1FFE7029900200863029ABB
:1038F000202182F83D10029981F83E000299086C5F
:1039000040F020000864FFE70299002081F83C00A5
:10391000FFE701208DF80F0006E0FFE7FFE7B9E7BA
:1039200000208DF80F00FFE79DF80F0004B080BD68
:1039300080B5012000F0ACFA4FF4FA60FDF7EEFE1E
:1039400080BD000080B584B08DF80F0002919DF815
:103950000F0000F007008DF80F009DF80F104020B9
:1039600040EAC100C0B200F093FA00200190FFE7E6
:10397000019807280ADCFFE702980199405C00F0F3
:103980007BFAFFE7019801300190F1E704B080BDB8
:1039900080B540F2A100C2F20000017841F00401BC
:1039A0000170007840F0080000F072FA80BD00005D
:1039B00080B5022000F06CFA4FF4FA60FDF7AEFE1D
:1039C00080BD000080B584B08DF80F009DF80F1009
:1039D00040F2A400C2F20000017040F2A002C2F264
:1039E00000020821117040F2A202C2F2000200217E
:1039F00011700078022809DBFFE740F2A201C2F251
:103A00000001087840F00800087008E040F2A201C8
:103A1000C2F20001087840F004000870FFE7FDF7EB
:103A200075FE3220FDF7B8FE40F2A000C2F20000A1
:103A30000078FDF793FE4FF47A70FDF7ADFE30206D
:103A4000019000F0EFFB41F294100290FDF766FE4A
:103A5000019800F0E7FB0298FDF760FE019800F086
:103A6000E1FB0298FDF75AFE202000F0DBFB64200A
:103A7000FDF754FE40F2A200C2F20000007840F0D0
:103A8000200000F005FA40F2A101C2F2000104207A
:103A90000870FFF77DFFFFF74BFF40F2A300C2F273
:103AA000000002210170007840F0040000F0F0F9FD
:103AB0000298FDF733FE40F20401C2F2000100203B
:103AC000FFF740FF40F20C01C2F200010120FFF7B6
:103AD00039FFFFF76DFF04B080BD000080B582B0F4
:103AE0000190FFE70198007838B1FFE70198411C89
:103AF0000191007800F0C0F9F4E702B080BD000049
:103B000080B586B08DF817008DF8161054200490FB
:103B10001420039040200290002001909DF8160090
:103B200040F2A401C2F200010978884209DBFFE7F4
:103B300040F2A400C2F20000007801388DF81600AF
:103B4000FFE79DF817009DF8162001A951F82210F3
:103B5000084440F08000C0B200F09AF906B080BD81
:103B600080B58CB000200B900A9009900890FFE778
:103B700041F21800C4F20200016841F02001016026
:103B8000006800F0200007900798FFE7FFE741F288
:103B90001800C4F20200016841F0040101600068ED
:103BA00000F0040006900698FFE7FFE741F21800D6
:103BB000C4F20200016841F008010160006800F0F1
:103BC000080005900598FFE74FF40040089000209A
:103BD00002900990012001900A9003200B9040F67A
:103BE0000040C4F20100039008A90491FDF7F6FD1E
:103BF000019B029A039804994FF0380CCDF820C02D
:103C000009930A92FDF7EAFD0CB080BD80B582B041
:103C100040F2A800C2F20000019045F20041C4F257
:103C20000001016048F2A061C0F201014160002181
:103C30008160C1604FF48042026141618161C16174
:103C40000162FDF791FF18B1FFE7FDF77FFDFFE788
:103C500002B080BD80B588B0002100910791069127
:103C6000059104910391029140F2FC00C2F2000020
:103C7000019042F60042C4F2010202604722426013
:103C800081604FF6FE72C260016141618161FFF7A0
:103C900081F818B1FFE7FDF759FDFFE74FF48050B9
:103CA000049040F2FC00C2F2000004A9FFF788F97A
:103CB00018B1FFE7FDF74AFDFFE7002002900390EF
:103CC00040F2FC00C2F2000002A9FEF7F5FF18B1B5
:103CD000FFE7FDF73BFDFFE708B080BDFFE7FEE72C
:103CE000FFE7FEE788B0079006910592079800F07D
:103CF000070004900498C0F10700052803D3FFE7EC
:103D00000420019004E00498C0F107000190FFE74F
:103D10000198039004980430062803D8FFE7002098
:103D2000009003E0049803380090FFE700980290A9
:103D300006980399012202FA01F101390840029B19
:103D4000984005999A40013A1140084308B07047DD
:103D5000EFF30980BFF36F8F0D4B1A6820E9F00F66
:103D600010602DE908404FF0500080F3118801F0F9
:103D70005DFA4FF0000080F31188BDE80840196833
:103D80000868B0E8F00F80F30988BFF36F8F7047C1
:103D90008C01002080B582B08DF807009DF80700E7
:103DA00040F00400FDF7DAFC14200090FDF7B6FCAB
:103DB0009DF8070000F0FB00FDF7D0FC0098FDF730
:103DC000ADFC02B080BD000082B00190019840F2CD
:103DD0000001C2F200010968C90844F6D352C1F2D9
:103DE0006202A1FB0221890948430090FFE700BF5E
:103DF000FFE70098411E00910028F8D1FFE702B0CC
:103E000070470000000000000000000000000000FB
:103E1000074B19680868B0E8F00F80F30988BFF312
:103E20006F8F4FF0000080F311884EF00D0E704739
:103E30008C01002080B582B08DF807008DF8061047
:103E40009DF8070000F0F0008DF805009DF80700D0
:103E500000018DF804009DF805009DF80610084348
:103E600000F0E0F99DF804009DF80610084300F00A
:103E7000D9F902B080BD000080B582B08DF807008E
:103E80009DF807000121FFF7D5FF02B080BD0000BB
:103E900080B582B08DF807009DF807000021FFF77C
:103EA000C9FF02B080BD000080B584B00390FFE779
:103EB00040F28000C2F200000290FDF73BFB014699
:103EC000029840F2A502C2F200021170027B437B0D
:103ED00040F23220C2F2000046F20561C0F6000155
:103EE0000191FCF7C7F901990298827BC37B40F2EC
:103EF0002820C2F20000FCF7BDF94FF47A7000F000
:103F000081FAD5E780B584B00390FFE7FFF710FD95
:103F1000002100910846FFF7F3FD46F2F650C0F687
:103F20000000FFF7DBFD009907200190FFF7E8FD97
:103F300040F23220C2F20000FFF7D0FD00980121CC
:103F40000291FFF7DDFD46F2EE50C0F60000FFF7EC
:103F5000C5FD01980299FFF7D3FD40F22820C2F277
:103F60000000FFF7BBFD4FF47A7000F04BFACDE78D
:103F700080B582B04FF0500080F31188BFF36F8F8F
:103F8000BFF34F8F009001F0DBFA40B1FFE74EF630
:103F90000451CEF200014FF080500860FFE700208E
:103FA0000190019880F3118802B080BD80B590B077
:103FB00006A800902821FCF773F9009800230593C8
:103FC0000493039302930193012206924FF48031EC
:103FD000079108930A9202220D920E914FF4E0117C
:103FE0000F91FEF723FB18B1FFE7FDF7AFFBFFE7EB
:103FF0000F20019002210291002003904FF4806273
:104000000492059001A8FEF745F918B1FFE7FDF706
:104010009DFBFFE710B080BD7047000080B540F207
:104020004410C2F20000FFF791F880BD83B0029007
:104030000191029800680090029842F60041C4F293
:104040000101884215D0FFE70298B0F1804F10D0EF
:10405000FFE7029840F20041C4F20001884208D014
:10406000FFE7029840F60001C4F2000188420AD13D
:10407000FFE7009820F070000090019841680098D8
:1040800008430090FFE7029842F60041C4F20101A4
:10409000884215D0FFE70298B0F1804F10D0FFE7BB
:1040A000029840F20041C4F20001884208D0FFE7C4
:1040B000029840F60001C4F2000188420AD1FFE7ED
:1040C000009820F4407000900198C168009808435F
:1040D0000090FFE7009820F08000019949690843AB
:1040E0000090009802990860019880680299C8625F
:1040F0000198006802998862029842F60041C4F271
:104100000101884205D1FFE701980069029908631F
:10411000FFE702990120486103B0704785B0049021
:10412000039102920193049880680090009820F413
:104130007F40009003980299019A41EA02210143CD
:1041400000980843009000980499886005B0704773
:1041500083B002900191029880680090009820F04E
:104160007000009001980099084340F0070000900B
:1041700000980299886003B07047000085B00490F1
:10418000039102920498006A00900499086A20F052
:1041900001000862049880690190019820F0F00005
:1041A00001900299019840EA01100190009820F0D6
:1041B0000A00009003990098084300900198049920
:1041C000886100980499086205B0704785B0049032
:1041D000039102920498006A00900499086A20F002
:1041E00010000862049880690190019820F47040E2
:1041F00001900299019840EA01300190009820F066
:10420000A00000900399009840EA011000900198E6
:104210000499886100980499086205B0704700000D
:10422000FFE7FEE780B582B08DF807009DF8070034
:10423000FDF794FA9DF80700FFF7ACFD02B080BDD2
:1042400081B08DF803009DF9030000280ED4FFE72C
:104250009DF9031001F01F02012090404A094EF21F
:104260000011CEF2000141F82200FFE701B07047D3
:104270004EF60C50CEF200000068C0F302207047EA
:1042800082B08DF8070000919DF9070000280AD43C
:10429000FFE7009800019DF907104EF20042CEF2B0
:1042A000000288540BE0009800019DF8071001F00F
:1042B0000F014EF61452CEF200028854FFE702B00E
:1042C0007047000083B00290029800F00700009051
:1042D0004EF60C51CEF200010868019001984FF69D
:1042E000FF02104001900198009A40EA022000224B
:1042F000C0F2FA52104301900198086003B0704771
:10430000B0B592B0002002901190FDF7D1FEFFF7FA
:104310004DFEFFF725FCFFF79DFCFFF777FC022021
:10432000FFF750FB69464FF40040086040F2800000
:10433000C2F2000040F2FC02C2F20002012140F68B
:104340000043C4F20103FDF771F846F2FE50C0F6D7
:104350000000FFF7C3FB029946F28C50C0F6000044
:1043600002684368D0F808C0D0F80CE004694569D9
:104370000F950E94CDF834E0CDF830C00B930A922F
:10438000806910900AA800F057F8029940F298024C
:10439000C2F20002106046F2A850C0F600000268A7
:1043A0004368D0F808C0D0F80CE004694569089566
:1043B0000794CDF818E0CDF814C0049303928069F7
:1043C000099003A800F038F840F29C01C2F2000105
:1043D000086000F02BF8FFE7FEE7000082B0ADF8C0
:1043E000060000200090BDF90600842807D0FFE7F2
:1043F000BDF906000099084403300090FFE70098DB
:1044000002B0704780B584B0039003980290029880
:1044100018B1FFE70298019002E001200190FFE748
:10442000019800F05BFE002004B080BD80B500F074
:104430008DFE002080BD0000B0B590B00E900D91B3
:104440000E98406938B3FFE70E98806918B3FFE70C
:104450000E980168089141680B91016909910D99C5
:104460000A91B0F90800FFF7B9FF0899099A0A9B69
:1044700084460B98DDF838E0DEF81440DEF818507A
:10448000EE46CEF80850CEF80440CEF800C000F05A
:10449000F1FF0C9020E00E980168049141680791AB
:1044A000018A05910D990691B0F90800FFF796FF72
:1044B0000499059A069B84460798EE460CACCEF804
:1044C0000440CEF800C000F085FF012803D0FFE7CC
:1044D00000200F9003E0FFE70C980F90FFE70F9884
:1044E00010B0B0BD80B584B00390029141F23C1091
:1044F000C2F200000068009040F28C10C2F200008E
:104500000068043000F068FC88B9FFE740F28C10C6
:10451000C2F200000068C16A012000FA01F240F610
:104520005C61C2F2000108689043086000E0FFE7A8
:104530000398013080B9FFE7029868B1FFE740F2C5
:104540008C10C2F200000068011D41F21410C2F28A
:10455000000000F0D1FC3DE0009803990844019070
:10456000019840F28C11C2F200010968486001987C
:10457000009988420ED2FFE740F29810C2F2000084
:10458000006840F28C11C2F200010968043100F0A9
:104590007DFC1EE040F29010C2F20000006840F284
:1045A0008C11C2F200010968043100F06FFC01981F
:1045B00041F2EC01C2F200010968884207D2FFE72C
:1045C000019841F2EC01C2F20001086000E0FFE74F
:1045D000FFE7FFE704B080BD80B582B0019000F036
:1045E000A9FC40F64861C2F2000108680130086089
:1045F00040F28C10C2F20000006898B9FFE7019801
:1046000040F28C11C2F20001086040F64860C2F22C
:1046100000000068012803D1FFE700F0BFF900E0C7
:10462000FFE71CE041F20810C2F200000068A0B9E8
:10463000FFE740F28C10C2F200000068C06A0199E6
:10464000C96A884207D8FFE7019840F28C11C2F28C
:104650000001086000E0FFE700E0FFE7FFE740F649
:104660005861C2F200010868013008600198C16A0F
:10467000012000FA01F240F65C61C2F20001086814
:10468000104308600199C86A00EB800240F29C1058
:10469000C2F2000000EB8200043100F02DFC00F0BB
:1046A00075FC41F20810C2F200000068C8B1FFE7D3
:1046B00040F28C10C2F200000068C06A0199C96A19
:1046C00088420CD2FFE74EF60451CEF200014FF0C3
:1046D00080500860BFF34F8FBFF36F8F00E0FFE79C
:1046E00000E0FFE702B080BD80B582B0FFE740F692
:1046F0004C60C2F20000006808B3FFE700F01AFC4B
:1047000041F22810C2F20000C068C0680190019810
:10471000043000F061FB40F64861C2F20001086815
:104720000138086040F64C61C2F2000108680138A7
:10473000086000F02BFC019800F004F8D7E702B005
:1047400080BD000080B582B00090009890F85100C4
:1047500040B9FFE70098006B00F03EFC009800F0C5
:104760003BFC1CE0009890F85100012804D1FFE7C1
:10477000009800F031FC11E0009890F851000228F8
:104780000BD0FFE74FF0500080F31188BFF36F8F1D
:10479000BFF34F8F0190FFE7FEE7FFE7FFE702B0AF
:1047A00080BD000084B04FF44060009040F23C2097
:1047B000C2F2000001909DF80400400788B1FFE7B5
:1047C000019807300190019820F007000190019AAC
:1047D00040F23C21C2F200010098891A084400907E
:1047E000FFE701980290029941F20C10C2F200001A
:1047F0000160002141600298009A104401900198E4
:1048000008380190019820F007000190019A40F2C9
:104810009410C2F2000002600268516002681160E8
:10482000029903910199039A891A516000680399CA
:1048300008600398406841F2E801C2F20001086094
:104840000398406840F68C61C2F20001086040F6AF
:104850006061C2F200014FF00040086004B0704790
:1048600080B582B00190FFE7FFF73EFF40F29C1059
:10487000C2F20000006802280CD3FFE74EF6045194
:10488000CEF200014FF080500860BFF34F8FBFF3AE
:104890006F8F00E0FFE7E7E780B588B0DDF834C050
:1048A000DDF830C0DDF82CC0DDF828C00690059199
:1048B000049203930C98006B049900EB8100043878
:1048C0000290029820F0070002909DF8080040072F
:1048D00058B1FFE74FF0500080F31188BFF36F8F9E
:1048E000BFF34F8F0790FFE7FEE700200190FFE73F
:1048F00001980F2813D8FFE70598019A805C0C995E
:10490000114481F8340005980199405C08B9FFE72B
:1049100005E0FFE7FFE7019801300190E8E70C9917
:10492000002081F843000A98072803D3FFE70620F8
:104930000A9000E0FFE70A980C99C8620A980C995F
:1049400048640C990020009088640C98043000F0B2
:1049500095FA0C98183000F091FA00980C990961BA
:104960000A99C1F107010C9A91610C9949620C995D
:10497000C8640C9981F8500002980699039A00F0D7
:1049800003FA0C9908600B9820B1FFE70C980B997B
:10499000086000E0FFE708B080BD000080B584B08B
:1049A00000200390FFE70398062810D8FFE703983C
:1049B00000EB800140F29C10C2F2000000EB81008D
:1049C00000F044FAFFE7039801300390EBE740F66C
:1049D0006460C2F20000019000F038FA40F678609E
:1049E000C2F20000029000F031FA41F2F400C2F28B
:1049F000000000F02BFA41F22810C2F2000000F093
:104A000025FA41F21410C2F2000000F01FFA0199D9
:104A1000029840F29012C2F20002116040F2981126
:104A2000C2F20001086004B080BD000083B00290B3
:104A300041F20C10C2F200000190FFE701980068FB
:104A40000299884205D2FFE7FFE7019800680190CC
:104A5000F4E7019800900098019949680844029988
:104A6000884209D1FFE702984268019948681044DA
:104A700048600198029000E0FFE7029800900098DB
:104A800002994968084401990968884220D1FFE7E2
:104A90000198006840F29411C2F20001096888424E
:104AA0000DD0FFE7019800684268029948681044F9
:104AB00048600198006800680299086007E040F2C9
:104AC0009410C2F20000006802990860FFE704E059
:104AD0000198006802990860FFE7019802998842EE
:104AE00004D0FFE702980199086000E0FFE703B0F7
:104AF0007047000006480068006880F3088862B6C6
:104B000061B6BFF34F8FBFF36F8F00DF00BF0000B0
:104B100008ED00E081B040F29010C2F200000068A1
:104B2000006840B9FFE741F2EC01C2F200014FF02A
:104B3000FF3008600FE040F29010C2F20000006801
:104B4000C068C06800900098406841F2EC01C2F271
:104B500000010860FFE701B07047000083B000204B
:104B6000009040F21C00C2F200000068013058B111
:104B7000FFE74FF0500080F31188BFF36F8FBFF352
:104B80004F8F0290FFE7FEE74FF0500080F311884F
:104B9000BFF36F8FBFF34F8F0190FFE7009808B905
:104BA000FFE7FBE703B0704780B58AB006900020AE
:104BB000029000F033FB40F29410C2F20000006853
:104BC00018B9FFE7FFF7EEFD00E0FFE7069840F6B3
:104BD0006061C2F200010968084240F0BE80FFE750
:104BE000069800B3FFE70698083006909DF8180075
:104BF0004007B0B1FFE7069820F0070008300690A4
:104C00009DF81800400758B1FFE74FF0500080F3BF
:104C10001188BFF36F8FBFF34F8F0990FFE7FEE757
:104C200000E0FFE700E0FFE70698002800F093802F
:104C3000FFE7069840F68C61C2F2000109688842DD
:104C400000F28980FFE741F20C10C2F200000490EC
:104C500000680590FFE705984168069A0020914298
:104C6000019007D2FFE705980068002818BF0120CF
:104C70000190FFE70198C00730B1FFE70598049065
:104C8000059800680590E6E7059840F29411C2F295
:104C90000001096888425CD0FFE70498006808308A
:104CA0000290059800680499086005984068069984
:104CB000401A112821D3FFE705980699084403906C
:104CC0009DF80C00400758B1FFE74FF0500080F30B
:104CD0001188BFF36F8FBFF34F8F0890FFE7FEE798
:104CE000059840680699401A039948600698059906
:104CF00048600398FFF79AFE00E0FFE705984268D6
:104D000040F68C60C2F200000168891A01600068F8
:104D100041F2E801C2F20001096888420BD2FFE7C4
:104D200040F68C60C2F20000006841F2E801C2F275
:104D30000001086000E0FFE740F66060C2F200009A
:104D4000026805994868104348600599002008608A
:104D500000E0FFE700E0FFE700E0FFE700F0CCFC49
:104D60009DF80800400758B1FFE74FF0500080F36E
:104D70001188BFF36F8FBFF34F8F0790FFE7FEE7F8
:104D800002980AB080BD000083B0029001910092A9
:104D900002980438029002994FF0807008600298DF
:104DA00004380290019820F00100029908600298EE
:104DB00004380290029944F65D30C0F600000860A5
:104DC00002981438029000980299086002982038DE
:104DD0000290029803B0704782B001900198006978
:104DE00000900198416880688860019948688968E6
:104DF0004860009840680199884205D1FFE7019812
:104E000080680099486000E0FFE701990020086190
:104E100000990868013808600098006802B070477F
:104E200083B0029001910092029941F29400C2F283
:104E300000000860019940F69060C2F2000008602E
:104E400000998020086003B07047000081B0009096
:104E5000009901F10800486000994FF0FF30886028
:104E6000009901F10800C860009901F1080008618B
:104E700000990020086001B07047000081B00090E8
:104E800000990020086101B07047000084B00390D1
:104E900002910298006800900098013020B9FFE765
:104EA00003980069019010E0039808300190FFE733
:104EB0000198406800680099884205D8FFE7FFE73D
:104EC000019840680190F3E7FFE701984068029974
:104ED0004860029841688860019802998860029849
:104EE00001994860039802990861039908680130A4
:104EF000086004B07047000083B0029001910298EE
:104F00004068009000980199486000988068019975
:104F100088600198009989684860019800998860C4
:104F2000029801990861029908680130086003B08D
:104F30007047000082B04FF0500080F31188BFF33B
:104F40006F8FBFF34F8F019040F21C00C2F2000040
:104F50000168013101600068012814D1FFE74EF6B5
:104F60000450CEF200000068000658B1FFE74FF091
:104F7000500080F31188BFF36F8FBFF34F8F009005
:104F8000FFE7FEE7FFE702B07047000082B040F2A3
:104F90001C00C2F20000006858B9FFE74FF0500053
:104FA00080F31188BFF36F8FBFF34F8F0090FFE73F
:104FB000FEE740F21C00C2F2000001680139016006
:104FC000006830B9FFE700200190019880F3118854
:104FD000FFE702B07047000080B586B003900398E9
:104FE00002900398002855D0FFE7029808380290F5
:104FF000029801900198406840F66061C2F2000199
:10500000096808420BD1FFE74FF0500080F3118888
:10501000BFF36F8FBFF34F8F0590FFE7FEE7019857
:10502000006858B1FFE74FF0500080F31188BFF3DC
:105030006F8FBFF34F8F0490FFE7FEE70198406842
:1050400040F66061C2F200010968084220D0FFE723
:1050500001980068D0B9FFE740F66060C2F2000036
:105060000268019948689043486000F0D7F80198B9
:10507000426840F68C61C2F2000108681044086082
:105080000198FFF7D3FC00F037FB00E0FFE700E0FA
:10509000FFE7FFE706B080BD4EF21001CEF200013F
:1050A000002008604EF21802CEF20002106040F2BA
:1050B0000000C2F20000006844F6D352C1F262025E
:1050C000A0FB02024FF0FF3000EB92104EF21402F0
:1050D000CEF20002106007200860704780B584B0EF
:1050E0000290002001900298E0B1FFE740F6546082
:1050F000C2F20000006858B1FFE74FF0500080F3A3
:105100001188BFF36F8FBFF34F8F0390FFE7FEE768
:1051100000F084F802980021FFF7E4F900F0ECFABF
:10512000019000E0FFE7019860B9FFE74EF60451F7
:10513000CEF200014FF080500860BFF34F8FBFF3F5
:105140006F8F00E0FFE704B080BD000080B58AB03B
:10515000002003900690059006A805A904AAFFF771
:105160005FFE039B049A0599DDF818C06846C0F8F5
:1051700008C04160036044F66100C0F6000046F2DA
:105180002161C0F6000100F075F9014641F290007E
:10519000C2F200000160006818B1FFE7012007902B
:1051A00002E000200790FFE70798012823D1FFE7DE
:1051B0004FF0500080F31188BFF36F8FBFF34F8F14
:1051C000099041F2EC01C2F200014FF0FF3008609B
:1051D00041F20811C2F200010120086041F23C11C5
:1051E000C2F200010020086000F080F808B1FFE77B
:1051F00000E0FFE70FE00798013058B9FFE74FF0F4
:10520000500080F31188BFF36F8FBFF34F8F08906A
:10521000FFE7FEE7FFE70AB080BD000040F65461FB
:10522000C2F20001086801300860704785B040F69E
:105230005460C2F20000006838B1FFE741F240114B
:10524000C2F20001012008604DE041F24011C2F2BB
:1052500000010020086040F65C60C2F200000068B7
:1052600004900498B0FA80F08DF80F009DF80F00BC
:10527000C0F11F000190019800EB800140F29C10EA
:10528000C2F2000050F8210058B9FFE74FF050007B
:1052900080F31188BFF36F8FBFF34F8F0290FFE74A
:1052A000FEE7019800EB800140F29C10C2F2000082
:1052B00000EB8100009000994868406848600099C0
:1052C00048680831884205D1FFE70099486840687E
:1052D0004860FFE700984068C06840F28C11C2F255
:1052E00000010860FFE705B07047000080B586B098
:1052F0004EF20040CEF20000039001780491FF21AD
:10530000017000788DF80B009DF80B0000F0500044
:1053100040F63C61C2F20001087040F64061C2F202
:10532000000107200860FFE79DF80B000006002839
:105330000DD5FFE740F64061C2F200010868013870
:1053400008609DF80B0040008DF80B00ECE740F67C
:105350004060C2F20000006803280BD0FFE74FF066
:10536000500080F31188BFF36F8FBFF34F8F05900C
:10537000FFE7FEE740F64061C2F200010868000264
:105380000860086800F4E060086004984EF200418C
:10539000CEF2000108704EF62051CEF200010868EE
:1053A00040F470000860086840F070400860FFF743
:1053B00073FE40F21C01C2F200010020019008605F
:1053C000FFF798FBFFF732FFFFF7C8FB019806B025
:1053D00080BD000070B58CB0DDF844C0DDF840C081
:1053E0000B900A91ADF826200893BDF826008000A6
:1053F000FFF7DAFB0590059880B1FFE75420FFF72F
:10540000D3FB0790079820B1FFE705980799086339
:1054100003E00598FFF7E0FDFFE702E000200790BA
:10542000FFE70798F0B1FFE70798002680F8516082
:105430000B980A99BDF82620089BDDF840C0119C06
:10544000079DEE46CEF80C60CEF80850CEF804402A
:10545000CEF800C0FFF720FA0798FFF7BDF801204B
:10546000069003E04FF0FF300690FFE706980CB07F
:1054700070BD0000B0B58EB0DDF850C0DDF84CC096
:10548000DDF848C00A90099108920793139858B91B
:10549000FFE74FF0500080F31188BFF36F8FBFF329
:1054A0004F8F0D90FFE7FEE7149858B9FFE74FF0D4
:1054B000500080F31188BFF36F8FBFF34F8F0C90B4
:1054C000FFE7FEE754200490049854280BD0FFE730
:1054D0004FF0500080F31188BFF36F8FBFF34F8FF1
:1054E0000B90FFE7FEE7149820B3FFE7139808B38B
:1054F000FFE714980690139806990863069902200E
:1055000081F851000A980999089A079BDDF848C06C
:10551000069CEE460025CEF80C50CEF8084005ACAF
:10552000CEF80440CEF800C0FFF7B6F90698FFF7B2
:1055300053F802E000200590FFE705980EB0B0BDDB
:1055400080B586B00020029040F65460C2F20000A0
:105550000068002840F0BA80FFE741F23C11C2F237
:10556000000108680130019001980860019858BB5B
:10557000FFE740F29010C2F200000068006858B1E6
:10558000FFE74FF0500080F31188BFF36F8FBFF338
:105590004F8F0590FFE7FEE740F29012C2F2000243
:1055A0001068009040F29811C2F200010868106083
:1055B0000098086041F2F001C2F200010868013071
:1055C0000860FFF7A7FA00E0FFE7019841F2EC015D
:1055D000C2F200010968884262D3FFE7FFE740F2A8
:1055E0009010C2F200000068006840B9FFE741F285
:1055F000EC01C2F200014FF0FF3008604FE040F2D2
:105600009010C2F200000068C068C068049004985E
:105610004068039001980399884207D2FFE70398F6
:1056200041F2EC01C2F20001086038E0FFE70498A3
:105630000430FFF7D1FB0498806A28B1FFE7049893
:105640001830FFF7C9FB00E0FFE70498C16A0120AA
:1056500000FA01F240F65C61C2F2000108681043F2
:1056600008600499C86A00EB800240F29C10C2F204
:10567000000000EB82000431FFF73EFC0498C06A92
:1056800040F28C11C2F200010968C96A884203D352
:10569000FFE70120029000E0FFE7FFE79FE7FFE759
:1056A00040F28C10C2F200000068C06A00EB80017A
:1056B00040F29C10C2F2000050F82100022803D3EF
:1056C000FFE70120029000E0FFE707E040F65061AD
:1056D000C2F20001086801300860FFE741F24010A3
:1056E000C2F20000006818B1FFE70120029000E05C
:1056F000FFE7029806B080BD80B584B0002002901C
:10570000019040F65460C2F20000006858B9FFE70B
:105710004FF0500080F31188BFF36F8FBFF34F8FAE
:105720000390FFE7FEE7FFF705FC40F65460C2F286
:1057300000000168013901600068002840F0928093
:10574000FFE740F64860C2F200000068002800F061
:105750008880FFE7FFE741F2F400C2F20000006832
:10576000E0B3FFE741F2F400C2F20000C068C06895
:10577000029002981830FFF72FFB02980430FFF7D1
:105780002BFB0298C16A012000FA01F240F65C612D
:10579000C2F200010868104308600299C86A00EB71
:1057A000800240F29C10C2F2000000EB8200043143
:1057B000FFF7A2FB0298C06A40F28C11C2F200010E
:1057C0000968C96A884207D3FFE741F24011C2F273
:1057D00000010120086000E0FFE7BCE7029818B173
:1057E000FFE7FFF797F9FFE740F65060C2F20000CD
:1057F000006800900098E0B1FFE7FFE7FFF7A0FE28
:1058000038B1FFE741F24011C2F200010120086007
:1058100000E0FFE7009801380090FFE700980028BB
:10582000ECD1FFE740F65061C2F2000100200860B1
:1058300000E0FFE741F24010C2F20000006870B1E2
:10584000FFE7012001904EF60451CEF200014FF027
:1058500080500860BFF34F8FBFF36F8F00E0FFE70A
:10586000FFE700E0FFE7FFF791FB019804B080BD80
:105870005FEA400C08BF91F0000F4FEA8C234FEA1B
:10588000C12243EA51514FEA1C5018BF00F5F040C5
:105890004FEA300018BF41F000415FEA6C5C00F055
:1058A0002980BCF1FF3F08BF40F080407047130CD7
:1058B00006BF12044FF0100C4FF0000C130E04BF83
:1058C00012020CF1080C130F04BF12010CF1040CAE
:1058D000930F04BF92000CF1020CD30F04BF5200CF
:1058E0000CF1010C11464FF00002A0F11F00A0EBDB
:1058F0000C00704711F0004F08BF704731F00041B5
:105900003FF4D5AF0B0C06BF09044FF0100C4FF05D
:10591000000C0B0E04BF09020CF1080C0B0F04BFA6
:1059200009010CF1040C8B0F04BF89000CF1020C6F
:10593000CB0F04BF49000CF1010CCCF1200322FA7B
:1059400003F341EA030102FA0CF2A0EB0C0000F1B0
:105950000100704723F07F4720F07F4C80EA03006E
:1059600000F00040ACEB070303F57C5303F1FF03A9
:105970002DE9804909B44FEA144324EA03484FEA69
:10598000154B25EA0B4E0FF2042606EB13273E7843
:1059900003FB0667C7F5000707FB06F64FEAD64686
:1059A00006F102064FEA543707FB066CCCF1005CA7
:1059B0004FEA1C472CEA074C0CFB06F507FB06F4E4
:1059C00004EB15464FEA961649085FEA320234BFE7
:1059D00000204FF000404FEAD13706FB07FC4FEAAA
:1059E0001C4C0CFB0BF7D21B03FB0CF761EB070104
:1059F0000CFB0EF7B0EB074072EB17420CFB08F7FD
:105A000034BFA2EB0742B2EB074261EB17414FEA0A
:105A10000C444FEA910706FB07FC4FEA1C4C0CFBB9
:105A20000BF7B0EBC74072EB573203FB0CF734BFF8
:105A3000A2EBC742B2EBC74261EB57310CFB0EF74A
:105A4000B0EBC70072EB57720CFB08F734BFA2EB48
:105A5000C702B2EBC70261EB57714FEA816141EABD
:105A600092114FEA826242EA90124FEA806004EBA0
:105A7000CC04039F4FEAD13706FB07FC4FEA1C4CCE
:105A80000CFB0BF7D21B03FB0CF761EB07010CFBC4
:105A90000EF7B0EB074072EB17420CFB08F734BF70
:105AA000A2EB0742B2EB074261EB17414FEA8C557C
:105AB00004EB9C244FEA910706FB07FC4FEA1C4CC1
:105AC0000CFB0BF7B0EBC74072EB573203FB0CF744
:105AD00034BFA2EBC742B2EBC74261EB57310CFBBC
