:020000040800F2
:100000006816002089010008650F00085D0F0008D0
:10001000610F000845020008791000080000000088
:10002000000000000000000000000000C10F0008F8
:100030004902000800000000710F00083910000894
:10004000A3010008A3010008A3010008A301000800
:10005000A3010008A3010008A3010008A3010008F0
:10006000A3010008A3010008A3010008A3010008E0
:10007000A3010008A3010008A3010008A3010008D0
:10008000A3010008A3010008A3010008A3010008C0
:10009000A3010008A3010008A3010008A3010008B0
:1000A000A3010008A3010008A3010008A3010008A0
:1000B000A3010008A30100086D100008A3010008B7
:1000C000A3010008A3010008A3010008A301000880
:1000D000A3010008A3010008A3010008A301000870
:1000E000A3010008A3010008A301000800F002F822
:1000F00000F03AF80AA090E8000C82448344AAF188
:100100000107DA4501D100F02FF8AFF2090EBAE885
:100110000F0013F0010F18BFFB1A43F0010318473B
:10012000201F0000401F0000103A24BF78C878C18B
:10013000FAD8520724BF30C830C144BF04680C60ED
:10014000704700000023002400250026103A28BF35
:1001500078C1FBD8520728BF30C148BF0B60704739
:100160001FB51FBD10B510BD00F031F81146FFF7E7
:10017000F7FF00F083FF00F04FF803B4FFF7F2FF42
:1001800003BC00F057F800000948804709480047C1
:10019000FEE7FEE7FEE7FEE7FEE7FEE7FEE7FEE737
:1001A000FEE7FEE704480549054A064B7047000094
:1001B00069100008ED000008681000206816002093
:1001C000681200206812002070477047704775461B
:1001D00000F02CF8AE4605006946534620F00700B3
:1001E000854618B020B5FFF7DDFFBDE820404FF091
:1001F00000064FF000074FF000084FF0000BAC4630
:10020000ACE8C009ACE8C009ACE8C009ACE8C0097A
:1002100021F007018D46704710B50446AFF300800A
:100220002046BDE81040FFF7A8BF00000048704717
:100230001000002001491820ABBEFEE72600020096
:1002400070470000FEE70000704700002DE9F04F06
:1002500082B00E68002E00F0038141F20042C4F229
:100260000102042340F2004E904208BF03234FF6E0
:10027000FF7CC4F2010E009300240123C1F2100C94
:100280004FF0000A4FF0000949E000BF012704F0D9
:100290000C030F229A402BEA020207FA03F34FEAFB
:1002A0009A051A4346F82520D1F804B040F20C45CF
:1002B0005FEACB22DEF8082054BF22EA080242EAB5
:1002C0000802C4F20105CEF808202A685FEA8B23F1
:1002D00054BF22EA080242EA08022A605FEA8B332E
:1002E000DEF8042054BF22EA080242EA08025FEA6C
:1002F000CB33CEF80420DEF800204FF0010354BFCA
:1003000022EA080242EA0802CEF800200E680AF14A
:10031000010A36FA0AF204F1040400F0A18003FA9B
:100320000AF816EA080FF1D04E68664512DC122E64
:1003300056D8DFE806F0350B454955555555555506
:10034000555555555555554D510000BFD1F80C9098
:1003500046E000BF4FF6FF72C1F2210296420FDC69
:100360000022C1F2110296421AD00022C1F21202FA
:10037000964215D00022C1F22102964210D02FE001
:100380000022C1F2220296420AD00022C1F23102BA
:10039000964205D00022C1F23202964220D100BF1F
:1003A0008A684AB1012A14BFC0F81480C0F81080CE
:1003B0004FF0080914E000BF4FF0040910E000BF3F
:1003C000CA6802F108090BE04FF0000908E000BF1D
:1003D000CA6802F1040903E0CA6802F10C0900BF0F
:1003E00022460646BAF1080F24BF203A0436376881
:1003F0000F25954027EA050509FA02F22A433260E3
:10040000CA79D2067FF582AF41F21803C4F2020323
:100410001A68AEF57E7642F001021A601A6802F0A0
:1004200001020192019A2AF0030256F802B040F646
:100430000002C4F20102904210D040F60042C4F221
:10044000010290423FF422AF41F20002C4F20102E5
:10045000009F904208BF022719E700BF002716E758
:1004600002B0BDE8F08F0000C26802EA01039143C8
:1004700041EA034101617047002A08BF0904016194
:100480007047000040F61060C2F20000006870473C
:1004900040F2000040F61061C2F20000C2F200011A
:1004A00000780A68104408607047000080B542F286
:1004B0000000C4F20200016841F010010160032055
:1004C00000F0CEF80F2000F005F800F061F80020F1
:1004D00080BD0000B0B586B041F21C01C4F202013B
:1004E0000A68044642F004020A60096801A801F0A3
:1004F000040101910199694600F0A2F9049D002DC3
:1005000018BF012500F0BEF94DF68361A840C4F282
:100510001B31A0FB01014FF0FF3000EB914140F295
:100520003C1040F60002C2F20000C4F2000240F2A9
:10053000E7330025C0E90021C0E902530561856168
:1005400000F092FB054618B1284606B0B0BD00BFCA
:1005500040F23C10C2F2000000F0FEFB054600280D
:10056000F2D11E2000F03CF80F2C0DD81E202146A1
:100570000022002500F048F840F20400C2F200001A
:100580000460284606B0B0BD0125284606B0B0BDBF
:1005900080B582B041F21800C4F202000168002266
:1005A00041F001010160016801F00101019101992F
:1005B000416841F08051416040680F2100F0805057
:1005C000009000986FF0010000F01EF80420C4F2C3
:1005D00001000168022262F31A61016002B080BD6D
:1005E000002848BF7047C1B200F01F00012202FA84
:1005F00000F04EF20012CEF2000242EAD10121F0E8
:10060000030108607047000010B54EF60C5CCEF296
:10061000000CDCF80030C3F3022E8EF00704042C2B
:1006200028BF0424BEF103034FF0FF3E0EFA04F48A
:1006300038BF0023A14399400EFA03F39A431143B4
:1006400000F00F0200F160430901043A03F564432E
:100650006244002848BF02F10C03197010BD00006D
:100660004EF60C51CEF200010A684FF6FF031A4015
:1006700060F30A2242F0806040F0FD70086070472D
:100680002DE9F04381B0002800F0858042F2000897
:10069000C4F202080446D8F800000D4600F0070036
:1006A00088420CD2D8F8000020F007002843C8F890
:1006B0000000D8F8000000F00700A8426BD12068C5
:1006C00041F204098107C4F2020917D5410705D593
:1006D000D9F8001041F4E061C9F80010010705D510
:1006E000D9F8001041F46051C9F80010D9F8001091
:1006F000A26821F0F0011143C9F80010C00741D1F0
:10070000D8F8000000F00700A8420CD9D8F8000083
:1007100020F007002843C8F80000D8F8000000F0D7
:100720000700A84237D12068410707D5D9F8001043
:10073000E26821F4E0611143C9F80010000708D510
:10074000D9F80000216920F4605040EAC100C9F8DE
:100750000000D9F8002002F00C00082841F2002027
:10076000C0F27A0050D142F21403C2F38341C0F6C2
:100770000003595CD2033BD440F60010C0F23D00A8
:10078000484341E0606802280AD001282AD159F87C
:10079000041C890308D4012001B0BDE8F08300BF28
:1007A00059F8041C8901F6D5D9F8001021F003018D
:1007B0000843C9F80000FFF765FE064641F2883796
:1007C000D9F80000616800F00C00B0EB810F97D001
:1007D000FFF758FE801BB842F2D9032001B0BDE8F4
:1007E000F08300BF59F8041C8907D4D5DCE700BFAB
:1007F000D9F8002042F21203C2F34042C0F60003CF
:100800009A5C4843B0FBF2F0D9F8001041F6FA7256
:10081000C1F30311C0F60002515C40F2080220FA55
:1008200001F140F20400C2F200000068C2F20002CE
:100830001160FFF74FFE002001B0BDE8F08300001B
:100840000F22026041F20402C4F20202136803F0B4
:1008500003034360136803F0F0038360136803F439
:10086000E063C36012684FF4E06303EAD2020261FE
:1008700042F20000C4F20200006800F007000860C5
:100880007047000040F2080041F20401C2F200008B
:10089000C4F202010068096842F20A02C1F30221AF
:1008A000C0F60002515CC840704700002DE9F041DD
:1008B00082B0002868D00446007841F20006C007E4
:1008C000C4F2020625D0706800F00C0004281BD08A
:1008D000706800F00C00082802D17068C00313D4BF
:1008E0006068002800F06881B0F5A02F00F07C81DE
:1008F000B0F5803F00F07C81306820F480303060BB
:10090000306820F4802076E13068800301D560688B
:10091000D0B32078800718D5706810F00C0F07D07E
:10092000706800F00C0008286ED17068C0036BD4AA
:100930003068800702D52069012825D130686169B7
:1009400020F0F80040EAC1003060207800071FD492
:100950002078400732D4E56995B1706800F00C004A
:10096000082840F08F80012D0ED07068216A00F4B5
:1009700080328A4208D1616A00F47010884203D143
:10098000002002B0BDE8F081012002B0BDE8F08196
:10099000A069002862D00020C4F242200121C0F8E2
:1009A0008014FFF76FFD0546706A800700F18C80A8
:1009B000FFF768FD401B0228F6D92AE1F06910F024
:1009C000805808D1F06940F08050F061F06900F083
:1009D00080500090009847F20007C4F20007386882
:1009E000C00529D4386840F480703860FFF74AFDAC
:1009F000054600BF3868C0051ED4FFF743FD401B05
:100A00006428F7D905E100BF2069002840F2000002
:100A1000C4F2422000F0828001210160FFF732FD24
:100A2000054600BF306880073FF588AFFFF72AFD15
:100A3000401B0228F6D9ECE0E068002800F0808036
:100A4000052800F09780012800F09880306A20F097
:100A500001003062306A20F0040092E00020C4F20D
:100A600042200021C0F88014FFF70CFD054600BFAE
:100A7000706A80077FF56CAFFFF704FD401B02280A
:100A8000F6D9C6E00027C4F2422700203866FFF7F7
:100A9000F9FC022D05460BD13068800140F1BE8083
:100AA000FFF7F0FC401B02284FF00300F4D968E781
:100AB000306880017FF564AFFFF7E4FC401B02283B
:100AC0004FF00300F4D95CE740F20800C2F20000E6
:100AD000006844F6D351C1F26201A0FB0101480A4B
:100AE000019000BF00BF0198411E002801913FF412
:100AF0002FAF00BF0198411E002801913FF428AF9D
:100B000000BF0198411E002801913FF421AF00BFB2
:100B10000198411E00280191E4D119E700210160EC
:100B2000FFF7B0FC054600BF306880077FF50DAFCA
:100B3000FFF7A8FC401B02284FF00300F4D920E780
:100B4000306A20F001003062306A20F00400306228
:100B5000FFF798FC054641F2883700BF306A8007EE
:100B600020D5FFF78FFC401BB8424FF00300F5D9AA
:100B700007E700BF306A40F004003062306A40F09E
:100B800001003062FFF77EFC054641F2883700BF66
:100B9000306A800706D4FFF775FC401BB842F7D9CE
:100BA00037E000BFB8F1000F7FF4D5AEF06920F058
:100BB0008050F061CFE600BF306820F480303060B4
:100BC000306820F480203060FFF75CFC054600BFF1
:100BD000306880037FF59DAEFFF754FC401B64280E
:100BE0004FF00300F4D9CCE6306840F48020306048
:100BF000306840F480303060FFF744FC054600BFA9
:100C0000306880033FF585AEFFF73CFC401B64284D
:100C1000F6D9032002B0BDE8F08100BF206AB0F52C
:100C2000803F05D17168A26821F4003111437160E1
:100C30007168626A21F474111143084370600120E5
:100C40003866FFF71FFC0446306880013FF598AE18
:100C5000FFF718FC001B02284FF00300F4D990E6C0
:100C60007047000070470000002804BF0120704753
:100C700010B5044690F83D0028B9002084F83C00E7
:100C8000204600F067F8022084F83D00206840F21A
:100C9000FF730268C4F2000342F6004C9842C4F2AB
:100CA000010C15DCB0F1804F1AD040F20041C4F2C3
:100CB0000001884214D0984218DCB0F1804F1DD05A
:100CC00040F20041C4F20001884217D01AE000BF90
:100CD000604505D040F60001C4F200018842EAD127
:100CE000A16822F070020A439842E6DD604505D013
:100CF00040F60001C4F20001884203D1216922F4C8
:100D000040720A43A36922F08001D4F804E0E2684B
:100D1000194360450160C262C0F828E002D16169F0
:100D2000CCF8301001214161002084F8461084F88D
:100D30003E1084F83F1084F8401084F8411084F885
:100D4000421084F8431084F8441084F8451084F865
:100D50003D1010BD7047000090F83D1001291CBFE8
:100D600001207047022180F83D10006840F2FF72B8
:100D7000C168C4F20002904241F00101C16009DC87
:100D8000B0F1804F12D040F20041C4F2000188421D
:100D90000CD012E042F60041C4F20101884205D0B5
:100DA00040F60001C4F20001884206D1816801F0DA
:100DB0000701062904BF00207047016841F00101C6
:100DC00001600020704700007047000010B5016806
:100DD00004460869800744BFC8685FEA807039D458
:100DE0000869400744BFC8685FEA40703ED408699C
:100DF000000744BFC8685FEA007045D40869C006B0
:100E000044BFC8685FEAC0604AD40869C0071CBF15
:100E1000C8685FEAC07051D10869000644BFC8685D
:100E20005FEA006052D40869400644BFC8685FEAC0
:100E3000406053D40869800646BFC8685FEA806096
:100E400010BD6FF0200220460A61BDE81040FFF798
:100E500009BF00BF6FF00200086101202077886998
:100E6000800743D02046FFF7AFFF45E06FF0040056
:100E7000086102202077886910F4407F40D0204626
:100E8000FFF7A2FF42E000BF6FF0080008610420F6
:100E90002077C86980073DD02046FFF795FF3FE0E7
:100EA0006FF01000086108202077C86910F4407FB7
:100EB0003AD02046FFF788FF3CE000BF6FF001000A
:100EC0000861204600F03EF82168A5E76FF0800039
:100ED00008612046FFF7C4FE2168A4E76FF04000D8
:100EE0000861204600F038F82168A3E7204600F0AA
:100EF00025F8204600F024F82168002020776FE7CD
:100F0000204600F01BF8204600F01AF82168002067
:100F100020776CE7204600F011F8204600F010F82A
:100F200021680020207769E7204600F007F8204676
:100F300000F006F821680020207766E7704700007F
:100F400070470000006840F60001C4F200018842CA
:100F500018BF7047FFF79CBA70470000FEE700001B
:100F6000FEE70000FEE700000000000000000000B7
:100F7000EFF30980BFF36F8F0D4B1A6820E9F00F74
:100F800010602DE908404FF0500080F3118800F008
:100F900003FE4FF0000080F31188BDE80840196897
:100FA0000868B0E8F00F80F30988BFF36F8F7047CF
:100FB0007C00002000000000000000000000000095
:100FC000074B19680868B0E8F00F80F30988BFF391
:100FD0006F8F4FF0000080F311884EF00D0E7047B8
:100FE0007C00002040F60004C4F2010420460821E1
:100FF000FFF73AFA4FF4C87000F022F9F6E7000064
:1010000040F60004C4F2010420460421FFF72CFA44
:101010004FF4967000F014F9F6E7000040F6000473
:10102000C4F2010420461021FFF71EFA4FF4FA70B3
:1010300000F006F9F6E7000080B54FF0500080F3AD
:101040001188BFF36F8FBFF34F8F00F0DDFE30B11B
:101050004EF60450CEF200004FF0805101600020A7
:1010600080F3118880BD00007047000040F23C1002
:10107000C2F20000FFF7AABEFEE7000098B0FFF73B
:1010800015FA00240120CDE91344CDE911440E9056
:1010900012904FF4E0104FF48031022517900EA803
:1010A000CDE90F14CDE91551FFF700FC20B1EFF3A6
:1010B000108072B6FEE700BF0F20CDE907054FF4A0
:1010C0008060CDE90A0407A802210994FFF7D8FA45
:1010D00020B1EFF3108072B6FEE700BF41F21800B6
:1010E000C4F20200016840F6000441F020010160F2
:1010F0000168C4F2010401F020010E910E9901680B
:10110000002241F00401016001681C2601F0040185
:101110000E910E9901684FF0000941F0080101603D
:1011200000681C2100F008000E900E982046FFF782
:10113000A3F904F5806528464FF4024100224FF4DC
:101140000248FFF799F90E960EAE4FF0010A0227FA
:1011500020463146CDE90FA91197FFF777F80EA881
:1011600080E80007284631461197FFF76FF81F48BF
:101170000DF13C0C0E901DA0071D8ECFD0E905602F
:101180008CE88E00CDE913600EA8002100F066F80F
:1011900040F27004C2F200041B4920601AA0071D2F
:1011A00007918ECFD0E905600DF1200C8CE88E0000
:1011B000CDE90C6007A8002100F050F819496060E3
:1011C00018A0071D00918ECFD0E905600DF1040C29
:1011D0008CE88E00CDE905606846002100F03EF8FD
:1011E000A06000F035F800BFFEE700BF2420000833
:1011F0000110000800000000000000008000000056
:1012000000000000000000002B200008E50F00088F
:10121000FDFF000000000000800000000000000052
:1012200000000000342000081D100008FDFF000031
:10123000000000008000000000000000000000002E
:1012400080B5002808BF012000F0EAFB002080BD27
:1012500080B500F035FC002080BD0000B0B584B042
:1012600043698E4693B1846984B10589D0E9001C35
:10127000026928B2843D18BFC51CCDE90053604601
:101280007346029400F086FD04B0B0BD0589D0E934
:101290000013028A28B2843D18BFC51C03AC18464F
:1012A00073460095019400F045FD0399012818BF8D
:1012B0000021084604B0B0BD2DE9F041044600F01D
:1012C000F3FA40F27C06C2F20006306940F284155F
:1012D000013030613068C2F2000548B17069002801
:1012E00040D13068E16AC06A884298BF346039E012
:1012F00034603069012835D1284600F085FA05F1BF
:10130000140000F081FA05F1280000F07DFA05F1E3
:101310003C0000F079FA05F1500000F075FA05F193
:10132000640000F071FA05F1780000F06DFA40F207
:101330001418C2F20008404600F066FA08F11407DB
:10134000384600F061FA06F1640000F05DFA06F13B
:101350003C0000F059FA06F1500000F055FAC6F8CA
:10136000308077637068B16801220131B160E16A51
:101370008A401043706001EB810005EB8000211D65
:1013800000F084FA00F0B4FA706988B13068E16A5C
:10139000C06A884228BFBDE8F0814EF60450CEF204
:1013A00000004FF080510160BFF34F8FBFF36F8F8C
:1013B000BDE8F08140F27C0540F284164EF60458F8
:1013C000C2F20005C2F20006CEF200084FF08057CC
:1013D00003E000BF204600F0A3FAE868D0B100F0B7
:1013E00063FAA86CC468201D00F0EEF92869013882
:1013F0002861E8680138E86000F07AFA94F8510052
:101400000228EAD00128E5D070B9206B00F088FAF4
:10141000E0E700BF30680228DFD3C8F80070BFF3F0
:101420004F8FBFF36F8FD8E74FF0500080F31188D4
:10143000BFF36F8FBFF34F8FFEE700002DE9F0473A
:101440000A9F8246386BDDF8248000EB82000A7820
:10145000089C87F834200A7804389946002A20F03E
:1014600007064BD0487887F835004878002845D0E3
:10147000887887F83600887800283FD0C87887F8C1
:101480003700C878D0B3087987F838000879A8B34E
:10149000487987F83900487980B3887987F83A0025
:1014A000887958B3C87987F83B00C87930B3087A8F
:1014B00087F83C00087A08B3487A87F83D00487AF4
:1014C000E0B1887A87F83E00887AB8B1C87A87F8A0
:1014D0003F00C87A90B1087B87F84000087B68B16C
:1014E000487B87F84100487B40B1887B87F8420001
:1014F000887B00281CBFC87B87F843000025381D67
:1015000087F84350062C28BF0624FC62C7E9114522
:1015100000F086F907F1180000F082F984F0070066
:10152000B861304651464A463F617F62FD6487F8A4
:10153000505000F039F9B8F1000F386018BFC8F802
:101540000070BDE8F087000006480068006880F37E
:10155000088862B661B6BFF34F8FBFF36F8F00DFAD
:1015600000BF000008ED00E081B00020009040F2D4
:101570000C00C2F2000000684FF0500181F31188A6
:10158000BFF36F8FBFF34F8F013007D0FEE700BF6F
:10159000009830B9009820B9009810B90098002838
:1015A000F6D001B07047000070B5044600F0ECFAC8
:1015B00040F2F40CC2F2000CDCF8040050B19CF8CC
:1015C0000000002818BF4FF000404FF0000584BB1A
:1015D0008FE000BF40F21020C2F20000C21D22F0D6
:1015E000070210F00701A0EB020318BF104600220B
:1015F0004FF44065CCF81000CCF81420002918BF37
:1016000003F54065411921F00701A1F10803CCF869
:10161000043041E90222191AC0E9003101208CF896
:1016200000004FF00040CCE90211002C4FF0000503
:101630005FD020405DD124F0070000F11002600768
:1016400008BF04F10802002A4FF0000551D0DCF871
:10165000080082424DD8604650F810EFDEF8045082
:1016600095422CD2DEF80010C1B174464D68954207
:1016700018D20B68B3B15D68954217D21868A8B14B
:101680004568954216D20468A4B16568954215D2A2
:101690002168A6460029E9D111E000BF0CF1100035
:1016A0000DE000BF8E46204609E000BF9E4608467A
:1016B00005E000BF8646184601E000BFA646DCF8FC
:1016C00004108E4514D00168DEF80040AB1A112BCF
:1016D00004604CD30EEB0205680719D04FF05000A0
:1016E00080F31188BFF36F8FBFF34F8FFEE700BF0A
:1016F000002500F00DFC680754D04FF0500080F337
:101700001188BFF36F8FBFF34F8F00BFFEE700BF9D
:101710000CF110006B60CEF8042000BF0368AB42F0
:101720000AD21868A8420BD20368AB4204D21868E8
:101730001A46A842F2D304E00246184601E000BF70
:101740001A4653686C68D618AE4202D11C4415463E
:1017500054602B19834206D1DCF80430984202D041
:1017600009C823446B60AA42286018BF156001F1C4
:101770000805DEF80400DCE90212091A9142CCF8EF
:10178000081038BFCCF80C109CF8001000294FF05E
:10179000000118BF40F00040CEE9001000F0B8FB97
:1017A0006807AAD1284670BD034641F26950C0F6C9
:1017B00000004FF0807C21F0010103E90310A3F148
:1017C000400043F8202C7047D0E9013201699A604B
:1017D000D1F804C082688445536008BF4A60002283
:1017E00002610868013808600868704741F2140314
:1017F000C2F20003036040F61460C2F20000086009
:1018000080201060704700004FF0FF31024642F820
:10181000081F00214260C0E90322016070470000F8
:10182000002101617047000010B5D1F800E01EF101
:10183000010213D000F1080462681368734511D8DF
:1018400053681C68744511D85A68146874450FD8D9
:1018500054682368A4467345EED90BE00269D2F8B8
:1018600004C007E09446224604E000BF9C4601E025
:1018700094461A46C1F804C0CCF808108A6051603A
:10188000086101680131016010BD0000D0F800C09E
:10189000436808619A684B608A609A6899605160F1
:1018A0000CF10101016070474FF0500080F3118886
:1018B000BFF36F8FBFF34F8F40F20C00C2F20000F6
:1018C00001684A1C026009B1704700BF4EF604501F
:1018D000CEF200000068000608BF70474FF05000CD
:1018E00080F31188BFF36F8FBFF34F8FFEE70000C7
:1018F00040F20C00C2F20000016839B10139016008
:1019000018BF7047002080F3118870474FF05000D7
:1019100080F31188BFF36F8FBFF34F8FFEE7000096
:1019200070B5002808BF70BD40F2F406C2F2000690
:101930000446307854F8041C002818BF4FF00040CB
:1019400008420DD0A4F108052A689AB14FF0500062
:1019500080F31188BFF36F8FBFF34F8FFEE700BF97
:101960004FF0500080F31188BFF36F8FBFF34F8F9C
:10197000FEE700BF21EA000044F8040C00F004F97F
:1019800054F8041CB0680844B06006F1100000BFB1
:101990000368AB420AD21868A84221D20368AB425E
:1019A00004D218681A46A842F2D301E0024618464B
:1019B0005368D418AC4202D11944154651606B18D3
:1019C000834205D17368984202D009C819446960FE
:1019D000AA42286018BF1560BDE8704000F098BAB0
:1019E0001A465368D418AC42E9D1E5E74EF210002C
:1019F000CEF2000000210160816040F20801C2F2D5
:101A00000001096844F6D352C1F26202A1FB02123E
:101A10004FF0FF3101EB92114160072101607047E7
:101A200070B500283FD040F27C05C2F200050446A4
:101A3000A86948B14FF0500080F31188BFF36F8F51
:101A4000BFF34F8FFEE700BFA8690130A8616E6A3F
:101A500028680430FFF7B8FE50B12868A419446024
:101A600013D3686B29680431FFF7DEFE16E000BF70
:101A700028680121C06A6A6801FA00F022EA0000C1
:101A800068602868A4194460EBD2286B2968043187
:101A9000FFF7CAFE286A844238BF2C6200F038FA89
:101AA000002818BF70BD4EF60450CEF200004FF073
:101AB00080510160BFF34F8FBFF36F8F70BD000087
:101AC000B0B588B00020CDE9050006A805A904AA94
:101AD000FFF78CFE0598A8B3069C002C3CD054213F
:101AE000049A07910799542940D12063022084F871
:101AF000510007A80025CDE9005041F2B530C0F6ED
:101B000000001FA100230294FFF798FC2046FFF776
:101B1000D3FB079940F27C00C2F20000C16179B1A9
:101B20004FF0500181F31188BFF36F8FBFF34F8FD8
:101B30004FF0FF31016201214161456200F064F81C
:101B400008B0B0BD4FF0500080F31188BFF36F8F25
:101B5000BFF34F8FFEE700BF4FF0500080F31188B6
:101B6000BFF36F8FBFF34F8FFEE700BF4FF0500002
:101B700080F31188BFF36F8FBFF34F8FFEE700BF75
:101B800049444C450000000040F27C00C2F20000D5
:101B9000816901318161704740F27C00C2F200002E
:101BA000816900291EBF0121816270470021816285
:101BB0004168B1FA81F1C9B2C1F11F0140F284124A
:101BC00001EB8101C2F2000252F8213063B102EB55
:101BD000810252F8041F4968131D994211600DD00B
:101BE000C9680160704700BF4FF0500080F3118852
:101BF000BFF36F8FBFF34F8FFEE700BF49681160DF
:101C0000C968016070470000B0B584B04EF2004C66
:101C1000CEF2000C9CF800100291FF218CF800100D
:101C20009CF800108DF807109DF8071001F0500285
:101C300040F20C11C2F200010A7007224A609DF9BD
:101C40000720B2F1FF3F5FDC032200BFD31C4B60D3
:101C50009DF8070040008DF807009DF90700B0F1DE
:101C6000FF3F23DC931C4B609DF8070040008DF87C
:101C700007009DF90700B0F1FF3F17DC531C4B60D4
:101C80009DF8070040008DF807009DF90700B0F1AE
:101C9000FF3F0BDC4A609DF80700043A40008DF8D6
:101CA00007009DF907000028D0D4131D032B2BD16A
:101CB0004FF44070486002988CF80000DCF820096E
:101CC00040F47000CCF82009DCF8200940F07040A6
:101CD000CCF82009FFF78AFE40F20C04C2F200049F
:101CE00000252560FFF730FCFFF756FF03952068BD
:101CF0004FF0500181F31188BFF36F8FBFF34F8F07
:101D0000013011D0FEE700BF4FF0500080F3118882
:101D1000BFF36F8FBFF34F8FFEE700BF039830B95B
:101D2000039820B9039810B903980028F6D0002032
:101D300004B0B0BD2DE9F04383B00746900098464B
:101D400015468946FFF730FCF8B106465420FFF7E8
:101D50002BFCB8B10446DDE90A100022266384F8A2
:101D60005120CDE90010384649462A4643460294A0
:101D7000FFF764FB2046FFF79FFA012003B0BDE8A0
:101D8000F08300BF3046FFF7CBFD4FF0FF3003B0CC
:101D9000BDE8F08370B586B00B9CBCB10C9EFEB163
:101DA00054250495049D542D24D10A9D34630224A6
:101DB00086F8514005ACCDE900540296FFF73EFB92
:101DC0003046FFF779FA059806B070BD4FF0500025
:101DD00080F31188BFF36F8FBFF34F8FFEE700BF13
:101DE0004FF0500080F31188BFF36F8FBFF34F8F18
:101DF000FEE700BF4FF0500080F31188BFF36F8FF4
:101E0000BFF34F8FFEE700002DE9F04740F27C065C
:101E1000C2F20006B06928B1F06A00240130F06215
:101E20006EE000BF706A10F1010AC6F824A020D34A
:101E3000306B006850B14FF0500080F31188BFF351
:101E40006F8FBFF34F8F00BFFEE700BF306B716B2A
:101E500031637063B06B0130B063306B006828B1E0
:101E6000306BC068C068406802E000BF4FF0FF30D0
:101E70003062306A40F284188245C2F2000801D212
:101E8000002434E0306B0024006868B34FF001098F
:101E900016E000BFF86A716809FA00F2114300EB1E
:101EA0008000716008EB80002946FFF7EFFCF86ABC
:101EB0003168C96A326B8842106828BF4C4698B1B5
:101EC000306BC068C7683D4655F8040F82450DD396
:101ED0002846FFF779FCB86A0028DBD007F1180024
:101EE000FFF772FCD6E700BF4FF0FF30306230687A
:101EF000C06A00EB800058F82000012888BF012448
:101F0000B06A002818BF01242046BDE8F087000011
:101F10002DE9F04140F27C05C2F20005A86968B1E4
:101F2000FFF7C2FCA8690138A861A86980B1002444
:101F3000FFF7DEFC2046BDE8F08100BF4FF0500007
:101F400080F31188BFF36F8FBFF34F8FFEE700BFA1
:101F500028690028EBD0686E78B340F28418012617
:101F6000C2F20008286FC76807F11800FFF72CFCC1
:101F70003C1D2046FFF728FCF86A696806FA00F263
:101F8000114300EB8000696008EB80002146FFF7F9
:101F90007DFCF86A2968C96A884228BFAE62686E0B
:101FA0000028DFD1286B006820B1286BC068C068AA
:101FB000406801E04FF0FF302862EC6A4CB1012626
:101FC000FFF722FF002818BFAE62013CF8D10020C5
:101FD000E862A86A0028AAD04EF60450CEF20000AB
:101FE0004FF080510160BFF34F8F0124BFF36F8F1B
:101FF000FFF77EFC2046BDE8F081000000000000F5
:1020000000000102030406070809000000000102A5
:102010000304010202030405060708090A0B0C0D5C
:102020000E0F10105265644C656400477265656E52
:102030004C65640059656C6C6F774C6564000000FA
:1020400060200008000000201000000028010008A7
:1020500070200008100000205816000044010008FD
:1020600001000000100000000024F400AAAAAAAA9F
:04000005080000ED02
:00000001FF
