:020000040800F2
:10000000E00600209101000851170008691300085C
:100010004D17000891040008651700080000000053
:100020000000000000000000000000005917000858
:100030009504000800000000551700085D1700082F
:10004000AB010008AB010008AB010008AB010008E0
:10005000AB010008AB010008AB010008AB010008D0
:10006000AB010008AB010008AB010008AB010008C0
:10007000AB010008AB010008AB010008AB010008B0
:10008000AB010008AB010008AB010008AB010008A0
:10009000AB010008AB010008AB010008AB01000890
:1000A000AB010008AB010008AB010008AB01000880
:1000B000AB010008AB010008AB010008AB01000870
:1000C000AB010008AB010008AB010008AB01000860
:1000D000AB010008AB010008AB010008AB01000850
:1000E000AB010008AB010008AB01000800F002F80A
:1000F00000F03FF80AA090E8000C82448344AAF183
:100100000107DA4501D100F034F8AFF2090EBAE880
:100110000F0013F0010F18BFFB1A43F0010318473B
:1001200088190000A8190000103A24BF78C878C1C7
:10013000FAD8520724BF30C830C144BF04680C60ED
:10014000704700000023002400250026103A28BF35
:1001500078C1FBD8520728BF30C148BF0B60704739
:10016000642900F07D80002070471FB51FBD10B5C9
:1001700010BD00F052F91146FFF7F7FF01F05EFBEA
:1001800000F070F903B4FFF7F2FF03BC00F078F958
:100190000948804709480047FEE7FEE7FEE7FEE71B
:1001A000FEE7FEE7FEE7FEE7FEE7FEE70448054957
:1001B000054A064B7047000061170008ED00000873
:1001C000E0000020E0060020E0020020E002002025
:1001D0000FB41CB5074B06AA7B44694600900598EE
:1001E00000F003F90020694600F012F91CBC5DF82C
:1001F00014FB0000350200002DE9F0410E460446D4
:10020000002020622046E168884730B3252805D0C9
:10021000D4E901219047206A401CF2E7E1682046BA
:1002200000278847050018D0A5F14100192802D8F9
:1002300020354FF400673246294620462760FFF7F5
:100240008FFF40B1012804D0F61D26F007060836BE
:10025000D8E7361DD6E72846DAE7206ABDE8F08100
:100260002DE9F0410646002410687529314616A58F
:1002700010D0AFF30080002802DA404213A507E057
:1002800031688A0701D512A502E0490704D511A5F6
:10029000012401E0AFF3008000210A2206F12407C7
:1002A00009E0B0FBF2FCB0FBF2F302FB1C003030C3
:1002B00078541846491C0028F3D123462A46304674
:1002C000BDE8F04100F032B8000000002D00000051
:1002D0002B000000200000004FF0000200B5134684
:1002E00094469646203922BFA0E80C50A0E80C5056
:1002F000B1F12001BFF4F7AF090728BFA0E80C5007
:1003000048BF0CC05DF804EB890028BF40F8042BFF
:1003100008BF704748BF20F8022B11F0804F18BF6C
:1003200000F8012B70477047704770472DE9F04780
:100330000D4699469246044600F124080168880655
:1003400004D5E06921F01001216000E00120A842FD
:1003500001DD471B00E00027A1697A1902EB0900C3
:10036000081AA0612078C00602D42046AFF30080AE
:10037000002608E0D4E901211AF806009047206A17
:10038000401C761C20624E45F4DB2078C0060AD55E
:100390002046AFF3008006E0D4E9012130209047E9
:1003A000206A401C2062381EA7F10107F4DC07E038
:1003B000D4E9012118F805009047206A401C20620A
:1003C000281EA5F10105F3DC2046AFF3008020785C
:1003D000000602D50220BDE8F0870120FBE70000FF
:1003E00001694A1C02610878704700B58FB0CDE9F9
:1003F00001310021059105497944CDE903101146E9
:100400006846FFF7F9FE0FB000BD0000E5FFFFFFF3
:100410000A6802F8010B0A607047754600F02CF874
:10042000AE4605006946534620F00700854618B0E1
:1004300020B5FFF7BBFEBDE820404FF000064FF0AF
:1004400000074FF000084FF0000BAC46ACE8C009C5
:10045000ACE8C009ACE8C009ACE8C00921F007016C
:100460008D46704710B50446AFF300802046BDE8C6
:100470001040FFF787BE00000048704720000020B2
:1004800001491820ABBEFEE72600020070470000BD
:10049000FEE7000070470000B0B5044600F024F904
:1004A000054640F21400C2F200000078611C18BF3B
:1004B000044400BF00F018F9401BA042FAD3B0BDBD
:1004C0002DE9F04F82B00E68002E00F0F68041F268
:1004D0000042C4F20102042340F2004E904208BFE1
:1004E00003234FF6FF7CC4F2010E00930024012386
:1004F000C1F2100C4FF0000A4FF0000943E0012751
:1005000004F00C030F229A402BEA020207FA03F3CD
:100510004FEA9A051A4346F825204E6840F20C45EA
:10052000F202DEF8082054BF22EA080242EA08027A
:10053000C4F20105CEF808202A68B30254BF22EAAB
:10054000080242EA08022A60B303DEF8042054BF1E
:1005500022EA080242EA0802F303CEF80420DEF899
:1005600000204FF0010354BF22EA080242EA0802C9
:10057000CEF800200E680AF1010A36FA0AF204F1F8
:10058000040400F09A8003FA0AFB16EA0B08F1D083
:100590004E68664510DC122E50D8DFE806F0330AAC
:1005A00041454F4F4F4F4F4F4F4F4F4F4F4F4F487A
:1005B0004C00D1F80C9041E04FF6FF72C1F22102DD
:1005C00096420FDC0022C1F2110296421AD000229C
:1005D000C1F21202964215D00022C1F221029642C7
:1005E00010D02BE00022C1F2220296420AD0002253
:1005F000C1F23102964205D00022C1F23202964287
:100600001CD100BF8A6842B1012A14BFC0F814B0DF
:10061000C0F810B04FF0080910E04FF004090DE0E9
:10062000CA6802F1080909E04FF0000906E0CA684B
:1006300002F1040902E0CA6802F10C0922460646EA
:10064000B8F5807F24BF203A043637680F259540DF
:1006500027EA050509FA02F22A433260CA79D2066E
:100660007FF588AF41F21803C4F202031A68AEF5B1
:100670007E7642F001021A601A6802F001020192CD
:10068000019A2AF0030256F802B040F60002C4F2C2
:10069000010290420FD040F60042C4F201029042A3
:1006A0003FF42DAF41F20002C4F20102009F9042DC
:1006B00008BF022724E7002722E702B0BDE8F08F39
:1006C0008068084018BF012070470000C26802EA35
:1006D0000103914341EA034101617047002A08BFC9
:1006E000090401617047000040F2DC00C2F2000022
:1006F00000687047F0B581B0B0B3044690F83D0093
:1007000028B9002084F83C00204600F0B1FA2420EB
:1007100084F83D002068016821F001010160016852
:1007200041F400410160016821F40041016000F0E2
:1007300059FC48F28041C0F21E0140F60012656883
:1007400088424FF00001C0F23D0248F2A16C4FF028
:10075000000338BF01219042C0F2010C38BF0123D1
:10076000654538BF0B4613B1012001B0F0BD4DF611
:100770008361C4F21B31A0FB011221684FEA924E43
:100780004B684FF4967623F03F0343EA92434B6065
:1007900044F6D3530F6A0EFB06F6C1F26203A6FBC2
:1007A000033627F03F03B709654538BF970C7A1C1D
:1007B0001A430A62CA6948F2A0674CF6FF73C0F296
:1007C0000107BD4222EA030C0AD801386A00B0FBD7
:1007D000F2F001306FF31F30042898BF04202BE0A3
:1007E000A368A0F1010E9BB119206843BEFBF0F095
:1007F0000422013062F31F30000512D09BB1192092
:100800006843BEFBF0F00422013062F31F3011E0B8
:1008100005EB4500BEFBF0F001306FF31F30000523
:10082000ECD1012008E005EB4500BEFBF0F0013003
:100830006FF31F3040F4004040EA0C00C8610868C4
:10084000D4E9072320F0C0001043184308608868EB
:1008500048F2FF3204F10C0790438CCF1843104349
:10086000A6698860C86820F0FF0038433043C8603C
:10087000086840F00100086000202021206484F80E
:100880003D10206384F83E0001B0F0BD2DE9F04733
:1008900082B09946924688460446FFF725FF94F8B1
:1008A0003D1020290BD105462068806910F0020018
:1008B0000AD194F83C0001282BD1022600E0022640
:1008C000304602B0BDE8F087012686EA500706E010
:1008D0002068806910F0020086EA5007E9D0FFF72F
:1008E00003FF401B1A28F3D3206880698007EFD5E7
:1008F00000202021206384F83D1084F83E00216C04
:1009000041F020012164F90784F83C00D1D102268E
:10091000D6E70121206884F83C100168C90703D19B
:10092000016841F001010160016821F4006101608A
:10093000212184F83D10102184F83E10002121640B
:10094000C4F824A0A4F82A90618D21850021CFF657
:10095000FF71E162E16A11F5803F18BF012925D1DD
:10096000016841F4807101604069DDF8289010F061
:10097000010038D180F0010609F101070BE000BF4A
:1009800020684169C90717D02068406910F001004C
:1009900080F0010627D1002FF6D0FFF7A5FEB9F1B0
:1009A000000FEDD0401B4845EED9E9E70829D7D024
:1009B000216B1229D4D0D7E700212022216384F8AB
:1009C0003D2084F83E10226C42F020022264F2079F
:1009D00084F83C1007D000680126C00544BF4FF4DE
:1009E000007020646CE72069B0F5804F01D1FE21D2
:1009F0003AE0062000EAD8112068F031016141692F
:100A0000090730D44169490517D409F1010600BF2F
:100A100066B1FFF769FEB9F1000F02D0401B4845EF
:100A200004D920684069000740F1128120684169BB
:100A3000090718D441694905EAD50168012641F43E
:100A4000007101606FF4806141610020202120630A
:100A500084F83D1084F83E00216C41F004012164CB
:100A600084F83C002CE7FF21206801EA08010161BD
:100A7000416989072FD44169490516D409F1010656
:100A800066B1FFF731FEB9F1000F02D0401B4845B7
:100A900004D920684069800740F1CB802068416913
:100AA000890718D441694905EAD50168012641F44E
:100AB000007101606FF4806141610020202120639A
:100AC00084F83D1084F83E00216C41F0040121645B
:100AD00084F83C00F4E60026019620684169019103
:100AE000806901900198208D002859D009F10107F3
:100AF00004E000BF20684069000668D5206850F80F
:100B0000141F09060DD40168490556D4002FF5D0ED
:100B1000FFF7EAFDB9F1000FECD0401B4845EDD9D5
:100B2000E8E7D4F824E02268704610F8013B13612E
:100B30006062608D01386085B4F828C01046ACF161
:100B40000103238550F8141F49070DD519040BD054
:100B50009EF8011011610EF102016162618D01398F
:100B60006185ACF102012185016806E020684069D9
:100B7000400745D5206850F8141F49070DD4016877
:100B800049051FD4002FF5D0FFF7AEFDB9F1000FD6
:100B9000ECD0401B4845EDD9E8E7208D0028ADD1C9
:100BA0002068016841F400710160202084F83D0054
:100BB00084F83E6084F83C6082E66FF480610160F6
:100BC000042005E06FF480610160042019E020201A
:100BD00000212022216384F83D2084F83E10226CFD
:100BE0001043206484F83C10206C042806D120684F
:100BF0000126016841F40071016061E601265FE6AB
:100C0000202000212022216384F83D2084F83E101A
:100C1000226C1043206484F83C10206C042806D118
:100C200020680126016841F40071016048E6012650
:100C300046E600202021206384F83D1084F83E0021
:100C4000216C012641F02001216484F83C0037E644
:100C500000202021206384F83D1084F83E00216CA0
:100C6000012641F02001216484F83C0028E60000C0
:100C700010B586B0016845F20040C4F20000814220
:100C80004FF00001CDE90411CDE9021101D006B009
:100C900010BD41F21804C4F20204216800F5384086
:100CA00041F008012160216801F0080101910199DA
:100CB000C0210291122103910321059102A9FFF79E
:100CC000FFFB606840F400106060606800F4001092
:100CD0000190019806B010BD40F2140040F2DC0112
:100CE000C2F20000C2F2000100780A6810440860F5
:100CF0007047000080B542F20000C4F202000168B3
:100D000041F010010160032000F07EF80F2000F098
:100D100005F800F02BF8002080BD0000B0B540F2CF
:100D20001402C2F2000240F200011278C2F2000185
:100D30004FF47A730968B3FBF2F20446B1FBF2F1A7
:100D4000084600F0FBFA0F2C4FF001050CD858B9FB
:100D50004FF0FF3021460022002500F029F840F234
:100D60001800C2F2000004602846B0BD82B041F213
:100D70001800C4F202000168022241F00101016082
:100D8000016801F0010101910199416841F0805130
:100D90004160406800F08050009000980420C4F248
:100DA0000100016862F31A61016002B0704700003F
:100DB00010B54EF60C5CCEF2000CDCF80030C3F33C
:100DC000022E8EF00704042C28BF0424BEF1030376
:100DD0004FF0FF3E0EFA04F438BF0023A1439940C0
:100DE0000EFA03F39A43114300F1604200F00F033F
:100DF000090102F56442043B6344002848BF03F143
:100E00000C02117010BD00004EF60C51CEF2000124
:100E10000A684FF6FF031A4060F30A2242F080602E
:100E200040F0FD70086070472DE9F04381B0002864
:100E300000F0858042F20008C4F202080446D8F8A7
:100E400000000D4600F0070088420CD2D8F80000E0
:100E500020F007002843C8F80000D8F8000000F090
:100E60000700A8426BD1206841F204098107C4F24F
:100E7000020917D5410705D5D9F8001041F4E06102
:100E8000C9F80010010705D5D9F8001041F46051E8
:100E9000C9F80010D9F80010A26821F0F001114340
:100EA000C9F80010C00741D1D8F8000000F00700D1
:100EB000A8420CD9D8F8000020F007002843C8F851
:100EC0000000D8F8000000F00700A84237D12068E1
:100ED000410707D5D9F80010E26821F4E061114319
:100EE000C9F80010000708D5D9F80000216920F4DE
:100EF000605040EAC100C9F80000D9F8002002F0B3
:100F00000C00082841F20020C0F27A004ED141F6D0
:100F10009223C2F38341C0F60003595CD20339D453
:100F200040F60010C0F23D0048433FE060680228F0
:100F300009D0012829D159F8041C890307D40120BC
:100F400001B0BDE8F08359F8041C8901F7D5D9F840
:100F5000001021F003010843C9F80000FFF7C4FBAB
:100F6000064641F2883700BFD9F80000616800F0FA
:100F70000C00B0EB810F97D0FFF7B6FB801BB84297
:100F8000F2D9032001B0BDE8F08359F8041C8907A9
:100F9000D5D5DCE7D9F8002041F69023C2F34042D2
:100FA000C0F600039A5C4843B0FBF2F0D9F8001099
:100FB00041F67822C1F30311C0F60002515C40F201
:100FC000000220FA01F140F21800C2F200000068AD
:100FD000C2F200021160FFF7A1FE002001B0BDE8DF
:100FE000F083000040F2000041F20401C2F2000070
:100FF000C4F202010068096841F68822C1F30221A7
:10100000C0F60002515CC840704700002DE9F04175
:1010100082B0002800F0D7800446007841F2000634
:10102000C007C4F2020644D0706800F00C00042827
:1010300017D0706800F00C00082802D17068C00357
:101040000FD465682DB1B5F5A02F10D0B5F5803F50
:1010500011D0306820F480303060306820F4802077
:101060000CE03068800324D5606810BBABE03068CA
:1010700040F480203060306840F480303060FFF70A
:1010800033FB002D054611D03068800311D4FFF7E3
:101090002BFB401B6428F7D916E100BFFFF724FBA8
:1010A000401B64284FF0030000F28A803068800300
:1010B000F4D42078800718D5706810F00C0F07D092
:1010C000706800F00C00082827D17068C00324D491
:1010D0003068800702D52069012874D130686169C1
:1010E00020F0F80040EAC1003060207800074FD5BA
:1010F000A06940B30020C4F242200121C0F880144E
:10110000FFF7F2FA054600BF706A80072DD4FFF79B
:10111000EBFA401B0228F7D9D6E02069002840F2FC
:101120000000C4F2422000F0A68001210160FFF718
:10113000DBFA054630688007D0D4FFF7D5FA401BAC
:101140000228F7D9C0E00020C4F242200021C0F8F4
:101150008014FFF7C9FA0546706A800718D5FFF7B3
:10116000C3FA401B0228F7D9AEE040F20000C2F2F9
:101170000000006844F6D351C1F26201A0FB0101F6
:10118000480A019000BF0198411E00280191F9D141
:10119000207840071BD4E5698DB1706800F00C0021
:1011A000082846D1012D0ED07068216A00F48032E3
:1011B0008A4208D1616A00F47010884203D100208D
:1011C00002B0BDE8F081012002B0BDE8F081F06915
:1011D00010F0805808D1F06940F08050F061F0695B
:1011E00000F080500090009847F20007C4F200071A
:1011F0003868C0050FD4386840F480703860FFF755
:1012000073FA05463868C00505D4FFF76DFA401B30
:101210006428F7D958E0E5681DB1052D3CD0012DB3
:101220003ED0306A20F001003062306A20F00400C5
:1012300039E00027C4F2422700203866FFF754FA4D
:10124000022D05460CD100BF3068800154D5FFF750
:101250004BFA401B02284FF00300F5D9B0E700BF5E
:1012600030688001ABD5FFF73FFA401B02284FF0F2
:101270000300F5D9A4E700210160FFF735FA054620
:10128000306880077FF531AFFFF72EFA401B022848
:101290004FF00300F4D993E7306A40F00400306265
:1012A000306A40F001003062FFF71EFA002D05465B
:1012B00041F2883714D000BF306A800713D4FFF79B
:1012C00013FA401BB842F7D9032002B0BDE8F08101
:1012D000FFF70AFA401BB8424FF003003FF670AF29
:1012E000306A8007F4D4B8F1000F7FF454AFF0698E
:1012F00020F08050F0614EE7206AB0F5803F05D1C4
:101300007168A26821F40031114371607168626AEA
:1013100021F4741111430843706001203866FFF70F
:10132000E3F90446306880013FF549AFFFF7DCF987
:10133000001B02284FF00300F4D941E7411E0020B2
:10134000B0EB116F1CBF012070474EF21002CEF2BD
:10135000000251604EF62351CEF20001F0230B70D3
:101360000721906011607047FEE7000080B582B0F1
:1013700040F28000C2F200000821017040F28800B3
:101380008DF807104FF00A0CC2F200000DF10702B1
:101390004E210123CDF800C0FFF778FA02B080BDDE
:1013A00010B582B041F204040020CEF2000400F037
:1013B000DBF9102000F0D8F940F20000C2F2000082
:1013C00000684DF68361C4F21B31A0FB0101890C5A
:1013D0004FF4FA62206851432268121A0192019A6E
:1013E0008A42F9D302B010BD10B540F28100C2F2BA
:1013F0000000017841F002020270A02040EA0114CE
:1014000001F0F00000F0B0F9E0B2BDE8104000F0EB
:10141000ABB900002DE9F04383B040F28401C2F281
:10142000000140F280050870C2F20005082140F278
:101430008207297004210128C2F200074EF6FC50F1
:1014400088BF08213970CEF20000016841F204041F
:1014500021F0807101600168CEF2000441F08071DA
:10146000016054F8040C20F0010044F8040C54F816
:10147000040C40F0010044F8040C002020603220ED
:1014800000BF00BF00BFFFF707F828780A268DF8D5
:10149000080040F28800C2F2000002AA4E21012397
:1014A0000096FFF7F3F94FF47A70FEF7F5FF30205E
:1014B00000F05AF940F20008C2F20008D8F8000023
:1014C0004DF68369C4F21B39A0FB0901890C41F276
:1014D00094122068514300BF2268121A0292029AA5
:1014E0008A42F9D3302000F03FF9D8F8000041F2E9
:1014F0009412A0FB0901890C206851432268121A3A
:101500000292029A8A42F9D3302000F02DF9D8F8DD
:10151000000041F29412A0FB0901890C206851439C
:101520002268121A0292029A8A42F9D3202000F00D
:101530001BF9D8F800006422A0FB0901890C20687F
:10154000514300BF2268121A0292029A8A42F9D3CA
:10155000387840F02001050101F0F00000F004F9B6
:10156000E8B200F001F940F28100C2F2000004216B
:101570000170002000F0F8F8C02000F0F5F800201D
:1015800000F0F2F8102000F0EFF8D8F800004FF467
:10159000FA62A0FB0901890C206851432268121AE3
:1015A0000292029A8A42F9D340F28300C2F200000A
:1015B00002210170002000F0D7F8602000F0D4F87C
:1015C000D8F8000041F29412A0FB0901890C2068B0
:1015D000514300BF2268121A0292029A8A42F9D33A
:1015E000402000F0C1F8002000F0BEF840F20400F6
:1015F000C2F20000471E082517F8010F060140F04F
:10160000010000F0F10000F0AFF8701CC0B200F073
:10161000ABF8013DF0D1402000F0A6F8802000F0AA
:10162000A3F840F20C00C2F20000471E082500BFDC
:1016300017F8010F060140F0010000F0F10000F082
:1016400093F8701CC0B200F08FF8013DF0D100207B
:1016500000F08AF8202000F087F8D8F800004FF456
:10166000FA62A0FB0901890C206851432268121A12
:101670000292029A8A42F9D303B0BDE8F0830000D7
:1016800070B50C46302101EAC0014031C501084661
:1016900000F06AF8E8B200F067F8013C082500BFE6
:1016A00014F8010F060140F0010000F0F10000F015
:1016B0005BF8701CC0B200F057F8013DF0D170BD6E
:1016C00010B500F0F0010401481C00F04DF8601C5A
:1016D000C0B2BDE8104000F047B80000B0B50178D6
:1016E000002908BFB0BD441E41F0010000F0F10028
:1016F0000D0100F039F8681CC0B200F035F8A1788F
:1017000001340029F0D1B0BD10B540F28402C2F21C
:10171000000212788A4298BF511EC9B207A212F87D
:101720002110084440F08001040101F0F00000F0B5
:101730001BF8E0B2BDE8104000F016B80000000051
:10174000400000001400000054000000FEE700000C
:10175000FEE700007047000070470000FFF7BCBACA
:1017600070470000FEE700002DE9F04385B040F22D
:101770008009C2F20009044699F8000040F2880589
:101780002043C2F2000541F204068DF806000A2744
:101790000DF1060228464E210123CEF200060097E5
:1017A000FFF774F899F800000DF10702204340F0AC
:1017B00004008DF8070028464E2101230097FFF70B
:1017C00065F840F20008C2F20008D8F800004DF6B3
:1017D0008365C4F21B35A0FB0501880C00EB80017A
:1017E000306889003268121A0292029A8A42F9D34A
:1017F00099F8000004F0FB0108438DF80F0040F257
:1018000088000A27C2F200000DF10F024E210123C9
:101810000097FFF73BF8D8F80000A0FB0501880C03
:1018200000EB8001306889003268121A0492049A31
:101830008A42F9D305B0BDE8F083000098B041F2C8
:101840001110C0F61160079040F20840C0F60A205F
:10185000069041F60C30C0F21300059041F60010DE
:10186000C0F21B60049040F60810C0F2060003901E
:1018700041F61800C0F60610029040F61120C0F2A2
:101880000400019041F20A50C1F215100090FFF7D8
:1018900031FA0EAC20462821FEF71EFD01200E90E5
:1018A00012904FF4E01000254FF48031022617907B
:1018B00020460D95CDE90B55CDE90955CDE90F151C
:1018C000CDE91561FFF7A2FB18B1EFF3108072B6F6
:1018D000FEE70F20CDE909064FF48060CDE90C0545
:1018E00009A802210B95FFF79FFA20B1EFF31080B2
:1018F00072B600BFFEE7002641F21800CDE910667F
:10190000CDE90E66C4F20200016840F6004441F0E1
:10191000200101600168C4F2010401F02001099175
:1019200009990168002241F0040101600168102555
:1019300001F0040109910999016841F00801016071
:101940000068102100F00800099009982046FEF771
:10195000C5FE0E9503200EAD0127119020462946A5
:10196000CDE90F76FEF7ACFD20200EA9C1C12046BF
:101970002946FEF7A5FD40F28800A4F53841C2F2E1
:10198000000048F2A0624FF48043C0F2010280E8F8
:101990004600C0E90363C0E90566C0E90766FEF7D3
:1019A000A9FE20B1EFF3108072B600BFFEE702205F
:1019B000FFF730FDFFF7F4FCFFF7D8FCFFF714FD4D
:1019C000002000210027FFF79FFE41F6A225C0F668
:1019D00000050EAE304629460022FEF7F9FB3046E0
:1019E000FFF77CFE06A90020FFF74AFE04A90120AC
:1019F000FFF746FE02A90220FFF742FE69460320D8
:101A0000FFF73EFE00200121FFF77EFE0020FFF7DA
:101A100057FE01200121FFF777FE0120FFF750FE5E
:101A200002200121FFF770FE0220FFF749FE03208C
:101A30000121FFF769FE0320FFF742FE002000218D
:101A4000FFF762FE20462021FEF73AFE0028F9D17A
:101A500020462021FEF734FE0028F9D00137FAB2E3
:101A600030462946FEF7B4FB3046FFF737FE2046E6
:101A70001021FEF72BFEE5E700000000000000004B
:101A80000102030406070809000000000102030424
:101A9000010202030405060708090A0B0C0D0E0FCC
:101AA0001010256400000000C81A00080000002083
:101AB0002000000028010008E81A0008200000208B
:101AC000C0060000440100080024F40000191B06B1
:101AD0000C1B130018180609080906000100000075
:081AE0001000000000000000EE
:04000005080000ED02
:00000001FF
