:020000040800F2
:10000000D007002035020008E14000081937000839
:10001000DD400008C1130008A548000800000000EA
:10002000000000000000000000000000C5410008C2
:10003000E516000800000000514100089142000848
:100040004F0200084F0200084F0200084F0200084C
:100050004F0200084F0200084F0200084F0200083C
:100060004F0200084F0200084F0200084F0200082C
:100070004F0200084F0200084F0200084F0200081C
:100080004F0200084F0200084F0200084F0200080C
:100090004F0200084F0200084F0200084F020008FC
:1000A0004F0200084F0200084F0200084F020008EC
:1000B0004F0200084F0200084F0200084F020008DC
:1000C0004F0200084F0200084F0200084F020008CC
:1000D0004F020008954800084F0200084F02000830
:1000E0004F0200084F0200084F02000800F002F81B
:1000F00000F090F80AA090E8000C82448344AAF132
:100100000107DA4501D100F085F8AFF2090EBAE82F
:100110000F0013F0010F18BFFB1A43F0010318473B
:100120004857000068570000103A24BF78C878C1CB
:10013000FAD8520724BF30C830C144BF04680C60ED
:10014000704700000023002400250026103A28BF35
:1001500078C1FBD8520728BF30C148BF0B60704739
:100160006E2900F06581702900F0A782662905F0EC
:10017000DF82652905F0DC82672905F0D9826129D3
:1001800005F0D88203681B0A28BF41F08001692965
:1001900000F01281642900F00F81752900F00C81B4
:1001A0006F2900F03582782900F07382E92900F088
:1001B000CF81E42900F0CC81F52900F0C981EF2935
:1001C00000F03282F82900F072820368DB0928BF50
:1001D00041F08001632900F07387732900F078876C
:1001E000E32900F08387F32900F088870020704717
:1001F0001FB500F0D9FF04000020002105F024F80D
:10020000401C60600020002105F008F8E0601FBD80
:1002100010B510BD00F09AFF1146FFF7E9FF04F09A
:10022000B1FB01F077F803B4FFF7F2FF03BC01F074
:10023000BFF800000948804709480047FEE7FEE78D
:10024000FEE7FEE7FEE7FEE7FEE7FEE7FEE7FEE786
:1002500004480549054A064B70470000054300085D
:10026000ED000008D0010020D0070020D0030020BE
:10027000D00300200FB41CB5084B06AA7B44694686
:100280000090059800F0EDF804460020694600F063
:10029000FBF820461CBC5DF814FB000009020000BE
:1002A0004FF0000200B5134694469646203922BF0F
:1002B000A0E80C50A0E80C50B1F12001BFF4F7AF5A
:1002C000090728BFA0E80C5048BF0CC05DF804EB3C
:1002D000890028BF40F8042B08BF704748BF20F8AA
:1002E000022B11F0804F18BF00F8012B70477047A8
:1002F0007047704770B5044685690068C10601D52E
:10030000302600E02026C00707D070BDD4E90121C7
:1003100030469047206A401C20626D1EF6D570BDA5
:1003200070B5044685690078C00707D170BDD4E96F
:10033000012120209047206A401C20626D1EF6D5C6
:1003400070BD09684A0501D540B27047C905FCD5A2
:1003500000B2704709684A0501D5C0B27047C905A7
:10036000FCD580B2704770B50C460546012A05D011
:100370002878800600D5EA69002302E0012305E021
:100380005B1C934202D2E05C0028F9D1A869E61810
:10039000C01AA861286A184428622846FFF7AAFFF5
:1003A00004E0D5E9012114F8010B9047B442F8D3D9
:1003B0002846FFF7B5FF70BD2DE9F0410646002441
:1003C00010687529314616A510D0FFF7BAFF00282E
:1003D00002DA404213A507E031688A0701D512A569
:1003E00002E0490704D511A5012401E0FFF7B2FF9F
:1003F00000210A2206F1240709E0B0FBF2FCB0FB61
:10040000F2F302FB1C00303078541846491C0028D7
:10041000F3D123462A463046BDE8F04100F061BAE8
:10042000000000002D0000002B0000002000000054
:1004300011680268006A530501D508700AE0D30507
:1004400001D5088006E0130603D5C217C1E90002F2
:1004500000E008600120704701694A1C02610878C9
:10046000704700B58FB0CDE90131002105910549F4
:100470007944CDE903101146684600F029F90FB020
:1004800000BD0000E5FFFFFF0A6802F8010B0A60EB
:10049000704700002DE9FF5F15468A460446DFF8E5
:1004A000AC80F8440027D8E900103E46CDE90010A2
:1004B00010E03AF816106A4602A800F023FE411C2C
:1004C00007D02178890603D5E269391891420DD801
:1004D0000744761C2078800602D5E069B84205DD25
:1004E000AE42E6DB3AF816000028E2D1A069C01B54
:1004F000A0612046FFF7FEFED8E90010CDE900100C
:10050000002017E03AF818106A4602A800F0FAFD39
:10051000B0F1FF3F81460BD000250DF1080B05E03F
:10052000D4E901211BF8050090476D1C4D45F7D318
:1005300008F10100B0428046E4DB206A38442062C2
:100540002046FFF7EDFEBDE8FF9F0000925200003D
:100550002DE9F0418046D21D22F007020025D2E9A4
:100560000002F52915A614D0011E72F1000106DA69
:100570000023D0EB030063EB020211A608E0D8F8D9
:1005800000108B0701D50FA602E0490701D50EA682
:1005900001251146002408F1240704E000F05CF96D
:1005A00030323A55641C50EA0102F7D12B463246EC
:1005B00021464046BDE8F04100F093B9000000003C
:1005C0002D0000002B0000002000000030B40021AE
:1005D00000F1240408E002F00705D208303542EAB1
:1005E0004372DB086554491C52EA0305F3D10468E1
:1005F000002310A2250708D504F020040C4304D0E2
:10060000C46901230CA2641EC46130BC00F069B946
:1006100010B5044621461068FFF79CFE02462046AE
:10062000BDE810400023D1E7D21D22F00701D1E937
:100630000023CBE70000000030000000F0B40D46BE
:100640000188090502D5214C7C4402E01F4C7C4402
:100650000E34002100F1240608E002F00F07120911
:10066000E75D42EA03721B097754491C52EA03070B
:10067000F3D102780023120704D5702D06D009B1FA
:10068000022311342246F0BC00F02BB901231034B0
:10069000F8E770B504460D4621461068FFF75AFE8C
:1006A000024629462046BDE870400023C6E7D21D19
:1006B00022F00703D3E90023C0E70368126843F080
:1006C000200303600823C3610023B7E7F450000050
:1006D0002DE9F05F894604464FF0000ADFF874B157
:1006E000FB44C0F820A02046E1688847002874D069
:1006F000252806D0D4E901219047206A401C2062B9
:10070000F1E700265F462046E16888472028054635
:1007100007DB312D05D2781910F8200C08B10643FB
:10072000F1E7B00701D526F00406C4F81CA00027A5
:10073000C4F818A02A2D09D0284604F067FD38B364
:1007400004EB8708303DC8F8185019E059F8041B2D
:10075000204604EB87029161E1688847012F054636
:1007600018D1E069002820DA26F020061DE0D8F82C
:10077000180000EB800005EB40003038C8F8180086
:100780002046E1688847054604F040FD0028EED188
:10079000012F0AD02E2D08D12046E16888477F1C02
:1007A0000546022F46F02006C4DBA069002803DAC4
:1007B000404246F00106A061F00701D026F0100685
:1007C0006C2D0BD0682D09D04C2D39D06A2D35D029
:1007D000742D35D07A2D33D016E038E0E1682F46FD
:1007E00020468847B842054609D16C2F26D04FF4E1
:1007F0008060E168064320468847054604E06C2F88
:100800001AD04FF4807006430DB3A5F141001928AA
:1008100002D8203546F400664A462946204626601E
:100820004E46FFF79DFC80B101280BD0F61D26F047
:10083000070000F1080956E74020E4E78020D8E7E8
:100840000020D6E706F104094DE7284652E7206A62
:10085000BDE8F09F8450000030B5B0F10A0271F19C
:1008600000034FEA900E4EEA817EB0EB0E0061EB82
:1008700091014FEA101E4EEA017E10EB0E0041EB93
:1008800011114FEA102E4EEA016E10EB0E0041EBF3
:1008900011214FEA104E4EEA014E10EB0E0041EBD3
:1008A0001141401841F100014FEAD00040EA417087
:1008B0004FEAD1014FEA810444EA907410EB8005BD
:1008C00044EB01046D1944EB0404521BA3414FF0A7
:1008D000000348BF0A3200D530BD401C41F1000181
:1008E00030BD2DE9F0470D4699469246044600F189
:1008F00024080168880604D5E06921F01001216010
:1009000000E00120A84201DD471B00E00027A169AB
:100910007A1902EB0900081AA0612078C00602D4F7
:100920002046FFF7E7FC002608E0D4E901211AF889
:1009300006009047206A401C761C20624E45F4DB7E
:100940002078C0060AD52046FFF7D4FC06E0D4E99B
:10095000012130209047206A401C2062381EA7F1F8
:100960000107F4DC07E0D4E9012118F805009047FD
:10097000206A401C2062281EA5F10105F3DC2046F8
:10098000FFF7CEFC2078000602D50220BDE8F087F4
:100990000120FBE72DE9FF4F0C461E464FF0FF37C5
:1009A0008BB0D2E90001DDF860800A908A46C1F37D
:1009B0000A5505B93D46002108464FF00000BAF13E
:1009C000000F00F4400005DA00EB80004FF4400116
:1009D00001EA50004FEA9059B9F1010F00DDB94624
:1009E0000A9850EA4A000ED044F61050A5F2FF359E
:1009F00045432F14B8F1000F1ED07542291E1EDD8D
:100A0000C9F100021CE0B8F1010F4FF0000001D065
:100A1000302103E0F24305E02154401CB042FBDBEF
:100A200030460022002121540B99C1F80880C1E909
:100A300000200FB0BDE8F08FBD1B6D1CDEE74A46FD
:100A400000DA694206A800F0F3FB06AB93E8070062
:100A500003AB83E8070050460A9903F0FAFF8DE8DC
:100A60000700A0F500501F3800900398002D0ADD04
:100A700042F21F014A460844002303A90390684636
:100A800004F064FA09E0A0F500504A461F3800233C
:100A900003A90390684604F06EFA8DE8070000048D
:100AA000000C03D04FF0FF30410800E01046B8F1D1
:100AB000000F03D00022009215461EE0751E05D4DB
:100AC000FFF7CAFE303262556D1EF9D5B3460122DA
:100AD000084302D000227F1C04E02078302801D196
:100AE00000227F1E002A099784D01DE0112D07DA0D
:100AF000FFF7B2FE303262556D1C50EA0102F5D1AB
:100B0000084302D00098C8B10EE00021681E05E03D
:100B1000235C625C63542254401E491C8142F7DB13
:100B2000AB46A81B401E0990002004F80B000B9850
:100B3000099AC0F80880C0E9002B7AE711264FF027
:100B4000000857E72DE9F04F88460446D21D22F0F1
:100B5000070191B0D1E90001CDE90A0104F042FB9F
:100B600002460B98C00F01D02D2007E020688107B6
:100B700001D52B2002E0202101EAC000032A0990C0
:100B800001D0072A05DB03464146204600F010FB52
:100B90000BE12078800601D5E06900E00620B8F17D
:100BA000650F814606D0B8F1660F18D0B8F1670F0F
:100BB00070D131E00020B9F1110F009001DB112359
:100BC00001E009F101030AAA01A90CA8FFF7E2FE5E
:100BD000DDE90C70002609F10105834647E001209C
:100BE0004B4600904FF000470AAA01A90CA8FFF756
:100BF000D1FEDDE90DB00C995D46002610B909F172
:100C000001000D18B9EB050003D4C0F1FF3609F15E
:100C10000105A5EB09002BE0B9F1010F01DA4FF056
:100C200001090020B9F1110F0090484601DD1123A0
:100C300000E003460AAA01A90CA8FFF7ABFEDDE914
:100C40000C704D4600268346207800070AD4AB4539
:100C500000DA5D4601A8012D04DD411911F8011CDF
:100C6000302907D04F4502DA17F1040F04DA0120CA
:100C700082460FE06D1EEEE7002F02DCED1B3E44C6
:100C800003E0781CA84200DD7D1CB81B00F1010ABE
:100C90004FF000472078000703D4AA4501DB4FF04E
:100CA000FF3A0021B7F1004F0DF143088DF84310D2
:100CB00024D002202B23002F01DA7F422D230A218A
:100CC000021EA0F1010000DC5FB197FBF1FC97FB75
:100CD000F1F201FB1C7C17460CF1300C08F801CD39
:100CE000EEE7A8F1010003702188090501D545212F
:100CF00000E06521A0F1010800F8011C09980FA986
:100D0000A1EB0807FF1D00B10120411901EBEA70BA
:100D1000A1693844081A401EA0612078C00602D498
:100D20002046FFF7E7FA099828B1D4E90121904756
:100D3000206A401C20622078C00622D52046FFF79A
:100D4000D9FA1EE0002E04DBB34502DD01A8805D68
:100D500000E03020D4E901219047206A401C206245
:100D6000761CAAF101005FEA000A0AD100F01CFA21
:100D7000C0680168405CD4E901219047206A401CAA
:100D80002062281EA5F10105DCDC07E0D4E9012181
:100D900018F8010B9047206A401C2062381EA7F10A
:100DA0000107F3DC2046FFF7BBFA032011B041E650
:100DB0002DE9F04F04460D46D21D22F0070089B000
:100DC000D0E900974846394604F00CFA0246F80F7D
:100DD00001D02D2307E02068810701D52B2302E0F5
:100DE000202101EAC0038DF820300BB1012000E082
:100DF0000020032A824601D0072A04DB2946204628
:100E000000F0D6F93FE12078800601D40D2500E0FE
:100E1000E569C7F30A560D2D49DA00214FEA175B41
:100E200008464FF00000002F00F4400007DA00EB06
:100E300080004FF4400100EBD07001EA60008115A2
:100E4000012901DD4FF0FF3100224FEA850CBCF192
:100E5000180F06D31346ACF118004FF08052C24071
:100E600003E04FF4801323FA0CF30CF10C0CBCF1EB
:100E7000200F04D3ACF1200C09FA0CF001E007FAC2
:100E80000CF000294FF0004801DD18B90FE00ED139
:100E900040450CD319EB02095F4121B9404502D10D
:100EA0009F4329EA0209BBEB175F00D0761C20881C
:100EB000000502D57B48784402E07A487844193826
:100EC00008AA302302F80A30037C0AF10101002E3F
:100ED0000AF1020A53546A4602DC4FF0300101E085
:100EE0004FF031014FF001088DF8001002D0A6F24A
:100EF000FF3603E059EA470100D06B4E002D02DCBB
:100F00002178090704D54FF002082E218DF8011031
:100F1000C44600210BE0C7F303433F01C35C491CF7
:100F20006D1E02F80830052908F1010801DA002DCC
:100F3000F1DC00210CE000EB1973491C1B786D1EDD
:100F4000082902F808304FEA091908F1010801DA06
:100F5000002DF0DC21688B0602D516E0A8F101080F
:100F6000E04505DD02EB080313F8013C302BF5D01A
:100F7000B8F1000F09DD02EB080313F8013C2E2B3A
:100F800003D1090701D4A8F10108002D05DD3E2198
:100F900002F808106D1E08F10108407C002E02F8CE
:100FA000080008F1010804DA2D20764202F8080052
:100FB00002E02B2002F808000A214FF47A708642E2
:100FC00008F101080BDB96FBF0F3303302F8083030
:100FD00096FBF0F308F1010800FB136601E0642EB4
:100FE0000CDB642096FBF0F3303302F8083096FBFC
:100FF000F0F308F1010800FB136601E00A2E06DB9E
:1010000096FBF1F0303002F8080008F1010896FB79
:10101000F1F001FB1060303002F80800A16908F11E
:10102000010808EB050202EB0A00081AA06120780B
:10103000C00602D42046FFF75DF9216A08AE01EB35
:101040000A00206204E0D4E9012116F8010B904760
:10105000BAF1010AF7D22078C00602D52046FFF780
:1010600049F96E4609E016F8010B3E280FD0D4E985
:1010700001219047206A401C2062B8F10108F2D299
:101080002046FFF74DF909B00320BDE8F08F206A34
:101090002844206203E0D4E90121302090476D1EEE
:1010A000EBD3F8E7D248000002FCFFFF10B543691C
:1010B00013B1AFF3008001E0FFF755F9012010BD37
:1010C000127800F124010A7000224A700122EDE733
:1010D00011684FF0FF32E9E710B5436913B1AFF380
:1010E000008001E0FFF7D6F9012010BD128800F161
:1010F000240182840022C2840122EDE711684FF0AE
:10110000FF32E9E72DE9F04116460C46054600F0AE
:1011100043F8036893F80101012807D0FF2C12D887
:10112000185D80B101202C70BDE8F081D3F8070173
:101130003246214603F20713C7182846BC46BDE8CD
:10114000F041002360474FF0FF30EDE7754600F0B7
:10115000EBF8AE4605006946534620F00700854689
:1011600018B020B5FFF774F8BDE820404FF0000636
:101170004FF000074FF000084FF0000BAC46ACE812
:10118000C009ACE8C009ACE8C009ACE8C00921F06E
:1011900007018D467047000010B500F005F8001DEE
:1011A00010BD00BFA540000000487047400000206F
:1011B0002DE9F0411F46044603260168072A01F481
:1011C000006004DB08B116A505E016A503E008B130
:1011D00015A500E015A521F010002060A069C01E33
:1011E000A0610FB1401EA0612046FFF783F84FB108
:1011F000D4E9012138469047206A401C2062C01C77
:10120000206206E0206AFAE7D4E9012115F8010B13
:101210009047761EF8D22046FFF782F8BDE8F081AD
:101220004E414E006E616E00494E4600696E66008A
:101230002DE9F047814616468AB0354878440DC8F6
:101240008DE80D0032487844801C03AC0DC884E85A
:101250000D0041F69B300844372190FBF1F290FBE2
:10126000F1F5A5F1800501FB12041B3C02D5644297
:10127000012000E00020DFF898A080460027FA4413
:10128000AAF1BE0A0EE0E0070AD03246684607EB34
:10129000470101230AEB810103F06DFE8DE8070091
:1012A00064107F1C002CEED1194F7F44AE3F19E033
:1012B000E80715D007EB04100DF1180A90E80E00AE
:1012C0008AE80E00C068F04201D1981908903246B1
:1012D000012306A903A803F04EFE03AB83E8070031
:1012E0006D10641C002DE3D14FF0010332466946B6
:1012F000B8F1000F03A802D003F028FE01E003F0CC
:101300003AFEC9E90001C9F808200AB0BDE8F08733
:10131000DC45000010B50446AFF300802046BDE870
:101320001040FEF780BF00000048704720000020FA
:101330004FF0013C50F8042B51F8043B9A4221D164
:10134000A2EB0C03934313EACC1317D150F8042BF0
:1013500051F8043B9A4215D1A2EB0C03934313EAD4
:10136000CC130BD150F8042B51F8043B9A4209D10D
:10137000A2EB0C03934313EACC13DBD04FF0000035
:10138000704700BFD01A01BAB1FA81F101F018011B
:1013900022FA01F0CB40DBB2C0B2C01AC1F1200189
:1013A0002CFA01F3D11A914311EAC311E6D1704727
:1013B00001491820ABBEFEE726000200704700007E
:1013C000FFE7FEE780B582B00190019801F0C2FD11
:1013D00002B080BD82B00190ADF8021001980168A2
:1013E00000204862FFE701980068406ABDF80210DB
:1013F000884201D2FFE7F6E702B0704780B582B0BD
:10140000019001984068FFF7DDFF02B080BD000049
:1014100080B582B00190ADF8021001984068BDF827
:101420000210FFF7D7FF02B080BD000080B585B085
:1014300084460798CDF810C08DF80F1002920193E2
:10144000ADF802009DF80F00012805D1FFE70499CF
:1014500044F2506008800AE09DF80F00022805D190
:10146000FFE7049942F6E0600880FFE7FFE7019894
:101470000499C860BDF80200049908810298049993
:10148000486005B080BD000080B584B003900020A6
:1014900000908DF80B00039800F0A0F800980190E0
:1014A000FFE70198072834DCFFE7FFE7039800F027
:1014B00035F808B9FFE7F9E703982821FFF7A8FFF7
:1014C000039800F02BF860B9FFE70198C0F107011D
:1014D000012000FA01F19DF80B0088438DF80B0004
:1014E0000BE00198C0F10701012000FA01F19DF81D
:1014F0000B0008438DF80B00FFE7FFE7039800F0AF
:101500000DF808B1FFE7F9E7FFE701980130019016
:10151000C7E79DF80B0004B080BD000080B582B025
:1015200001900199C868098900F0A2FB8DF80300B9
:101530009DF8030002B080BD80B586B00590002004
:101540000090ADF80A00059800F074F80598FFF7D0
:101550009BFF8DF811000598FFF796FF8DF810009E
:101560000598FFF791FF8DF813000598FFF78CFFA2
:101570008DF812000598FFF787FFADF80A009DF877
:1015800013109DF8120040EA0120ADF80E009DF8FE
:1015900011109DF8100040EA0120ADF80C00BDF8D4
:1015A0000E0003F0F3FF009A0023C4F2240301931A
:1015B00003F092FE03F05EFE05990861BDF80C0091
:1015C00003F0E4FF009A019B03F086FE03F052FE55
:1015D000059948619DF80A0006B080BD80B586B0C7
:1015E00005900020049003900290019005990989CC
:1015F00001910290012003900598C06801A900F0B4
:10160000A7F906B080BD000080B586B00590002027
:1016100004900390029001900598008901900120A8
:101620000290022004900598C06801A900F090F98A
:1016300006B080BD80B584B003900398FFF7DEFE4E
:10164000002001908DF80B000398FFF7DDFF019952
:10165000039800F039F8039844F25061FFF7D8FE80
:101660000398012100F030F803981421FFF7D0FE11
:101670000398FFF7B3FF03982821FFF7C9FE0398EB
:10168000FFF74CFF90B9FFE703985021FFF7C0FE2A
:101690000398FFF743FF20B1FFE7FF208DF80B0011
:1016A00003E000208DF80B00FFE7FFE7FFE7039959
:1016B000C868098900F0DCFA08B1FFE7F7E79DF890
:1016C0000B0004B080BD000080B582B001908DF8A1
:1016D00003100199C86809899DF8032000F0E0FA19
:1016E00002B080BD7047000080B540F23C10C2F2ED
:1016F000000001F02FFC80BD81B0009040F23C1052
:10170000C2F20000016800204862FFE740F23C108E
:10171000C2F200000068406A0099884201D2FFE7E7
:10172000F4E701B07047000081B0EFF3108072B6AB
:101730000090FFE7FEE7000080B582B08DF807005B
:101740009DF8070040F29801C2F2000109780843B1
:101750008DF8060069460A20086040F2A000C2F237
:1017600000004E210DF10602012300F009FC02B039
:1017700080BD000083B0019000208DF80300019827
:1017800090F8210002280DD0FFE70199042088631A
:10179000FFE70199002081F82000FFE701208DF884
:1017A0000B0021E001980168086820F00E00086035
:1017B00001980168086820F0010008600198C16B79
:1017C000026C012090404860FFE70199012081F8F8
:1017D0002100FFE70199002081F82000FFE79DF834
:1017E00003008DF80B00FFE79DF80B0003B0704776
:1017F00080B588B0079000208DF81B00079890F8FE
:101800002100022807D0FFE7079904208863012000
:101810008DF81B0076E007980168086820F00E003C
:10182000086007980168086820F0010008600798C0
:1018300000680821C4F20201884203D1FFE70120B9
:10184000059047E0079800681C21C4F20201884215
:1018500003D1FFE71020049039E007980068302199
:10186000C4F20201884204D1FFE74FF48070039074
:101870002AE0079800684421C4F20201884204D19A
:10188000FFE74FF4805002901BE007980068582152
:10189000C4F20201884204D1FFE74FF48030019086
:1018A0000CE0079801686C22C4F202024FF08070CD
:1018B000914208BF4FF480100190FFE70198029019
:1018C000FFE702980390FFE703980490FFE704986E
:1018D0000590FFE705980421C4F20201086007990A
:1018E000012081F82100FFE70799002081F82000FE
:1018F000FFE70798406B20B1FFE70798416B8847E7
:10190000FFE7FFE79DF81B0008B080BD80B584B0FD
:10191000039000F0DDF902900398019001980130E6
:1019200048B1FFE740F21400C2F2000001780198CC
:1019300008440190FFE7FFE700F0CAF90299401A56
:101940000199884201D2FFE7F6E704B080BD0000AC
:1019500090B00F900E9100200D900990FFE70E9827
:1019600000680D99C840002800F07F81FFE70D99BD
:10197000012088400C900E9800680C9908400B904C
:101980000B980C99884240F06C81FFE70E984068F4
:101990000590002851D0FFE7059801283AD0FFE7CD
:1019A000059802283FD0FFE7059803285FD0FFE79E
:1019B0000598112832D0FFE70598122838D0FFE7A4
:1019C00005980021C1F21101884236D0FFE7059841
:1019D0000021C1F2120188422FD0FFE705980021B3
:1019E000C1F22101884228D0FFE705980021C1F209
:1019F0002201884221D0FFE705980021C1F2310180
:101A000088421AD0FFE705980021C1F232018842CE
:101A100013D02FE00E98C06809902CE00E98C06893
:101A20000430099027E00E98C0680830099022E041
:101A30000E98C0680C3009901DE00E98806818B9A7
:101A4000FFE70420099011E00E988068012806D174
:101A5000FFE7082009900C980F99086105E008201D
:101A600009900C980F994861FFE7FFE703E0002019
:101A7000099000E0FFE70B98FF2803D8FFE70F98D5
:101A8000049003E00F9804300490FFE70498089056
:101A90000B98FF2804D8FFE70D988000039006E01C
:101AA0000D996FF01F0000EB81000390FFE7039892
:101AB000079008980068079A0F2191408843099978
:101AC00091400843089908600E98C079C006002824
:101AD00040F1C680FFE7FFE741F21800C4F20200C0
:101AE000016841F001010160006800F0010006900A
:101AF0000698FFE70D9820F003000821C4F20101C9
:101B000040580A900D9800F0030081000F2000FA61
:101B100001F10A9888430A900F9840F60001C4F238
:101B20000101884203D1FFE70020029026E00F98D0
:101B300040F60041C4F20101884203D1FFE70120D1
:101B4000019018E00F9841F20001C4F201018842AF
:101B500003D1FFE7022000900AE00F9941F2004212
:101B6000C4F201020420914208BF03200090FFE765
:101B700000980190FFE701980290FFE702980D9905
:101B800001F00301890000FA01F10A9808430A9064
:101B90000A980D9921F003010822C4F2010288502D
:101BA0000E988079C006002809D5FFE70B9A40F20D
:101BB0000841C4F2010108681043086008E00B9A6C
:101BC00040F20841C4F20101086890430860FFE751
:101BD0000E9880798006002809D5FFE70B9A40F21D
:101BE0000C41C4F2010108681043086008E00B9A38
:101BF00040F20C41C4F20101086890430860FFE71D
:101C00000E9880798007002809D5FFE70B9A40F2EB
:101C10000441C4F2010108681043086008E00B9A0F
:101C200040F20441C4F20101086890430860FFE7F4
:101C30000E988079C00748B1FFE70B9A40F2004147
:101C4000C4F2010108681043086008E00B9A40F2F2
:101C50000041C4F20101086890430860FFE7FFE714
:101C6000FFE70D9801300D9079E610B07047000045
:101C700082B00190ADF8021001988068BDF80210A2
:101C8000084204D0FFE701208DF8010003E00020A6
:101C90008DF80100FFE79DF8010002B070470000D9
:101CA00082B00190ADF802108DF801209DF801007E
:101CB00028B1FFE7BDF802000199086105E0BDF811
:101CC0000200000401990861FFE702B070470000BC
:101CD00040F2CC10C2F200000068704780B58EB0B0
:101CE0000C900C9820B9FFE701208DF8370043E1F4
:101CF0000C9890F83D0040B9FFE70C99002081F85E
:101D00003C000C9800F040FAFFE70C99242081F881
:101D10003D000C980168086820F0010008600C98EC
:101D20000168086840F4004008600C980168086881
:101D300020F40040086000F051FC0A900C984068C4
:101D400048F2A061C0F2010188420BD8FFE70A996E
:101D500048F28042C0F21E020020914238BF0120AA
:101D600009900AE00A9940F60012C0F23D020020F4
:101D7000914238BF01200990FFE70998012804D15A
:101D8000FFE701208DF83700F6E00A984DF68361F1
:101D9000C4F21B31A0FB0110800C0B900C98006862
:101DA000406820F03F000B9908430C99096848608F
:101DB0000C980068006A20F03F0008900C9840687A
:101DC00048F2A061C0F20101884204D8FFE70B98F5
:101DD000013007900EE00B984FF49671484344F69B
:101DE000D351C1F26201A0FB0101012000EB91106F
:101DF0000790FFE70898079908430C99096808625B
:101E00000C980068C0694CF6FF71884306900C98E6
:101E1000406848F2A061C0F2010188421FD8FFE784
:101E20000A9801380C9949684900B0FBF1F001307B
:101E30006FF31F30032803D8FFE7042005900BE061
:101E40000A9801380C9949684900B0FBF1F001305B
:101E50006FF31F300590FFE7059804904CE00C9855
:101E6000806868B9FFE70A9801380C99496801EB66
:101E70004101B0FBF1F001306FF31F3003900DE032
:101E80000A9801380C99496819225143B0FBF1F0C6
:101E90000130042161F31F300390FFE70398000530
:101EA00018B9FFE70120029023E00C98806868B918
:101EB000FFE70A9801380C99496801EB4101B0FB32
:101EC000F1F001306FF31F3001900DE00A980138F6
:101ED0000C99496819225143B0FBF1F001300421FB
:101EE00061F31F300190FFE7019840F40040029039
:101EF000FFE702980490FFE70698049908430C99BD
:101F00000968C8610C980068006820F0C0000C9B4C
:101F10001968DA691B6A1A43104308600C98006854
:101F2000806848F2FF3188430C9A1168D3681269BF
:101F30001A43104388600C980068C06820F0FF00C6
:101F40000C9B19685A699B691A431043C8600C9826
:101F50000168086840F0010008600C9900200864DE
:101F60000C9A202182F83D100C9908630C9981F895
:101F70003E008DF83700FFE79DF837000EB080BDBA
:101F800080B588B0DDF828C00690ADF81610049230
:101F9000ADF80E30FFF79CFE0290069890F83D00D9
:101FA000202840F0E980FFE7069802996A46116010
:101FB0000221C0F210010122192301F0C1FC20B15D
:101FC000FFE702208DF81F00DAE0FFE7069890F89F
:101FD0003C00012804D1FFE702208DF81F00CFE06C
:101FE0000699012081F83C00FFE7FFE706980068AA
:101FF0000068C00738B9FFE706980168086840F034
:1020000001000860FFE706980168086820F4006096
:1020100008600699212081F83D000699102081F87A
:102020003E00069900200864049806994862BDF8AD
:102030000E00069948850698408D069908850699F0
:102040000020CFF6FF70C8620698BDF816100A9AF5
:10205000029B01F095FB20B1FFE701208DF81F00E6
:102060008EE0FFE70020019006980068406901902B
:1020700006980068806901900198FFE7FFE70698DD
:10208000008D002860D0FFE706980A99029A01F0B7
:1020900085FD80B1FFE70698006C042807D1FFE7B3
:1020A00006980168086840F400700860FFE70120A6
:1020B0008DF81F0064E006980168406A00780861A6
:1020C0000699486A013048620699488D013848856A
:1020D0000699088D0138088506980068406900F067
:1020E00004010120B0EB910F16D1FFE70698008D97
:1020F00090B1FFE706980168406A00780861069988
:10210000486A013048620699488D01384885069929
:10211000088D01380885FFE706980A99029A01F0B0
:10212000B9FB80B1FFE70698006C042807D1FFE7F0
:1021300006980168086840F400700860FFE7012015
:102140008DF81F001CE09AE706980168086840F4C3
:10215000007008600699202081F83D000699002053
:1021600081F83E00FFE70699002081F83C00FFE778
:1021700000208DF81F0003E002208DF81F00FFE70C
:102180009DF81F0008B080BD80B588B00790002082
:1021900006900590049003900798006845F200416E
:1021A000C4F2000188422CD1FFE7FFE741F218009A
:1021B000C4F20200016841F008010160006800F00B
:1021C000080002900298FFE7C020039012200490BC
:1021D0000320069040F60040C4F2010003A9FFF777
:1021E000B7FBFFE741F21C00C4F20200016841F4B2
:1021F00000110160006800F4001001900198FFE7F1
:10220000FFE708B080BD000040F21400C2F20000F9
:10221000027840F2CC11C2F2000108681044086054
:102220007047000080B542F20001C4F20201086864
:1022300040F010000860032000F096F80F2000F036
:1022400005F800F03BF8002080BD000080B582B0AA
:10225000009040F20000C2F20000006840F2140159
:10226000C2F200010A784FF47A71B1FBF2F1B0FBCF
:10227000F1F000F073FD20B1FFE701208DF80700B9
:1022800018E000980F280DD8FFE700994FF0FF30B5
:10229000002200F04FF8009840F21801C2F200014D
:1022A000086003E001208DF8070003E000208DF8AE
:1022B0000700FFE79DF8070002B080BD83B0FFE78D
:1022C00041F21800C4F20200016841F0010101600E
:1022D000006800F0010002900298FFE7FFE741F27A
:1022E0001C00C4F20200016841F0805101600068E6
:1022F00000F0805001900198FFE7FFE70421C4F24D
:10230000010108680090009820F0E06000900098BB
:1023100040F00070009000980860FFE703B070473D
:1023200080B582B08DF807009DF9070002F0CAFA67
:1023300002B080BD80B586B08DF81700049103927D
:102340000020029002F0D6FA02909DF91700019049
:1023500002980499039A01F0C5FE0146019802F023
:10236000D1FA06B080BD000080B582B0019001981E
:1023700002F0EAFA02B080BD80B584B0029001910B
:10238000029820B9FFE701208DF80F001BE10198AA
:1023900042F20001C4F20201096801F0070188421B
:1023A00016D9FFE742F20000C4F20200016821F0F2
:1023B0000701019A11430160006800F007000199CC
:1023C000884204D0FFE701208DF80F00FBE0FFE713
:1023D00002980078800700282AD5FFE70298007845
:1023E0004007002809D5FFE741F20401C4F20201C9
:1023F000086840F4E0600860FFE702980078000792
:10240000002809D5FFE741F20401C4F2020108687F
:1024100040F460500860FFE741F20401C4F2020199
:10242000086820F0F000029A926810430860FFE705
:1024300002980078C007002860D0FFE70298406843
:1024400001280ED1FFE741F20000C4F2020000684B
:102450008003002804D4FFE701208DF80F00B2E0CC
:1024600021E00298406802280ED1FFE741F2000007
:10247000C4F2020000688001002804D4FFE70120B4
:102480008DF80F009FE00DE041F20000C4F2020061
:1024900000688007002804D4FFE701208DF80F00B2
:1024A00091E0FFE7FFE741F20401C4F2020108688E
:1024B00020F00300029A526810430860FFF708FCFE
:1024C0000090FFE741F20400C4F20200006800F04F
:1024D0000C0002994968B0EB810F0ED0FFE7FFF7BF
:1024E000F7FB0099401A41F28931884204D3FFE793
:1024F00003208DF80F0066E0E4E7FFE7019842F261
:102500000001C4F20201096801F00701884216D2F5
:10251000FFE742F20000C4F20200016821F0070167
:10252000019A11430160006800F007000199884298
:1025300004D0FFE701208DF80F0044E0FFE7029888
:102540000078400700280CD5FFE741F20401C4F2EF
:102550000201086820F4E060029AD2681043086023
:10256000FFE702980078000700280DD5FFE741F249
:102570000401C4F20201086820F46050029A126952
:1025800040EAC2000860FFE700F04CF841F20401A5
:10259000C4F202010968C9B20A0945F63401C0F65D
:1025A0000001895CC84040F20001C2F200010860ED
:1025B00040F21800C2F200000068FFF747FE00205A
:1025C0008DF80F00FFE79DF80F0004B080BD0000FC
:1025D00040F20000C2F200000068704780B5FFF7CB
:1025E000F7FF41F20401C4F202010968C1F30222BB
:1025F00045F64401C0F60001895CC84080BD00007A
:1026000080B5FFF7E5FF41F20401C4F20201096859
:10261000C1F3C22245F64401C0F60001895CC840FE
:1026200080BD000086B000200590049003900290C9
:10263000019041F20400C4F2020000680590059880
:1026400000F00C000146009100283FD0FFE7009801
:10265000042804D0FFE70098082806D037E041F2AC
:102660000020C0F27A00019037E00598C0F3834162
:1026700045F64C00C0F60000405C02909DF8160044
:10268000C007C0B1FFE741F20400C4F202000068D5
:10269000C0F3404145F65C00C0F60000405C049089
:1026A000029841F20021C0F27A0148430499B0FB3C
:1026B000F1F0039007E0029840F60011C0F23D01EE
:1026C00048430390FFE70398019006E0FFE741F2DB
:1026D0000020C0F27A000190FFE7019806B0704731
:1026E00080B586B00490049820B9FFE701208DF8EA
:1026F00017002EE304980078C007002800F0AE8091
:10270000FFE741F20400C4F20200006800F00C0090
:10271000042813D0FFE741F20400C4F2020000686D
:1027200000F00C0008281BD1FFE741F20400C4F2BE
:1027300002000068C003002812D5FFE741F2000044
:10274000C4F2020000688003002808D5FFE704985F
:10275000406820B9FFE701208DF81700F9E27CE01E
:10276000FFE704984068B0F5803F09D1FFE741F2E8
:102770000001C4F20201086840F48030086032E0D1
:102780000498406868B9FFE741F20001C4F2020111
:10279000086820F480300860086820F48020086011
:1027A00020E004984068B0F5A02F0DD1FFE741F27A
:1027B0000001C4F20201086840F480200860086843
:1027C00040F4803008600CE041F20001C4F20201E4
:1027D000086820F480300860086820F480200860D1
:1027E000FFE7FFE7FFE7FFE704984068D0B1FFE7A6
:1027F000FFF76EFA0390FFE741F20000C4F2020017
:102800000068800300280CD4FFE7FFF761FA039902
:10281000401A652804D3FFE703208DF8170098E2DB
:10282000EAE719E0FFF754FA0390FFE741F20000EE
:10283000C4F202000068800300280CD5FFE7FFF710
:1028400047FA0399401A652804D3FFE703208DF85F
:1028500017007EE2EAE7FFE7FFE7FFE7049800786A
:102860008007002840F18D80FFE741F20400C4F2A8
:102870000200006810F00C0F13D0FFE741F20400D3
:10288000C4F20200006800F00C00082829D1FFE71C
:1028900041F20400C4F202000068C003002820D402
:1028A000FFE741F20000C4F2020000688007002840
:1028B00009D5FFE704980069012804D0FFE701204B
:1028C0008DF8170045E241F20001C4F202010868E8
:1028D00020F0F800049A526940EAC2000860FFE75D
:1028E0004EE00498006958B3FFE70021C4F242218A
:1028F00001200860FFF7ECF90390FFE741F20000C8
:10290000C4F202000068800700280CD4FFE7FFF73C
:10291000DFF90399401A032804D3FFE703208DF859
:10292000170016E2EAE741F20001C4F2020108686A
:1029300020F0F800049A526940EAC20008601EE0E4
:102940000021C4F2422100200860FFF7C1F9039082
:10295000FFE741F20000C4F202000068800700288F
:102960000CD5FFE7FFF7B4F90399401A032804D305
:10297000FFE703208DF81700EBE1EAE7FFE7FFE749
:10298000FFE7049800780007002848D5FFE704987F
:10299000806918B3FFE740F28041C4F24221012070
:1029A0000860FFF795F90390FFE741F22400C4F2B5
:1029B00002000068800700280CD4FFE7FFF788F9C1
:1029C0000399401A032804D3FFE703208DF817006A
:1029D000BFE1EAE7012001F0D7FB1FE040F28041B0
:1029E000C4F2422100200860FFF772F90390FFE76C
:1029F00041F22400C4F202000068800700280CD5D0
:102A0000FFE7FFF765F90399401A032804D3FFE7AE
:102A100003208DF817009CE1EAE7FFE7FFE7049841
:102A200000784007002840F1D880FFE700208DF8AB
:102A3000070041F21C00C4F202000068C000002838
:102A400013D4FFE7FFE741F21C00C4F20200016863
:102A500041F080510160006800F0805000900098C3
:102A6000FFE701208DF80700FFE747F20000C4F2FE
:102A700000000068C005002822D4FFE747F20001EB
:102A8000C4F20001086840F480700860FFF720F984
:102A90000390FFE747F20000C4F200000068C005A1
:102AA00000280CD4FFE7FFF713F90399401A6528B3
:102AB00004D3FFE703208DF817004AE1EAE7FFE7B8
:102AC000FFE70498C068012809D1FFE741F220011F
:102AD000C4F20201086840F00100086031E0049887
:102AE000C06868B9FFE741F22001C4F2020108683A
:102AF00020F001000860086820F0040008601FE072
:102B00000498C06805280DD1FFE741F22001C4F206
:102B10000201086840F004000860086840F0010005
:102B200008600CE041F22001C4F20201086820F0C4
:102B300001000860086820F004000860FFE7FFE774
:102B4000FFE7FFE70498C068E0B1FFE7FFF7C0F8D0
:102B50000390FFE741F22000C4F202000068800702
:102B600000280ED4FFE7FFF7B3F80399401A41F2AB
:102B70008931884204D3FFE703208DF81700E8E08D
:102B8000E8E71BE0FFF7A4F80390FFE741F220001D
:102B9000C4F202000068800700280ED5FFE7FFF7A7
:102BA00097F80399401A41F28931884204D3FFE72C
:102BB00003208DF81700CCE0E8E7FFE79DF8070059
:102BC000012809D1FFE741F21C01C4F202010868A3
:102BD00020F080500860FFE7FFE70498C0690028F4
:102BE00000F0B380FFE741F20400C4F20200006885
:102BF00000F00C00082800F08280FFE70498C0690C
:102C000002285CD1FFE76021C4F242210020086065
:102C1000FFF75EF80390FFE741F20000C4F2020004
:102C20000068800100280CD5FFE7FFF751F80399F1
:102C3000401A032804D3FFE703208DF8170088E02B
:102C4000EAE70498006AB0F5803F0CD1FFE741F253
:102C50000401C4F20201086820F40030049A92686A
:102C600010430860FFE741F20401C4F20201086862
:102C700020F47410049B1A6A5B6A1A4310430860BC
:102C80006021C4F2422101200860FFF721F803907F
:102C9000FFE741F20000C4F2020000688001002852
:102CA0000CD4FFE7FFF714F80399401A032804D364
:102CB000FFE703208DF817004BE0EAE71EE06021F4
:102CC000C4F2422100200860FFF702F80390FFE7FA
:102CD00041F20000C4F202000068800100280CD517
:102CE000FFE7FEF7F5FF0399401A032804D3FFE737
:102CF00003208DF817002CE0EAE7FFE724E00498B2
:102D0000C069012804D1FFE701208DF8170020E0F9
:102D100041F20400C4F2020000680290029800F43C
:102D200080300499096A884208D1FFE7029800F4CC
:102D300070100499496A884204D0FFE701208DF899
:102D4000170006E0FFE7FFE7FFE700208DF8170018
:102D5000FFE79DF8170006B080BD000080B582B087
:102D60000190019801F06AFA02B080BD85B003902D
:102D70000291FFE7039890F83C00012804D1FFE797
:102D800002208DF813005BE00399012081F83C00DC
:102D9000FFE7FFE70399022081F83D0003980068F0
:102DA000406801900398006880680090019820F0C6
:102DB0007000019002980168019808430190019801
:102DC0000399096848600398006842F60041C4F21C
:102DD0000101884218D0FFE703980068B0F1804FE6
:102DE00012D0FFE70398006840F20041C4F20001EE
:102DF000884209D0FFE70398006840F60001C4F25A
:102E0000000188420ED1FFE7009820F0800000907A
:102E10000298416800980843009000980399096857
:102E20008860FFE70399012081F83D00FFE70399DF
:102E3000002081F83C00FFE700208DF81300FFE739
:102E40009DF8130005B0704780B582B000900098DF
:102E500020B9FFE701208DF807003FE0009890F8C7
:102E60003D0040B9FFE70099002081F83C00009840
:102E700000F038F8FFE70099022081F83D00009942
:102E800051F8040B01F040FA0099012081F8460046
:102E9000FFE70099012081F83E00009981F83F008A
:102EA000009981F84000009981F84100FFE7FFE7B1
:102EB0000099012081F84200009981F843000099AF
:102EC00081F84400009981F84500FFE7009901204E
:102ED00081F83D0000208DF80700FFE79DF807000E
:102EE00002B080BD83B002900298006842F60041B3
:102EF000C4F20101884210D1FFE7FFE741F2180058
:102F0000C4F20200016841F400610160006800F44D
:102F1000006001900198FFE719E00298006840F610
:102F20000001C4F20001884210D1FFE7FFE741F23F
:102F30001C00C4F20200016841F004010160006855
:102F400000F0040000900098FFE7FFE7FFE703B000
:102F50007047000083B00190019890F83D0001286F
:102F600004D0FFE701208DF80B0041E00199022019
:102F700081F83D000198006842F60041C4F2010169
:102F8000884218D0FFE701980068B0F1804F12D056
:102F9000FFE70198006840F20041C4F20001884256
:102FA00009D0FFE70198006840F60001C4F2000173
:102FB000884212D1FFE701980068806800F007009E
:102FC00000900098062807D0FFE70198016808687C
:102FD00040F001000860FFE706E00198016808681A
:102FE00040F001000860FFE700208DF80B00FFE7CC
:102FF0009DF80B0003B0704780B586B00490039134
:1030000000208DF80B00FFE7049890F83C000128A1
:1030100004D1FFE702208DF81700ABE004990120EE
:1030200081F83C00FFE7FFE70499022081F83D00AA
:103030000498006880680190019820F07700019062
:10304000019820F47F4001900198049909688860F4
:10305000039800680090002872D0FFE700981028BD
:103060006ED0FFE7009820286AD0FFE7009830284C
:1030700066D0FFE70098402855D0FFE70098502819
:1030800037D0FFE70098602840D0FFE7009870280D
:103090000BD0FFE70098B0F5805F05D0FFE7009800
:1030A000B0F5005F16D052E055E004980068039B2D
:1030B0005A689968DB6801F09FF904980068806895
:1030C0000190019840F077000190019804990968F7
:1030D000886040E004980068039B5A689968DB6840
:1030E00001F08AF904980168886840F4804088609B
:1030F00031E004980068039A5168D26801F0ACF995
:1031000004980068502101F091F924E004980068C7
:10311000039A5168D26801F0C7F9049800686021E9
:1031200001F084F917E004980068039A5168D268A6
:1031300001F092F904980068402101F077F90AE063
:10314000049800680399096801F070F903E0012010
:103150008DF80B00FFE70499012081F83D00FFE79F
:103160000499002081F83C00FFE79DF80B008DF8E2
:103170001700FFE79DF8170006B080BD82B00190F0
:10318000ADF8021002B0704781B0009001B07047F6
:1031900080B592B011901198006800681090119855
:1031A0000068C0680F901198006840690E90002078
:1031B0000D900C90109800F00F000D900D9888B9AC
:1031C000FFE79DF84000800600280AD5FFE79DF83C
:1031D0003C008006002804D5FFE7119801F0FCF9B7
:1031E000E9E1FFE70D98002800F0C280FFE79DF8B5
:1031F0003800C00738B9FFE7BDF83C0010F4907FF5
:1032000000F0B680FFE79DF84000C00758B1FFE727
:103210009DF83D00C00730B1FFE71199486C40F0C0
:1032200001004864FFE79DF84000400700280BD5E7
:10323000FFE79DF83800C00730B1FFE71199486CEF
:1032400040F002004864FFE79DF840008007002836
:103250000BD5FFE79DF83800C00730B1FFE71199A3
:10326000486C40F004004864FFE79DF84000000708
:10327000002811D5FFE79DF83C008006002805D402
:10328000FFE79DF83800C00730B1FFE71199486C9F
:1032900040F008004864FFE71198406C002866D0B1
:1032A000FFE79DF84000800600280AD5FFE79DF85B
:1032B0003C008006002804D5FFE7119801F08CF946
:1032C000FFE7119800684069C0F380100C901198D6
:1032D000406C0007002804D4FFE70C9800283ED07B
:1032E000FFE7119801F01AF911980068406940064B
:1032F00000282FD5FFE7FFE7FFE71198006850E8A7
:10330000050F20F040000B90FFE70B991198026821
:1033100042E805100028F0D1FFE7FFE71198C06BE5
:1033200098B1FFE71198C16B44F2FD40C0F6000070
:1033300048631198C06BFEF75BFA28B1FFE711985C
:10334000C06B416B8847FFE703E01198FFF71CFF54
:10335000FFE703E01198FFF717FFFFE706E011987A
:10336000FFF712FF119900204864FFE7FFE722E111
:103370001198006B012840F0FE80FFE79DF84000A7
:10338000C006002840F1F780FFE79DF83C00C0062A
:10339000002840F1F080FFE7FFE700200A90119835
:1033A000006800680A901198006840680A900A98BE
:1033B000FFE71198006840694006002840F18180CD
:1033C000FFE71198C06B00684068ADF82600BDF8B3
:1033D0002600002874D0FFE7BDF826001199898DDA
:1033E00088426DDAFFE7BDF826001199C88511986B
:1033F000C06B8069202858D0FFE7FFE7FFE71198EE
:10340000006850E8030F20F480700890FFE70899E7
:103410001198026842E803100028F0D1FFE7FFE7A7
:10342000FFE7FFE71198006850E8050F20F0010062
:103430000790FFE707991198026842E805100028F5
:10344000F0D1FFE7FFE7FFE7FFE71198006850E8DA
:10345000050F20F040000690FFE7069911980268DA
:1034600042E805100028F0D1FFE7FFE7119920207E
:1034700081F84200119900200863FFE7FFE71198E7
:10348000006850E8030F20F010000590FFE7059951
:103490001198026842E803100028F0D1FFE7FFE727
:1034A0001198C06BFEF766F9FFE711990220486397
:1034B0001198818DC28D891A89B2FFF75FFEFFE7EF
:1034C00079E01199888DC98D401AADF812001198D4
:1034D000C08D00284ED0FFE7BDF81200002849D06B
:1034E000FFE7FFE7FFE71198006850E8030F20F4BB
:1034F00090700390FFE703991198026842E8031067
:103500000028F0D1FFE7FFE7FFE7FFE71198006829
:1035100050E8050F20F001000290FFE70299119892
:10352000026842E805100028F0D1FFE7FFE7119993
:10353000202081F84200119900200863FFE7FFE78F
:103540001198006850E8030F20F010000190FFE789
:1035500001991198026842E803100028F0D1FFE7B2
:10356000FFE71199022048631198BDF81210FFF788
:1035700005FEFFE71FE09DF84000000600280AD581
:10358000FFE79DF83C000006002804D5FFE71198EE
:1035900001F036F90FE09DF84000400600280AD5FA
:1035A000FFE79DF83C004006002804D5FFE711988E
:1035B00000F0FEFFFFE712B080BD000080B582B0D2
:1035C0000090009820B9FFE701208DF8070040E047
:1035D0000098806908B1FFE700E0FFE7009890F8E5
:1035E000410040B9FFE70099002081F840000098B1
:1035F00000F034F8FFE70099242081F8410000989A
:103600000168C86820F40050C860009801F09AF87A
:1036100000980168086920F49040086100980168EA
:10362000486920F02A00486100980168C86840F4A1
:103630000050C860009900204864009A202182F858
:103640004110009A82F84210009948638DF80700F3
:10365000FFE79DF8070002B080BD000080B58CB088
:103660000B9000200A900990089007900B98006832
:1036700043F60001C4F20101884243D1FFE7FFE7AE
:1036800041F21800C4F20200016841F48041016077
:10369000006800F4804006900698FFE7FFE741F2DB
:1036A0001800C4F20200016841F0040101600068E2
:1036B00000F0040005900598FFE74FF400700790B4
:1036C0000220089003200A9040F60000C4F2010096
:1036D000019007A90291FEF73BF9019802994FF476
:1036E000806207920022039208920992FEF730F955
:1036F000039A252004901146FEF71CFE0498FEF75D
:103700000FFEFFE70CB080BD81B0009001B07047A4
:1037100081B0009001B07047FFE7FEE782B00090F3
:1037200000980068406900F480610120B0EB912F9F
:103730001ED1FFE7009801686FF48060486100992E
:1037400000200863009A202182F83D10009981F83A
:103750003E000099086C40F004000864FFE70099FF
:10376000002081F83C00FFE701208DF8070003E00E
:1037700000208DF80700FFE79DF8070002B07047B2
:1037800080B588B00690ADF81610049203930698A1
:10379000C06A02900298082809D0FFE70298012821
:1037A00005D0FFE7029810F5803F07D1FFE70698A4
:1037B0000168086840F4807008600DE00698006BAE
:1037C000122807D1FFE706980168086840F4807066
:1037D000086000E0FFE7FFE70698049B03996A464C
:1037E00011604FF00111002200F0AAF880B1FFE74C
:1037F000069800680068C005002805D5FFE706990F
:103800004FF400700864FFE703208DF81F003CE0D0
:1038100006980069B0F5804F08D1FFE7BDF81600A3
:1038200000F0FE000699096808611CE0BDF816006A
:1038300000F44070C009F0300699096808610698E4
:10384000049A039B0821C0F2010100F0FDF820B1A9
:10385000FFE701208DF81F0017E09DF8160006997C
:1038600009680861FFE70698049A039B0221C0F2E9
:10387000010100F0E9F820B1FFE701208DF81F00F9
:1038800003E000208DF81F00FFE79DF81F0008B03F
:1038900080BD000080B584B0029001910092FFE7E6
:1038A00002980068406900F004010020B0EB910F1D
:1038B0003ED1FFE70298FFF731FF20B1FFE701207B
:1038C0008DF80F0038E00198013080B3FFE7FEF774
:1038D000FFF90099401A0199884203D8FFE701983F
:1038E00020BBFFE702980068406900F00401002057
:1038F000B0EB910F19D1FFE7029900200863029AFB
:10390000202182F83D10029981F83E000299086C4E
:1039100040F020000864FFE70299002081F83C0095
:10392000FFE701208DF80F0006E0FFE7FFE7B7E7AC
:1039300000208DF80F00FFE79DF80F0004B080BD58
:1039400080B588B0DDF828C0069005918DF8132069
:103950000393FFE79DF8160001280CD1FFE70698B6
:1039600000684069BDF814100840401AB0FA80F0B1
:10397000400902900BE0069800688069BDF81410B9
:103980000840401AB0FA80F040090290FFE7029820
:103990009DF8131088424FD1FFE7039801300028AB
:1039A00049D0FFE7FEF794F90A99401A0399884233
:1039B00003D8FFE70398E8BBFFE79DF8160001284E
:1039C0000CD1FFE7069800684069BDF81410084064
:1039D000401AB0FA80F0400901900BE006980068A8
:1039E0008069BDF814100840401AB0FA80F0400910
:1039F0000190FFE701989DF81310884219D1FFE765
:103A0000069900200863069A202182F83D10069945
:103A100081F83E000699086C40F020000864FFE73A
:103A20000699002081F83C00FFE701208DF81F0077
:103A300006E0FFE7FFE78DE700208DF81F00FFE7B6
:103A40009DF81F0008B080BD80B588B00690059134
:103A500004920393FFE79DF8160001280CD1FFE7BD
:103A6000069800684069BDF814100840401AB0FA82
:103A700080F0400902900BE0069800688069BDF86C
:103A800014100840401AB0FA80F040090290FFE795
:103A9000029800287AD1FFE706980068406900F490
:103AA00080610120B0EB912F24D1FFE706980168D7
:103AB000086840F400700860069801686FF4806040
:103AC0004861069900200863069A202182F83D107B
:103AD000069981F83E000699086C40F004000864DD
:103AE000FFE70699002081F83C00FFE701208DF8F0
:103AF0001F004FE004980130002846D0FFE7FEF792
:103B0000E7F80399401A0499884203D8FFE704981C
:103B1000D0BBFFE79DF8160001280CD1FFE70698FF
:103B200000684069BDF814100840401AB0FA80F0EF
:103B3000400901900BE0069800688069BDF81410F8
:103B40000840401AB0FA80F040090190FFE7019860
:103B5000C8B9FFE7069900200863069A202182F879
:103B60003D10069981F83E000699086C40F020004F
:103B70000864FFE70699002081F83C00FFE7012078
:103B80008DF81F0006E0FFE7FFE764E700208DF8EF
:103B90001F00FFE79DF81F0008B080BD80B584B00E
:103BA000029001910092FFE7029800684069C1B25B
:103BB0000020B0EBD11F3DD1FFE70298FFF7AEFD2B
:103BC00020B1FFE701208DF80F0037E001980130A8
:103BD00078B3FFE7FEF77CF80099401A0199884214
:103BE00003D8FFE7019818BBFFE702980068406917
:103BF000C1B20020B0EBD11F19D1FFE7029900201C
:103C00000863029A202182F83D10029981F83E0053
:103C10000299086C40F020000864FFE70299002038
:103C200081F83C00FFE701208DF80F0006E0FFE778
:103C3000FFE7B9E700208DF80F00FFE79DF80F00C0
:103C400004B080BD80B540F29801C2F200010820A6
:103C500008700020FDF770FD80BD000080B50120D8
:103C600000F0E0FA4FF4FA60FDF746FD80BD000079
:103C700080B584B08DF80F0002919DF80F0000F020
:103C800007008DF80F009DF80F10402040EAC1009A
:103C9000C0B200F0C7FA00200190FFE701980728A2
:103CA0000ADCFFE702980199405C00F0AFFAFFE7F9
:103CB000019801300190F1E704B080BD80B540F279
:103CC0009900C2F20000017841F002010170007811
:103CD00040F0080000F0A6FA80BD000080B540F278
:103CE0009900C2F20000017841F0040101700078EF
:103CF00040F0080000F096FA80BD000080B5022078
:103D000000F090FA4FF4FA60FDF7F6FC80BD000079
:103D100080B584B08DF80F009DF80F1040F29C0024
:103D2000C2F20000017040F29802C2F200020821C3
:103D3000117040F29A02C2F2000200211170007864
:103D4000022809DBFFE740F29A01C2F2000108787D
:103D500040F00800087008E040F29A01C2F2000149
:103D6000087840F004000870FFE7FDF7BDFC322042
:103D7000FDF7CCFD40F29800C2F200000078FDF79C
:103D8000DBFC4FF47A70FDF7C1FD3020019000F0AC
:103D90008BFD41F294100290FDF7AEFC019800F00B
:103DA00083FD0298FDF7A8FC019800F07DFD0298C4
:103DB000FDF7A2FC202000F077FD6420FDF79CFCBD
:103DC00040F29A00C2F20000007840F0200000F0BB
:103DD00029FA40F29901C2F2000104200870FFF7AD
:103DE0007DFFFFF73BFF40F29B00C2F20000022183
:103DF0000170007840F0040000F014FA0298FDF71A
:103E00007BFC40F20401C2F200010020FFF730FF0A
:103E100040F20C01C2F200010120FFF729FFFFF779
:103E20006DFF04B080BD000080B582B00190FFE757
:103E30000198007838B1FFE70198411C01910078A2
:103E400000F0E4F9F4E702B080BD000080B586B070
:103E50008DF817008DF8161054200490142003904C
:103E600040200290002001909DF8160040F29C0135
:103E7000C2F200010978884209DBFFE740F29C00AA
:103E8000C2F20000007801388DF81600FFE79DF8B7
:103E900017009DF8162001A951F82210084440F09F
:103EA0008000C0B200F0BEF906B080BD80B58AB017
:103EB00000200990089007900690FFE741F2180053
:103EC000C4F20200016841F020010160006800F0C6
:103ED000200005900598FFE7FFE741F21800C4F2C3
:103EE0000200016841F008010160006800F008006C
:103EF00004900498FFE7FFE741F21800C4F20200C3
:103F0000016841F004010160006800F004000390C2
:103F10000398FFE740F60040C4F20100029040F22F
:103F20000321009100220192FDF7BAFE009A019947
:103F3000029806920122079208910221099106A98E
:103F4000FDF706FD0AB080BD80B582B040F2A0004A
:103F5000C2F20000019045F20041C4F2000101608C
:103F600048F2A061C0F20101416000218160C1609E
:103F70004FF48042026141618161C1610162FDF7DC
:103F8000ADFE18B1FFE7FDF7CFFBFFE702B080BD44
:103F900080B588B0002100910791069105910491A8
:103FA0000391029140F2F400C2F20000019042F647
:103FB0000042C4F2010202604722426081604FF673
:103FC000FE72C260016141618161FEF73DFF18B17F
:103FD000FFE7FDF7A9FBFFE74FF48050049040F2A4
:103FE000F400C2F2000004A9FFF706F818B1FFE7D9
:103FF000FDF79AFBFFE700200290039040F2F400E7
:10400000C2F2000002A9FEF7B1FE18B1FFE7FDF70A
:104010008BFBFFE708B080BD80B588B0002101911F
:1040200007910691059104910391029140F23C1091
:10403000C2F2000040F60002C4F200020260472211
:10404000426081604FF6FE72C26001618161FEF7DD
:10405000FBFE18B1FFE7FDF767FBFFE74FF4805069
:10406000049040F23C10C2F2000004A9FEF7C4FF25
:1040700018B1FFE7FDF758FBFFE70020029003901F
:1040800040F23C10C2F2000002A9FEF76FFE18B128
:10409000FFE7FDF749FBFFE708B080BD80B582B0C0
:1040A00040F28410C2F20000019043F60001C4F215
:1040B000010101604FF4E131416000218160C16084
:1040C00001610C2242618161C161FFF777FA18B189
:1040D000FFE7FDF729FBFFE702B080BDFFE7FEE742
:1040E000FFE7FEE788B0079006910592079800F079
:1040F000070004900498C0F10700052803D3FFE7E8
:104100000420019004E00498C0F107000190FFE74B
:104110000198039004980430062803D8FFE7002094
:10412000009003E0049803380090FFE700980290A5
:1041300006980399012202FA01F101390840029B15
:10414000984005999A40013A1140084308B07047D9
:104150007047000080B582B08DF807009DF8070019
:1041600040F00400FDF7E8FA14200090FDF7C4FACF
:104170009DF8070000F0FB00FDF7DEFA0098FDF760
:10418000BBFA02B080BD000082B00190019840F2FD
:104190000001C2F200010968C90844F6D352C1F215
:1041A0006202A1FB0221890948430090FFE700BF9A
:1041B000FFE70098411E00910028F8D1FFE702B008
:1041C000704700007047000080B582B08DF807008E
:1041D0008DF806109DF8070000F0F0008DF805003E
:1041E0009DF8070000018DF804009DF805009DF87A
:1041F0000610084300F058FB9DF804009DF80610D7
:10420000084300F051FB02B080BD000080B582B0D1
:104210008DF807009DF807000121FFF7D5FF02B0D8
:1042200080BD000080B582B08DF807009DF80700C2
:104230000021FFF7C9FF02B080BD000080B582B049
:10424000009000980138B0F1807F03D3FFE7012090
:10425000019019E0009801384EF21401CEF20001ED
:1042600008604FF0FF300F2100F04CFB4EF21801B8
:10427000CEF20001002008604EF21002CEF20002E1
:10428000072111600190FFE7019802B080BD000096
:1042900080B5FDF7B9FF80BD80B590B006A800904D
:1042A0002821FBF7FDFF0098002305930493039357
:1042B00002930193012206924FF4803107910893F3
:1042C0000A9202220D920E914FF4E0110F91FEF727
:1042D00007FA18B1FFE7FDF727FAFFE70F20019073
:1042E00002210291002003904FF480620492059015
:1042F00001A8FEF741F818B1FFE7FDF715FAFFE74F
:1043000010B080BD7047000083B002900191029808
:1043100000680090029842F60041C4F20101884210
:1043200015D0FFE70298B0F1804F10D0FFE7029858
:1043300040F20041C4F20001884208D0FFE7029831
:1043400040F60001C4F2000188420AD1FFE700985C
:1043500020F0700000900198416800980843009098
:10436000FFE7029842F60041C4F20101884215D0ED
:10437000FFE70298B0F1804F10D0FFE7029840F2BB
:104380000041C4F20001884208D0FFE7029840F6DD
:104390000001C4F2000188420AD1FFE7009820F42E
:1043A000407000900198C168009808430090FFE7B2
:1043B000009820F080000199496908430090009816
:1043C00002990860019880680299C86201980068A3
:1043D00002998862029842F60041C4F201018842C3
:1043E00005D1FFE70198006902990863FFE7029988
:1043F0000120486103B0704785B004900391029298
:104400000193049880680090009820F47F40009009
:1044100003980299019A41EA022101430098084356
:10442000009000980499886005B0704783B00290AE
:104430000191029880680090009820F07000009030
:1044400001980099084340F00700009000980299F5
:10445000886003B07047000085B004900391029219
:104460000498006A00900499086A20F0010008622C
:10447000049880690190019820F0F0000190029961
:10448000019840EA01100190009820F00A00009085
:104490000399009808430090019804998861009856
:1044A0000499086205B0704785B0049003910292A8
:1044B0000498006A00900499086A20F010000862CD
:1044C000049880690190019820F47040019002994D
:1044D000019840EA01300190009820F0A00000907F
:1044E0000399009840EA01100090019804998861AE
:1044F00000980499086205B07047000080B582B04A
:1045000001900198406A009000990020C8850099A8
:10451000C8840098FEF738FE02B080BD84B00390D6
:10452000FFE7FFE70398006850E8030F20F490705E
:104530000290FFE702990398026842E803100028FE
:10454000F0D1FFE7FFE7FFE7FFE70398006850E8D7
:10455000050F20F001000190FFE701990398026820
:1045600042E805100028F0D1FFE7FFE70398006B51
:10457000012814D1FFE7FFE7FFE70398006850E840
:10458000030F20F010000090FFE7009903980268E5
:1045900042E803100028F0D1FFE7FFE7FFE70399A7
:1045A000202081F8420003990020086304B070477E
:1045B00080B582B0019001980168C86820F0400081
:1045C000C8600199202081F841000198FFF7A0F808
:1045D000002002B080BD000080B586B00490049831
:1045E00090F84200222840F0A480FFE704988068F9
:1045F000B0F5805F15D1FFE70498006988B9FFE73F
:10460000002003900498806A029004980068406833
:104610006FF35F20029908800499886A02308862EB
:1046200025E00498806A0390002002900498806836
:10463000B0F5805F08D0FFE70498806850B9FFE7C5
:104640000498006930B9FFE704980068406803994E
:10465000087007E004980068406800F07F00039944
:104660000870FFE70499886A01308862FFE70499BF
:10467000C88D0138C8850004002856D1FFE704988A
:104680000168C86820F02000C86004980168C86804
:1046900020F48070C86004980168486920F0010027
:1046A00048610499202081F8420004990020486361
:1046B0000498006B012830D1FFE7049900200863BB
:1046C000FFE7FFE70498006850E8030F20F01000B0
:1046D0000190FFE701990498026842E8031000285E
:1046E000F0D1FFE7FFE7049800680068C0060028E3
:1046F0000ED5FFE7FFE700200090049800680068EF
:10470000009004980068406800900098FFE7FFE779
:104710000498818DFEF732FD03E00498FEF7F4FF64
:10472000FFE700208DF8170007E000208DF8170044
:1047300003E002208DF81700FFE79DF8170006B090
:1047400080BD000080B584B00390039800680069C4
:1047500020F44050039A1168D2681043086103990D
:1047600088680A6949691043084302900398006801
:10477000C06841F20C6188430299084303990968B3
:10478000C86003980068406920F44070039A11687B
:104790009269104348610398006843F60001C4F22F
:1047A0000101884204D1FFE7FDF72AFF019003E0F1
:1047B000FDF714FF0190FFE7019819214843039A80
:1047C000116852689200B0FBF2FC48F21F52C5F229
:1047D000EB12ACFB02304309642003FB10CC322007
:1047E00000EB0C10A0FB0202F02000EA521000EBDC
:1047F0000310C2F343121044886004B080BD00006F
:1048000083B00190019890F8410021283AD1FFE748
:1048100001988068B0F5805F13D1FFE701980069C7
:1048200078B9FFE70198006A0090009800886FF35C
:104830005F200199096848600199086A023008629E
:1048400008E0019A106A411C116200780199096818
:104850004860FFE70199C88C0138C884000468B932
:10486000FFE701980168C86820F08000C8600198DF
:104870000168C86840F04000C860FFE700208DF87C
:104880000B0003E002208DF80B00FFE79DF80B0002
:1048900003B0704780B540F28410C2F20000FEF70A
:1048A00077FC80BDFFE7FEE780B582B08DF807009A
:1048B0009DF80700FCF740FF9DF80700FFF74AFC52
:1048C00002B080BD81B08DF803009DF9030000287F
:1048D0000ED4FFE79DF9031001F01F020120904064
:1048E0004A094EF20011CEF2000141F82200FFE722
:1048F00001B070474EF60C50CEF200000068C0F3D5
:104900000220704782B08DF8070000919DF90700E2
:1049100000280AD4FFE7009800019DF907104EF225
:104920000042CEF2000288540BE0009800019DF88E
:10493000071001F00F014EF61452CEF20002885417
:10494000FFE702B07047000083B00290029800F0C9
:10495000070000904EF60C51CEF20001086801905D
:1049600001984FF6FF02104001900198009A40EA2A
:1049700002200022C0F2FA52104301900198086010
:1049800003B0704780B58EB000200D90FDF74AFC53
:10499000FFF782FCFFF78AFAFFF780FBFFF7D4FAF4
:1049A000FFF7F6FAFFF738FB0220FFF7B1F9694687
:1049B0004FF40070086040F28000C2F2000040F244
:1049C000F402C2F20002012140F60043C4F20103E6
:1049D000FCF72CFDFFF742F9FFF734F945F66100CB
:1049E000C0F60000FFF720FAFFF768F9FFE740F292
:1049F0008000C2F200000290FCF79EFD0298006960
:104A000000F030FE014602980C91406900F02AFE49
:104A10000B900C9A45F65E01C0F6000103910DF172
:104A200022000490FBF726FC03990B9A06A8059038
:104A3000FBF720FC0498FFF7F7F900200121FFF7AE
:104A400005FA0598FFF7F0F94FF47A70FCF75EFF6E
:104A5000CDE75FEA400C08BF91F0000F4FEA8C23CE
:104A60004FEAC12243EA51514FEA1C5018BF00F5EA
:104A7000F0404FEA300018BF41F000415FEA6C5C43
:104A800000F02980BCF1FF3F08BF40F08040704734
:104A9000130C06BF12044FF0100C4FF0000C130E55
:104AA00004BF12020CF1080C130F04BF12010CF129
:104AB000040C930F04BF92000CF1020CD30F04BF3F
:104AC00052000CF1010C11464FF00002A0F11F0042
:104AD000A0EB0C00704711F0004F08BF704731F099
:104AE00000413FF4D5AF0B0C06BF09044FF0100C8A
:104AF0004FF0000C0B0E04BF09020CF1080C0B0F59
:104B000004BF09010CF1040C8B0F04BF89000CF1E8
:104B1000020CCB0F04BF49000CF1010CCCF12003B7
:104B200022FA03F341EA030102FA0CF2A0EB0C00B3
:104B300000F101007047000023F07F4720F07F4C18
:104B400080EA030000F00040ACEB070303F57C5360
:104B500003F1FF032DE9804909B44FEA144324EA25
:104B600003484FEA154B25EA0B4E0FF2042606EBDD
:104B700013273E7803FB0667C7F5000707FB06F619
:104B80004FEAD64606F102064FEA543707FB066C99
:104B9000CCF1005C4FEA1C472CEA074C0CFB06F5F5
:104BA00007FB06F404EB15464FEA961649085FEA40
:104BB000320234BF00204FF000404FEAD13706FBED
:104BC00007FC4FEA1C4C0CFB0BF7D21B03FB0CF74A
:104BD00061EB07010CFB0EF7B0EB074072EB1742DD
:104BE0000CFB08F734BFA2EB0742B2EB074261EBC4
:104BF00017414FEA0C444FEA910706FB07FC4FEAC6
:104C00001C4C0CFB0BF7B0EBC74072EB573203FBAD
:104C10000CF734BFA2EBC742B2EBC74261EB57318E
:104C20000CFB0EF7B0EBC70072EB57720CFB08F7EA
:104C300034BFA2EBC702B2EBC70261EB57714FEA78
:104C4000816141EA92114FEA826242EA90124FEA90
:104C5000806004EBCC04039F4FEAD13706FB07FCCE
:104C60004FEA1C4C0CFB0BF7D21B03FB0CF761EB60
:104C700007010CFB0EF7B0EB074072EB17420CFB81
:104C800008F734BFA2EB0742B2EB074261EB1741D2
:104C90004FEA8C5504EB9C244FEA910706FB07FC76
:104CA0004FEA1C4C0CFB0BF7B0EBC74072EB5732D2
:104CB00003FB0CF734BFA2EBC742B2EBC74261EB78
:104CC00057310CFB0EF7B0EBC70072EB57720CFBC1
:104CD00008F734BFA2EBC702B2EBC70261EB577112
:104CE0004FEA816141EA92114FEA826242EA9012F0
:104CF0004FEA806015EB4C2544F100044FEAD137B0
:104D000006FB07FC4FEA1C4C0CFB0BF7D21B03FB0A
:104D10000CF761EB07010CFB0EF7B0EB074072EBF1
:104D200017420CFB08F734BFA2EB0742B2EB074275
:104D300061EB17414FEA813141EA92414FEA8232F9
:104D400042EA90424FEA80304FEA0C7615EB1C1590
:104D500044F1000448EA03434EEA0B484FF0000ECA
:104D6000B2EB080C71EB030724BF624639464EEBE9
:104D70000E0E4FF0000B0018524149414BEB0B0B4C
:104D8000B2EB080C71EB03077BF1000B24BF62460A
:104D900039464EEB0E0E4FF0000B001852414941C0
:104DA0004BEB0B0BB2EB080C71EB03077BF1000B29
:104DB00024BF624639464EEB0E0E51EA020718BF79
:104DC00046F0010616EB0E7655F1000254F1000193
:104DD00003D5BDE88901BDE80088BDE88901BDE8CB
:104DE0000048B619524141EB0101A3F1010370479C
:104DF00080807F7E7D7C7B7A797877767675747318
:104E0000727171706F6E6E6D6C6C6B6A6A696868D6
:104E1000676666656464636362616160605F5F5E6C
:104E20005E5D5D5C5C5B5B5A5A59595858575756E2
:104E30005655555554545353525252515150505047
:104E40004F4F4F4E4E4D4D4D4C4C4C4B4B4B4A4A99
:104E50004A494949484848474747474646464545DD
:104E60004544444444434343434242424241414116
:104E70009C46002B30D477002BD04FEA37071CB567
:104E800003B44FF010004FF01001BAF1000F06D03C
:104E9000BCF1000FDCBF40F0080040F008014FF00B
:104EA00000000FBCBDE810400BF1010BBBF1010F7E
:104EB00008BF5FEA170722BF12F1010211F10101D9
:104EC0004FF0004143F1000300F0004043EA0000CE
:104ED0007047F9D35708D0E746EA06464FEA164628
:104EE00013F1400F1FDD13F1200FDFBF16430A46F9
:104EF000002120335B42BED0C3F1200746EA0646BC
:104F00004FEA164602FA07F746EA070622FA03F2C4
:104F1000C3F1200701FA07F742EA070221FA03F179
:104F20004FF00003A7E746EA020646EA06464FEAC4
:104F3000164646EA0106BCBF46EA0646360C4FF066
:104F400000034FF000024FF0000194E72DE9804C80
:104F500070B49A46934691E8380007C831EA400C8D
:104F600048BF34EA430C03D5FFF7E6FDFFF780FFA7
:104F7000F0BCBDE8008C2DE9804C70B49A46934695
:104F800091E8380007C810F0804F08BF13F0804F39
:104F900003D100F005F8FFF76BFFF0BCBDE8008C13
:104FA00020F07F4723F07F4C80EA030000F00040B0
:104FB00007EB0C03A3F57C53A3F1FE0392F0000F63
:104FC00000F0B38095F0000F00F077802DE90149E3
:104FD0004FEA114021EA00484FEA144624EA064706
:104FE00000FB06FC08FB06F607FB08F818EB064872
:104FF0004CEB164C00FB07F718EB07484CEB17403F
:105000004FEA124B22EA0B4E4FEA154625EA0647B5
:105010000BFB06FC0EFB06F607FB0EFE1EEB064E18
:105020004CEB164C0BFB07F71EEB074E4CEB174BEC
:1050300018EB0B0840F1000018EB0E0B58EB0008C2
:1050400040F100008F1A4FF000014FF000063CBF06
:10505000C943661B14BFB5EB040C00213CBFC94318
:10506000F61B4FEA174427EA04454FEA1C472CEA8F
:10507000074C04FB076205FB07F70CFB05F616EB74
:10508000074642EB174204FB0CFC16EB0C4642EBC6
:105090001C421BEB060658EB020241414EEA8E0E03
:1050A00046EA9E0601D5BDE80189B619524141EB99
:1050B0000101A3F10103BDE801894FEA144524EA87
:1050C00005464FEA114721EA074C05FB07F406FBAA
:1050D00007F70CFB06F111EB074144EB174405FB06
:1050E0000CFC11EB0C4144EB1C444FEA124722EA42
:1050F000074C05FB07F206FB07F70CFB06F616EB61
:10510000074642EB174205FB0CFC16EB0C4642EB44
:105110001C456A1854F1000148BF7047B619524146
:1051200041EB0101A3F10103704795F0000F37D067
:105130004FEA114221EA02464FEA144724EA074C9B
:1051400002FB07F106FB07F70CFB06F414EB074420
:1051500041EB174102FB0CFC14EB0C4441EB1C41EE
:105160004FEA154725EA074C02FB07F506FB07F750
:105170000CFB06F616EB074645EB174502FB0CFC4D
:1051800016EB0C4645EB1C42121951F1000148BFC9
:105190007047B619524141EB0101A3F10103704779
:1051A0004FEA144524EA05464FEA114721EA074C25
:1051B00005FB07F106FB07F70CFB06F212EB0742B3
:1051C00041EB174105FB0CFC12EB0C4251EB1C416F
:1051D0004FF0000648BF7047921841EB0101A3F160
:1051E00001037047490050EAC12018BF04204A0D4E
:1051F00018BF40F0010040F2FF72B2EB515F08BFF0
:1052000040F00200012808BF0520704730380A2806
:1052100001D20120704700207047000010B500291E
:105220000AD00878002807D005487844FCF780F8B1
:10523000002801D0002010BD0248784410BD0000B5
:105240005E0600005606000010B500290AD0087856
:10525000002807D005487844FCF76AF8002801D0F8
:10526000002010BD0248784410BD00004E0600002A
:105270004606000021F0004201F00043A2F1605216
:10528000B2F5801F28BFD2F17F6C0BD95FEA001CFA
:1052900043EAC20242EB507018BF704728BF20F0AB
:1052A00001007047B2F5801FBCBF184670474FEA37
:1052B000410C1CF5001F02D2084600F034BA70B54C
:1052C00000F07BF900000089FFF7F6BF4FF00040C7
:1052D000A0F58000704700002DE9C04130B4DFF830
:1052E000A4C23CEA111418BF3CEA131400F0ED808C
:1052F0001CEA111481EA030544EAD57418BF1CEABC
:10530000131500F0C880A4EB050404F17F7404F5C4
:1053100000344FF0004545EAC12145EAC32341EA84
:10532000505143EA52534FEAC0204FEAC2229942F9
:1053300008BF904200F09D804FEA13650FF24416BB
:10534000765D4FEA134506FB05F7C7F1807706FB4C
:1053500007F74FEAD737A7FB03687642A7FB06CECD
:10536000C8F5803838BFA8F1010807FB08E6A6FB9E
:10537000028C4FF0000EE6FB03CEDCF1000CCEF108
:10538000004E38BFAEF1010EA6FB0C584FF00007DF
:10539000E6FB0E87A1FB08C6A0FB07CE16EB0E06A8
:1053A0004FF0000545F10005E1FB076515F1E04E02
:1053B0007EBFA4F580345FEA46066D4116F1800792
:1053C00045F100054FEA172747EA05674FEA15251B
:1053D0004FEA0666A6F1DE46B6F1805F20D9384670
:1053E00005EBC47124F0010C01EB0C11BCF1FE6F54
:1053F00002D8F0BCBDE8008124425CBF01F5801EEC
:105400009EEAC47F02D4F0BCBDE80081244200F1D2
:105410003980A1F1C041F0BCBDE8004100F01BB9EA
:105420004FEAD02040EA41504FEAD1214FEAD22240
:1054300042EA43524FEAD323A7FB028607FB0366E7
:1054400005FB02661EEA0E0F58BFA6EB0056B6EB30
:1054500000564FEA520E4EEAC37E18EB0E0E56EB84
:10546000530EBCD518EB02085E417F1C55F10005B8
:10547000B5E74FF480154FF000074FF000064FF0EE
:105480000008ACE701F1C04101F000414FF000001D
:10549000F0BCBDE800810CEA131511EA0C1F00D026
:1054A0000CE013EA0C1F00F026804FF0000081EAA8
:1054B000030101F00041F0BCBDE80081F0BCBDE893
:1054C000004181EA030100F0C6B8F0BCBDE800412C
:1054D00070B500F072F800BF097EFC3E00F007B81E
:1054E0004FF0000081EA030101F00041704781EABA
:1054F000030100F0B0B8F0BCBDE8004122494FF014
:1055000000007047FFFDFBF9F7F5F4F2F0EEEDEB6C
:10551000E9E8E6E4E3E1E0DEDDDBDAD8D7D5D4D3B1
:10552000D1D0CFCDCCCBCAC8C7C6C5C4C2C1C0BFFD
:10553000BEBDBCBBBAB9B8B7B6B5B4B3B2B1B0AF03
:10554000AEADACABAAA9A8A8A7A6A5A4A3A3A2A1E7
:10555000A09F9F9E9D9C9C9B9A99999897979695A2
:1055600095949393929191908F8F8E8E8D8C8C8B3E
:105570008B8A8989888887878685858484838382C6
:10558000828181800000FF070000F87F10F0004258
:1055900048BF4042B0FA80F310FA03F10AD0C3F1D9
:1055A0001D0303F5806302EB03524FEA415002EB07
:1055B000D12170474FF0000070470EF1020E2EF01F
:1055C000030E5EF8046B364205D4012A43EB030553
:1055D00015F5001F12D8012841EB010C1CF5001F26
:1055E0000CD80ED14FEAD17C0CEB4C0C0CF1020C18
:1055F00015F5001F08BF4CEBD37C04E04FF0080CFE
:1056000001E04FEAD37C0CEB4C0526FA05F606F0D8
:105610000706B6F1040C06D20EEB860CBDE870400E
:105620004CF0010C6047DFE80CF0090B02024FF070
:105630000041A1F500214FF0000070BD1946104651
:10564000012851EB010418BFD4F5001484BF0020D9
:1056500001F0004170BD0808A0F500114FEA3101CA
:105660007047000041000B0ED3F19E0208D950F4A0
:1056700000034FEA032323FA02F048BF4042704779
:1056800010B500F00AF800BF49922480002070474E
:105690006FF0004282EA200070470EF1020E2EF0F9
:1056A000030E5EF8044B244204D44FEA4102B2F1E7
:1056B0007F4F11D84FEA4003B3F17F4F0CD80ED182
:1056C0004FEAD07C0CEB4C0C0CF1020CB2F17F4F8A
:1056D00008BF4CEBD17C04E04FF0080C01E04FEA2E
:1056E000D17C0CEB4C0324FA03F404F00704B4F16E
:1056F000040C06D20EEB840CBDE810404CF0010CFB
:105700006047DFE80CF0070802024FF00040A0F508
:10571000800010BD0846420018BFD2F1807288BFD9
:1057200000F0004010BDFF2141EAD050C005704795
:10573000FBF708BAFBF73CBB0000000000000000CC
:1057400030313233343536373839414243444546B7
:1057500040305800303132333435363738396162B1
:1057600063646566403078000400000800000000B3
:1057700000000002000100001030313233343536B1
:10578000373839616263646566787000303132336E
:105790003435363738394142434445465850000085
:1057A00002400000000000A00000000005400000D2
:1057B000000000C8000000000C4000000000409CF9
:1057C00000000000194000000020BCBE00000000E6
:1057D00034400000BFC91B8E00000004B54000002B
:1057E000504BCFD06607E2CF010000006C410000B3
:1057F0003E8251AADFEEA73401000000D94200002A
:10580000DCB5A0E23A301F97FFFFFFFFB445000070
:10581000FD25A0C8E9A3C14FFFFFFFFFFF3F000028
:105820000000008000000000FF3F0000000000803A
:10583000000000000000000000000000010203045E
:105840000607080900000000010203040203040522
:10585000060708090A0B0C0D0E0F10100102256433
:105860000073657400000000B859000800000020B3
:105870002000000028010008D8590008200000205E
:10588000B0070000440100081C00000043000000B5
:10589000F8FFFFFF0C0000000E0000000F000000EA
:1058A0002E0000001001000043000000F8FFFFFF81
:1058B0000040404040404040404041414141414023
:1058C00040404040404040404040404040404040D8
:1058D0004005020202020202020202020202020267
:1058E000022020202020202020202002020202026C
:1058F00002029090909090901010101010101010C4
:1059000010101010101010101010101002020202CF
:105910000202888888888888080808080808080813
:10592000080808080808080808080808020202020F
:105930004000000000000000000000000000000027
:105940000000000000000000000000000000000057
:105950000000000000000000000000000000000047
:105960000000000000000000000000000000000037
:105970000000000000000000000000000000000027
:105980000000000000000000000000000000000017
:105990000000000000000000000000000000000007
:1059A00000000000000000000000000000000000F7
:1059B00000000000000000000024F40000191B0695
:1059C0000C1B130018180609080906000100000046
:0859D0001000000000000000BF
:04000005080000ED02
:00000001FF
